:0400000002002B329D
:01000B0032C2
:0100130032BA
:01001B0032B2
:0300230002010CCB
:070084007521007522E075F3
:06008B002300752400753E
:0600910025007526007534
:060097002700752800752A
:06009D002900752A02751E
:0600A3002B02752C027512
:0600A9002D61752E6F753C
:0400AF002F14753065
:0500B30021753100750C
:0600B800324075330F75A4
:0600BE00340175350175E7
:0500C4005F0075600003
:0300C9000200260C
:050026001200CC80FE79
:0D00CC00900010E4F5F01202C5904B0012F8
:0C00D90003F15394D75395D71201E5852D
:0600E500308285318385A5
:0A00EB0032F01201F0D2AFD2AC7572
:0200F5005F00AA
:0C00F70074FA255F400D6380209001F436
:070103001202D6055F80ED3A
:02010A0080FE75
:0C010C00C020C0E0C0F0C082C083C00270
:0E011800C003C004C005C006C007C000C0017F
:0B012600C0D075D0001098030201C883
:0A013100AA99BA68207536007537E8
:08013B000175380175390875E2
:020143005F0457
:0901450074D7255F400BE55F242F
:08014E0036F87600055F80EF32
:0A015600BA632075366375378075B3
:06016000382075392275FC
:020166005F0434
:0901680074D7255F400BE55F240C
:0801710036F87600055F80EF0F
:07017900BA734C757936756D
:060180007A00757B40755A
:060186007803757C1C905B
:09018C00003375F04012023B90B3
:0901950005B975F0801204107523
:02019E005F0000
:0901A00074E4255F4019E55F24B9
:0C01A90036F8860274302AF58212040D2C
:0A01B50075822012040D055F80E141
:0901BF009005C275F080120410D5
:0E01C800D0D0D001D000D007D006D005D00492
:0D01D600D003D002D083D082D0F0D0E0D092
:0201E3002032C8
:0905B90053656E643A200A0D003E
:0305C2000A0D001F
:06005A00E478FFF6D8FD7A
:080038007900E94400601B7A25
:05004000009005C578E9
:030045000075A0A3
:0A00480000E493F2A308B8000205DB
:08005200A0D9F4DAF275A0FF59
:0B01E500D2A7750C00758202020540D5
:0C01F000AA82AB83ACF0D2A37D007E009D
:0E01FC00C3ED940FEE648094805031ED2AFF25
:0E020A00EE3BF88C018F82888389F01205800C
:0D021800F582C002C003C004C005C006127C
:0E0225000547D006D005D004D003D0020DBD91
:0502330000C70E80C4AD
:03023800C2A3223C
:0A023B00AA82AB83ACF0D2A67D00CE
:0C024500C3ED95785029ED2AFEE43BFF44
:0E0251008C008E828F8388F0120580F582C0AB
:0E025F0002C003C004C005120547D005D0043C
:07026D00D003D0020D80D187
:020274007A000E
:0A027600C3EA957C501FEA2579FBCE
:0A028000E4357AFCAD7B8B828C83A1
:0E028A008DF0120580F582C002120547D002E9
:030298000A80DBFE
:03029B00C2A622D6
:02029E00D2A6E6
:0502A00030A2FD7A0010
:0C02A50030A21A8A030AEB2461F875826B
:0E02B10000C002C000120547E582D000D00256
:0302BF00F680E3E3
:0302C200C2A622AF
:0A02C500AA82AB838A08EBF5093327
:0702CF0095E0F50AF50B2292
:0802D600AA82AB8385080C85A8
:0302DE00090D8582
:0302E1000A0E857D
:0A02E4000B0F90002BE4F5F0C002B0
:0E02EE00C003120485AC82AD83AEF0FFD003D6
:0E02FC00D002EFC313FFEE13FEED13FDEC1363
:0E030A00FCEFC313EE13ED13FDEC13FC7E00AD
:020318007F0064
:0E031A008E008F01C3E89AE99B50217800798C
:0103280000D4
:0E032900C3E89CE964808DF063F08095F0508D
:080337000708B800ED0980EA97
:07033F000EBE00D70F80D4B1
:010346002294
:04034700AA82AB8358
:0D034B00E5AD20E4FB8BAB8AAC75AD08225C
:0A035800AA82AB83ACF0AD0CAE0D31
:06036200AF0EE4F511F5F9
:010368001282
:06036900C3E511950FE54C
:0A036F001264808510F063F08095A1
:0E037900F050288A828B838CF0120580F8A346
:0E038700AA82AB838D828E838FF0E81205A0D0
:0A039500A3AD82AE830511E4B5119B
:05039F00C9051280C534
:0103A4002236
:0E03A500AA82AB8353C8FED2CCD2CDC2C943CC
:0E03B300C8045380F9439506BA0005BB4B02FF
:0203C1008018A2
:0E03C3007C007D00BA0019BBE116BC0013BD22
:0A03D100001075CBFF75CAF780120B
:0803DB0075CBFF75CAE6800A2C
:0A03E30075CBFF75CAE690000022FA
:0403ED009000012259
:0A03F1001203A54398404398102220
:0303FB008582995F
:0503FE0010990280FBD4
:0104030022D6
:0504040010980280FBCE
:04040900859982222D
:03040D000203FBEC
:06041000AA82AB83ACF0F0
:0E0416008A828B838CF0120580FD60188D8227
:050424000ABA00010B03
:0E042900C002C003C0041203FBD004D003D0F5
:030437000280DC64
:01043A00229F
:03043B00020404B4
:0A043E00AA82AB83750C0AE4F50DE9
:0E0448008A828B83C002C003120557AC82ADBE
:0E04560083D003D002EC4D600F8C828D83C0EA
:0A04640002C00312043ED003D002D0
:0A046E00750C0AE4F50D8A828B83F9
:0D0478001204F3AA8274302AF58202040DEA
:0C048500AAF0FBE582850CF0A4FCADF0B1
:0C049100E583850CF0A42DFDE435F0FEA1
:0C049D00E582850DF0A42DFDE5F03EFE8B
:0C04A900E433FFEA850CF0A42EFEE5F021
:0C04B5003FFFE583850DF0A42EFEE5F06E
:0C04C1003FFFE582850EF0A42EFEE5F062
:0B04CD003FFFEB850CF0A42FFFEA8539
:0A04D8000DF0A42FFFE583850EF060
:0C04E200A42FFFE582850FF0A42F8EF000
:0504EE008D838C8222C9
:0804F300E50C450D60467A019D
:0704FB00E50C25E0F50CE51E
:090502000D334012F50DE5829560
:0A050B000CE583950D40030A80E61D
:03051500C3E50D2E
:0705180013F50DE50C13F5CE
:01051F000CCF
:0A052000C3E582950CF5F0E5839524
:08052A000D4005F58385F08208
:07053200C3E50D13F50DE513
:060539000C13F50CDAE1E1
:01053F002299
:070540008582B3850CB42293
:07054700AA825391DF8AB282
:09054E00E59130E5FB85B2822243
:080060007800E84400600A7911
:030068000075A080
:06006B0000E4F309D8FCDB
:080071007800E84400600C79FE
:0B00790000900000E4F0A3D8FCD9FACE
:050557007A10E4FBFC3A
:0E055C00E58225E0F582E58333F583EB33FB82
:0A056A00EC33FCEB950CF5F0EC957A
:090574000D4006FCABF0438201CE
:03057D00DADD22A2
:03002B0075817C60
:0A002E0012059CE582600302002623
:0E05800020F71430F6148883A88220F507E6D1
:06058E00A8837583002222
:03059400E280F70B
:03059700E49322C8
:02059A00E0225D
:04059C007582002242
:0E05A00020F71030F6118883A88220F507F6A8
:0505AE00A88375830025
:0105B3002225
:0305B400F280F7DB
:0205B700F02230
:00000001FF
