:0400000002002B329D
:01000B0032C2
:0100130032BA
:01001B0032B2
:03002300020118BF
:0700840075210075220875CB
:06008B002300752400753E
:0600910025007526007534
:060097002700752800752A
:06009D002900752A02751E
:0600A3002B02752C027512
:0600A9002D61752E6F753C
:0400AF002F14753065
:0500B30021753100750C
:0600B800324075330F75A4
:0600BE00340175350175E7
:0500C400600075610001
:0300C9000200260C
:050026001200CC80FE79
:0D00CC00900010E4F5F0120257904B001266
:0C00D90004085394D75395D71201778583
:0600E500308285318385A5
:0600EB0032F012018275E3
:0900F1003666D2AFD2AC75600096
:0C00FA0074FA2560400D6380209001F432
:07010600120268056080EDA4
:09010D0090054B75F080120427E7
:0201160080FE69
:0C011800C020C0E0C0F0C082C083C00264
:0E012400C003C004C005C006C007C000C00173
:0D013200C0D075D000638020109802801BA3
:05013F00859936757A78
:0501440036757B00751B
:060149007C40757903758E
:09014F007D0190003375F04012AF
:0201580001CDD7
:0E015A00D0D0D001D000D007D006D005D00400
:0D016800D003D002D083D082D0F0D0E0D000
:02017500203236
:0E054B004D6173746572207374617274757003
:040559002E0A0D0059
:06005A00E478FFF6D8FD7A
:080038007900E94400601B7A25
:050040000090055D7851
:030045000075A0A3
:0A00480000E493F2A308B8000205DB
:08005200A0D9F4DAF275A0FF59
:0B017700D2A7750C007582020203A5E0
:0C018200AA82AB83ACF0D2A37D007E000B
:0E018E00C3ED940FEE648094805031ED2AFF93
:0E019C00EE3BF88C018F82888389F012049C60
:0D01AA00F582C002C003C004C005C00612EB
:0E01B70003ACD006D005D004D003D0020DBD9D
:0501C50000C70E80C41C
:0301CA00C2A322AB
:0A01CD00AA82AB83ACF0D2A67D003D
:0C01D700C3ED95795029ED2AFEE43BFFB2
:0E01E3008C008E828F8388F012049CF582C0FF
:0E01F10002C003C004C0051203ACD005D00448
:0701FF00D003D0020D80D1F6
:020206007A007C
:0A020800C3EA957D501FEA257AFB3A
:0A021200E4357BFCAD7C8B828C830D
:0E021C008DF012049CF582C0021203ACD002D9
:03022A000A80DB6C
:03022D00C2A62244
:02023000D2A654
:0502320030A2FD7A007E
:0C02370030A21A8A030AEB2462F87582D8
:0E02430000C002C0001203ACE582D000D00261
:03025100F680E351
:03025400C2A6221D
:0A025700AA82AB838A08EBF5093395
:0702610095E0F50AF50B2200
:08026800AA82AB8385080C8516
:03027000090D85F0
:030273000A0E85EB
:0A0276000B0F90002BE4F5F0C0021E
:0E028000C003120337AC82AD83AEF0FFD00393
:0E028E00D002EFC313FFEE13FEED13FDEC13D1
:0E029C00FCEFC313EE13ED13FDEC13FC7E001C
:0202AA007F00D3
:0E02AC008E008F01C3E89AE99B5021780079FB
:0102BA000043
:0E02BB00C3E89CE964808DF063F08095F050FC
:0802C9000708B800ED0980EA06
:0702D1000EBE00D70F80D420
:0102D8002203
:0402D900AA82AB83C7
:0D02DD00E5AD20E4FB8BAB8AAC75AD0822CB
:0A02EA00AA82AB83ACF0AD0CAE0DA0
:0602F400AF0EE4F511F568
:0102FA0012F1
:0602FB00C3E511950FE5BB
:0A0301001264808510F063F080950F
:0E030B00F050288A828B838CF012049CF8A399
:0E031900AA82AB838D828E838FF0E8120532AC
:0A032700A3AD82AE830511E4B51109
:05033100C9051280C5A2
:0103360022A4
:0C033700AAF0FBE582850CF0A4FCADF000
:0C034300E583850CF0A42DFDE435F0FEF0
:0C034F00E582850DF0A42DFDE5F03EFEDA
:0C035B00E433FFEA850CF0A42EFEE5F070
:0C0367003FFFE583850DF0A42EFEE5F0BD
:0C0373003FFFE582850EF0A42EFEE5F0B1
:0B037F003FFFEB850CF0A42FFFEA8588
:0A038A000DF0A42FFFE583850EF0AF
:0C039400A42FFFE582850FF0A42F8EF04F
:0503A0008D838C822218
:0703A5008582B3850CB42230
:0703AC00AA825391DF8AB21F
:0903B300E59130E5FB85B28222E0
:080060007800E84400600A7911
:030068000075A080
:06006B0000E4F309D8FCDB
:080071007800E84400600C79FE
:0B00790000900000E4F0A3D8FCD9FACE
:0E03BC00AA82AB8353C8FED2CCD2CDC2C943B5
:0E03CA00C8045380F9439506BA0005BB4B02E8
:0203D80080188B
:0E03DA007C007D00BA0019BBE116BC0013BD0B
:0A03E800001075CBFF75CAF78012F4
:0803F20075CBFF75CAE6800A15
:0A03FA0075CBFF75CAE690000022E3
:040404009000012241
:0A0408001203BC43984043981022F1
:0304120085829947
:0504150010990280FBBC
:01041A0022BF
:05041B0010980280FBB7
:040420008599822216
:03042400020412BD
:06042700AA82AB83ACF0D9
:0E042D008A828B838CF012049CFD60188D82F5
:05043B000ABA00010BEC
:0E044000C002C003C004120412D004D003D0C6
:03044E000280DC4D
:010451002288
:0304520002041B86
:0A045500AA82AB83750C0AE4F50DD2
:0E045F008A828B83C002C003120505AC82ADF9
:0E046D0083D003D002EC4D600F8C828D83C0D3
:0A047B0002C003120455D003D002A2
:0A048500750C0AE4F50D8A828B83E2
:0D048F001204B8AA8274302AF582020424F7
:03002B0075817D5F
:0A002E0012052EE582600302002691
:0E049C0020F71430F6148883A88220F507E6B6
:0604AA00A8837583002207
:0304B000E280F7F0
:0304B300E49322AD
:0204B600E02242
:0804B800E50C450D60467A01D8
:0704C000E50C25E0F50CE559
:0904C7000D334012F50DE582959C
:0A04D0000CE583950D40030A80E659
:0304DA00C3E50D6A
:0704DD0013F50DE50C13F50A
:0104E4000C0B
:0A04E500C3E582950CF5F0E5839560
:0804EF000D4005F58385F08244
:0704F700C3E50D13F50DE54F
:0604FE000C13F50CDAE11D
:0105040022D4
:050505007A10E4FBFC8C
:0E050A00E58225E0F582E58333F583EB33FBD4
:0A051800EC33FCEB950CF5F0EC95CC
:090522000D4006FCABF043820120
:03052B00DADD22F4
:04052E0075820022B0
:0E05320020F71030F6118883A88220F507F616
:05054000A88375830093
:010545002293
:03054600F280F749
:02054900F0229E
:00000001FF
