:0400000002005B326D
:01000B0032C2
:0100130032BA
:01001B0032B2
:0100230032AA
:01002B0032A2
:01003300329A
:01003B003292
:01004300328A
:01004B003282
:0300530002015552
:0700B400752100752208759B
:0600BB002300752400750E
:0600C10025007526007504
:0600C700270075280075FA
:0600CD002900752A0F75E1
:0600D3002B01752C0175E4
:0600D9002D61752E6F750C
:0400DF002F15753034
:0500E3002175310075DC
:0600E80032407533027581
:0500EE0034027535022B
:0300F300020056B2
:050056001200F680FE1F
:0D00F600900010E4F5F01202AD904B0012E6
:0C01030003D95394D75395D71201CD8532
:06010F003082853183857A
:0601150032F01201D87562
:0A011B003600D2AFD2EA7A007B0072
:0E012500C3EA9406EB64809480501863802037
:0E0133009001F4C002C0031202BED003D0023D
:070141000ABA00E00B80DDAB
:090148009005A175F0801203F886
:04015100D2A680FCB6
:0C015500C020C0E0C0F0C082C083C00227
:0E016100C003C004C005C006C007C000C00136
:0E016F00C0D075D0006380209001F41202BE53
:02017D007A0006
:0C017F0030A21A8A030AEB2464F875828F
:0E018B0000C002C00012052FE582D000D00295
:03019900F680E30A
:07019C008564821203F59057
:0E01A30005B275F0801203F8C2A65391BFD0CA
:0E01B100D0D001D000D007D006D005D004D0A9
:0C01BF0003D002D083D082D0F0D0E0D07A
:0201CB002032E0
:0E05A100536C61766520737461727475702EF0
:0305AF000A0D0032
:0305B2000A0D002F
:06008A00E478FFF6D8FD4A
:080068007900E94400601B7AF5
:05007000009005B578C9
:030075000075A073
:0A00780000E493F2A308B8000205AB
:08008200A0D9F4DAF275A0FF29
:0B01CD00D2A7750C0075820202052805
:0C01D800AA82AB83ACF0D2A37D007E00B5
:0E01E400C3ED940FEE648094805031ED2AFF3D
:0E01F200EE3BF88C018F82888389F01205683D
:0D020000F582C002C003C004C005C0061294
:0E020D00052FD006D005D004D003D0020DBDC1
:05021B0000C70E80C4C5
:03022000C2A32254
:0A022300AA82AB83ACF0D2A67D00E6
:0C022D00C3ED957B5029ED2AFEE43BFF59
:0E0239008C008E828F8388F0120568F582C0DB
:0E02470002C003C004C00512052FD005D0046C
:07025500D003D0020D80D19F
:02025C007A0026
:0A025E00C3EA957F501FEA257CFBE0
:0A026800E4357DFCAD7E8B828C83B3
:0E0272008DF0120568F582C00212052FD00231
:030280000A80DB16
:03028300C2A622EE
:02028600D2A6FE
:0502880030A2FD7A0028
:0C028D0030A21A8A030AEB2464F8758280
:0E02990000C002C00012052FE582D000D00286
:0302A700F680E3FB
:0302AA00C2A622C7
:0A02AD00AA82AB838A08EBF509333F
:0702B70095E0F50AF50B22AA
:0802BE00AA82AB8385080C85C0
:0302C600090D859A
:0302C9000A0E8595
:0A02CC000B0F90002BE4F5F0C002C8
:0E02D600C00312046DAC82AD83AEF0FFD00306
:0E02E400D002EFC313FFEE13FEED13FDEC137B
:0E02F200FCEFC313EE13ED13FDEC13FC7E00C6
:020300007F007C
:0E0302008E008F01C3E89AE99B5021780079A4
:0103100000EC
:0E031100C3E89CE964808DF063F08095F050A5
:08031F000708B800ED0980EAAF
:070327000EBE00D70F80D4C9
:01032E0022AC
:04032F00AA82AB8370
:0D033300E5AD20E4FB8BAB8AAC75AD082274
:0A034000AA82AB83ACF0AD0CAE0D49
:06034A00AF0EE4F511F511
:01035000129A
:06035100C3E511950FE564
:0A0357001264808510F063F08095B9
:0E036100F050288A828B838CF0120568F8A376
:0E036F00AA82AB838D828E838FF0E812058800
:0A037D00A3AD82AE830511E4B511B3
:05038700C9051280C54C
:01038C00224E
:0E038D00AA82AB8353C8FED2CCD2CDC2C943E4
:0E039B00C8045380F9439506BA0005BB4B0217
:0203A9008018BA
:0E03AB007C007D00BA0019BBE116BC0013BD3A
:0A03B900001075CBFF75CAF7801223
:0803C30075CBFF75CAE6800A44
:0A03CB0075CBFF75CAE69000002212
:0403D5009000012271
:0A03D90012038D4398404398102250
:0303E30085829977
:0503E60010990280FBEC
:0103EB0022EF
:0503EC0010980280FBE7
:0403F1008599822246
:0303F5000203E31D
:0603F800AA82AB83ACF009
:0E03FE008A828B838CF0120568FD60188D8258
:05040C000ABA00010B1B
:0E041100C002C003C0041203E3D004D003D025
:03041F000280DC7C
:0104220022B7
:030423000203ECE5
:0A042600AA82AB83750C0AE4F50D01
:0E0430008A828B83C002C00312053FAC82ADEE
:0E043E0083D003D002EC4D600F8C828D83C002
:0A044C0002C003120426D003D00200
:0A045600750C0AE4F50D8A828B8311
:0D0460001204DBAA8274302AF5820203F533
:0C046D00AAF0FBE582850CF0A4FCADF0C9
:0C047900E583850CF0A42DFDE435F0FEB9
:0C048500E582850DF0A42DFDE5F03EFEA3
:0C049100E433FFEA850CF0A42EFEE5F039
:0C049D003FFFE583850DF0A42EFEE5F086
:0C04A9003FFFE582850EF0A42EFEE5F07A
:0B04B5003FFFEB850CF0A42FFFEA8551
:0A04C0000DF0A42FFFE583850EF078
:0C04CA00A42FFFE582850FF0A42F8EF018
:0504D6008D838C8222E1
:0804DB00E50C450D60467A01B5
:0704E300E50C25E0F50CE536
:0904EA000D334012F50DE5829579
:0A04F3000CE583950D40030A80E636
:0304FD00C3E50D47
:0705000013F50DE50C13F5E6
:010507000CE7
:0A050800C3E582950CF5F0E583953C
:080512000D4005F58385F08220
:07051A00C3E50D13F50DE52B
:060521000C13F50CDAE1F9
:0105270022B1
:070528008582B3850CB422AB
:07052F00AA825391DF8AB29A
:09053600E59130E5FB85B282225B
:080090007800E84400600A79E1
:030098000075A050
:06009B0000E4F309D8FCAB
:0800A1007800E84400600C79CE
:0B00A90000900000E4F0A3D8FCD9FA9E
:05053F007A10E4FBFC52
:0E054400E58225E0F582E58333F583EB33FB9A
:0A055200EC33FCEB950CF5F0EC9592
:09055C000D4006FCABF0438201E6
:03056500DADD22BA
:03005B0075817F2D
:0A005E00120584E5826003020056DB
:0E05680020F71430F6148883A88220F507E6E9
:06057600A883758300223A
:03057C00E280F723
:03057F00E49322E0
:02058200E02275
:04058400758200225A
:0E05880020F71030F6118883A88220F507F6C0
:05059600A8837583003D
:01059B00223D
:03059C00F280F7F3
:02059F00F02248
:00000001FF
