:0400000002005B326D
:01000B0032C2
:0100130032BA
:01001B0032B2
:0100230032AA
:01002B0032A2
:01003300329A
:01003B003292
:01004300328A
:01004B003282
:0300530002017334
:0700B4007521007522E075C3
:0600BB002300752400750E
:0600C10025007526007504
:0600C700270075280075FA
:0600CD002900752A0F75E1
:0600D3002B01752C0175E4
:0600D9002D61752E6F750C
:0400DF002F15753034
:0500E3002175310075DC
:0600E80032407533027581
:0500EE0034027535022B
:0300F300020056B2
:050056001200F680FE1F
:0D00F600900010E4F5F012032B904B001267
:0C01030004575394D75395D71205A685D6
:06010F003082853183857A
:0601150032F01205B17585
:0A011B003600D2AFD2EA7A007B0072
:0E012500C3EA9406EB64809480501863802037
:0E0133009001F4C002C00312033CD003D002BE
:070141000ABA00E00B80DDAB
:090148009006FF75F080120476A8
:0C015100D2A67404B536F990071775F0BB
:08015D008012047612000090EC
:09016500071F75F0801204767585
:05016E00360002015102
:0C017300C020C0E0C0F0C082C083C00209
:0E017F00C003C004C005C006C007C000C00118
:05018D00C0D075D00098
:0601920020A20302030994
:06019800E4B536028011FF
:07019E007401B53602802256
:0801A5007402B53603020237B3
:0201AD0080E3ED
:0A01AF0090072575F08012047675A4
:0601B9003B0075360190C9
:0801BF00072B75F08012047695
:0A01C700C3E53B648094845041AA14
:0501D1003B053BEA24A0
:0C01D60037F8758200C0001206D2E582E6
:0A01E200D000F6E53B142437F8E6E0
:0C01EC00C4540F2430F582120473E53B6C
:0C01F800142437F88602740F5A2430F5E6
:0B020400821204737582201204730242
:02020F0001925A
:0C021100C3E53B6480949C500B75820098
:06021D001206D2053B02AF
:02022300019246
:07022500753B0075360290E5
:09022C00073375F080120476021C
:02023500019234
:0A023700C3E53B6480949B505AAA73
:050241003B053BEA242F
:0A02460000FAE43400FB758200C0EA
:0E02500002C0031206D2AC82D003D0028A8212
:0A025E008B83ECF0E53B142400F55F
:0C02680082E43400F583E0C4540F24301D
:09027400F582120473E53B142429
:0A027D0000F582E43400F583E0FA96
:0E028700740F5A2430F582120473758220120F
:05029500047302019258
:09029A007582001206D2AA3B0590
:0702A3003BEA2400FAE434F9
:0C02AA0000FB758200C002C0031206D2E7
:0D02B600AC82D003D0028A828B83ECF0E58D
:0802C3003B142400F582E43431
:0C02CB0000F583E0C4540F2430F58212CB
:0602D7000473E53B142452
:0A02DD0000F582E43400F583E0FA36
:0E02E700740F5A2430F58212047375822012AF
:0602F5000473753B007567
:0902FB00360490073B75F08012F7
:050304000476020192E5
:0E030900C2A65391BFD0D0D001D000D007D0F3
:0E03170006D005D004D003D002D083D082D00F
:06032500F0D0E0D0203210
:0E06FF007761697420666F72206865616465BA
:0A070D0072207061636B65740A00CE
:0807170053746172740A0D00B5
:06071F007265740A0D0072
:0607250069646C650A0026
:08072B006865616465720A0053
:080733000A0D636F64650A0002
:07073B000A0D52756E0A0061
:06008A00E478FFF6D8FD4A
:080068007900E94400601B7AF5
:0500700000900742783A
:030075002875A04B
:0A00780000E493F2A308B8000205AB
:08008200A0D9F4DAF275A0FF29
:0A032B00AA82AB838A08EBF50933C0
:0703350095E0F50AF50B222B
:08033C00AA82AB8385080C8541
:03034400090D851B
:030347000A0E8516
:0A034A000B0F90002BE4F5F0C00249
:0E035400C0031204EBAC82AD83AEF0FFD00309
:0E036200D002EFC313FFEE13FEED13FDEC13FC
:0E037000FCEFC313EE13ED13FDEC13FC7E0047
:02037E007F00FE
:0E0380008E008F01C3E89AE99B502178007926
:01038E00006E
:0E038F00C3E89CE964808DF063F08095F05027
:08039D000708B800ED0980EA31
:0703A5000EBE00D70F80D44B
:0103AC00222E
:0403AD00AA82AB83F2
:0D03B100E5AD20E4FB8BAB8AAC75AD0822F6
:0A03BE00AA82AB83ACF0AD0CAE0DCB
:0603C800AF0EE4F511F593
:0103CE00121C
:0603CF00C3E511950FE5E6
:0A03D5001264808510F063F080953B
:0E03DF00F050288A828B838CF01206AFF8A3B0
:0E03ED00AA82AB838D828E838FF0E81206E623
:0A03FB00A3AD82AE830511E4B51135
:05040500C9051280C5CD
:01040A0022CF
:0E040B00AA82AB8353C8FED2CCD2CDC2C94365
:0E041900C8045380F9439506BA0005BB4B0298
:0204270080183B
:0E0429007C007D00BA0019BBE116BC0013BDBB
:0A043700001075CBFF75CAF78012A4
:0804410075CBFF75CAE6800AC5
:0A04490075CBFF75CAE69000002293
:0404530090000122F2
:0A04570012040B4398404398102252
:03046100858299F8
:0504640010990280FB6D
:010469002270
:05046A0010980280FB68
:04046F0085998222C7
:030473000204611F
:06047600AA82AB83ACF08A
:0E047C008A828B838CF01206AFFD60188D8291
:05048A000ABA00010B9D
:0E048F00C002C003C004120461D004D003D028
:03049D000280DCFE
:0104A0002239
:0304A10002046AE8
:0A04A400AA82AB83750C0AE4F50D83
:0E04AE008A828B83C002C003120686AC82AD28
:0E04BC0083D003D002EC4D600F8C828D83C084
:0A04CA0002C0031204A4D003D00204
:0A04D400750C0AE4F50D8A828B8393
:0D04DE00120559AA8274302AF582020473B7
:0C04EB00AAF0FBE582850CF0A4FCADF04B
:0C04F700E583850CF0A42DFDE435F0FE3B
:0C050300E582850DF0A42DFDE5F03EFE24
:0C050F00E433FFEA850CF0A42EFEE5F0BA
:0C051B003FFFE583850DF0A42EFEE5F007
:0C0527003FFFE582850EF0A42EFEE5F0FB
:0B0533003FFFEB850CF0A42FFFEA85D2
:0A053E000DF0A42FFFE583850EF0F9
:0C054800A42FFFE582850FF0A42F8EF099
:050554008D838C822262
:08055900E50C450D60467A0136
:07056100E50C25E0F50CE5B7
:090568000D334012F50DE58295FA
:0A0571000CE583950D40030A80E6B7
:03057B00C3E50DC8
:07057E0013F50DE50C13F568
:010585000C69
:0A058600C3E582950CF5F0E58395BE
:080590000D4005F58385F082A2
:07059800C3E50D13F50DE5AD
:06059F000C13F50CDAE17B
:0105A5002233
:080090007800E84400600A79E1
:030098000075A050
:06009B0000E4F309D8FCAB
:0800A1007828E84400600C79A6
:0B00A90001900000E4F0A3D8FCD9FA9D
:0B05A600D2A7750C007582020206CB84
:0C05B100AA82AB83ACF0D2A37D007E00D8
:0E05BD00C3ED940FEE648094805031ED2AFF60
:0E05CB00EE3BF88C018F82888389F01206AF18
:0D05D900F582C002C003C004C005C00612B8
:0E05E60006D2D006D005D004D003D0020DBD41
:0505F40000C70E80C4E9
:0305F900C2A32278
:0A05FC00AA82AB83ACF0D2A67D000A
:0C060600C3ED95535029ED2AFEE43BFFA4
:0E0612008C008E828F8388F01206AFF582C0B6
:0E06200002C003C004C0051206D2D005D004EB
:07062E00D003D0020D80D1C2
:020635007A0049
:0A063700C3EA9557501FEA2554FB53
:0A064100E43555FCAD568B828C8326
:0E064B008DF01206AFF582C0021206D2D00268
:030659000A80DB39
:03065C00C2A62211
:02065F00D2A621
:0506610030A2FD7A004B
:0C06660030A21A8A030AEB243CF87582CB
:0E06720000C002C0001206D2E582D000D00205
:03068000F680E31E
:03068300C2A622EA
:050686007A10E4FBFC0A
:0E068B00E58225E0F582E58333F583EB33FB52
:0A069900EC33FCEB950CF5F0EC954A
:0906A3000D4006FCABF04382019E
:0306AC00DADD2272
:03005B0075815755
:0A005E001206E2E58260030200567C
:0E06AF0020F71430F6148883A88220F507E6A1
:0606BD00A88375830022F2
:0306C300E280F7DB
:0306C600E4932298
:0206C900E0222D
:0706CB008582B3850CB42207
:0706D200AA825391DF8AB2F6
:0906D900E59130E5FB85B28222B7
:0406E20075820022FB
:0E06E60020F71030F6118883A88220F507F661
:0506F400A883758300DE
:0106F90022DE
:0306FA00F280F794
:0206FD00F022E9
:00000001FF
