:04000000020059326F
:01000B0032C2
:0100130032BA
:01001B0032B2
:0100230032AA
:01002B0032A2
:01003300329A
:01003B003292
:01004300328A
:01004B003282
:030053000202E1C5
:2000B2007521007522E0752300752400752500752600752700752800752900752A0F752B96
:2000D20001752C01752D61752E6F752F157530217531007532407533027534027535020247
:0200F2000056B6
:030056000200F4B1
:2000F400900010E4F5F01205F6904B00120722AF9474D75FF594AF9574D75FF59512051645
:200114008530828531838532F0120521D2AFD2EAE4F53BF53C6380209001F4120607053B13
:20013400E4B53B02053CC3E53B9406E53C6480948040E29008D175F08012074175360090F9
:2001540008EF75F080120741D2A67404B536F99008F775F0801207411200019008FD75F0A6
:2001740080120741753D0190000175F00012019B7536009008D175F0801207419008EF75EB
:20019400F08012074180C1AD82AE83AFF0740E2530FAE43531FBAC328A828B838CF074142F
:2001B4001204FB8530828531838532F0C007C006C0051205219002BC120607D005D006D091
:2001D400077556038D578E588F59755A1C90003375F040C007C006C00512056CD005D006B1
:2001F400D007E53D701790090275F080C007C006C005120741D005D006D007801590090E81
:2002140075F080C007C006C005120741D005D006D007E4F53BF53CE53B2DFAE53C3EFB8F42
:20023400048A828B838CF01208B1FAC4540FFC740F5CFB24F6500674372CFB800474302CB8
:20025400FB8B82C007C006C00512073ED005D006D007E53B2DFAE53C3EFB8F048A828B8309
:200274008CF01208B1FC740F5CFB24F65008740F5C2437FB8006740F5C2430FB8B82C0071E
:20029400C006C00512073E75822012073ED005D006D007053BE4B53B02053CC3E53B941C8E
:2002B400E53C64809480500302022B740E2530FDE43531FEAF328D828E838FF07415120454
:2002D400FB8530828531838532F0020521C020C0E0C0F0C082C083C007C006C005C004C045
:2002F40003C002C001C000C0D075D00020A2030204D5E4B5360280117401B536028019745E
:2003140002B536030203E680E3753E0075360190091D75F08012074174FC253E500302030C
:20033400B7AF3E053EEF2437F9758200C001120878E582D001F7E53E142437F9E7C4540F6D
:20035400FF24F6500FE53E142437F9E7C4540F2437FF800EE53E142437F9E7C4540FFE24D5
:2003740030FF8F8212073EE53E142437F9870753070FEF24F65010E53E142437F98707745A
:200394000F5F2437FF800EE53E142437F98706740F5E2430FF8F8212073E75822012073ED1
:2003B40002030074E4253E400B758200120878053E020300753E00753D0090003775F0407C
:2003D40012019B75360290092E75F080120741020300C3E53E953A4003020300AF3E053E76
:2003F400EF2401FFE43400FE758200C007C006120878AD82D006D0078F828E83EDF0E53EAC
:20041400142401F582E43400F583E0C4540FFF24F65015E53E142401F582E43400F583E0C0
:20043400C4540F2437FF8014E53E142401F582E43400F583E0C4540FFE2430FF8F821207AE
:200454003EE53E142401F582E43400F583E0540FFF24F65016E53E142401F582E43400F545
:2004740083E0FF740F5F2437FF8014E53E142401F582E43400F583E0FE740F5E2430FF8F32
:200494008212073E75822012073E75F01CE53E84E5F0600302030075F01CE53E84FFB53987
:2004B40002800F753D0090000175F00012019B02030075360490093E75F080120741020372
:2004D40000C2A6AF9174BF5FF591D0D0D000D001D002D003D004D005D006D007D083D08267
:0704F400D0F0D0E0D020326F
:2008D1000A2D2D2D2D2D2D2D2D2D2D2D2D2D2D2D2D2D2D2D2D2D2D2D2D2D2D2D2D000A3EC9
:2008F10049646C650A00457865630A007265740A0073656E642061636B3A200A0073656ED8
:200911006420726573756C743A200A000A3E486561646572205061636B65740A000A0D3ED7
:1A093100436F6465205061636B65740A000A0D3E52756E20436F64650A0080
:06008800E478FFF6D8FD4C
:200066007900E94400601B7A0090094B784175A000E493F2A308B8000205A0D9F4DAF275AC
:02008600A0FFD9
:1B04FB0020F71130F6138883A88220F509F6A8837583002280FEF280F5F02200
:20051600D2A7750C00758202020871AA82AB83ACF0D2A37D007E00C3ED940FEE64809480B8
:200536005031ED2AFFEE3BF88C018F82888389F01208B1F582C002C003C004C005C00612A3
:200556000878D006D005D004D003D0020DBD00C70E80C4C2A322AA82AB83ACF0D2A67D008C
:20057600C3ED95565029ED2AFEE43BFF8C008E828F8388F01208B1F582C002C003C004C0AD
:2005960005120878D005D004D003D0020D80D17A00C3EA955A501FEA2557FBE43558FCAD02
:2005B600598B828C838DF01208B1F582C002120878D0020A80DBC2A622D2A630A2FD7A001B
:2005D60030A21A8A030AEB243FF8758200C002C000120878E582D000D002F680E3C2A62245
:2005F600AA82AB838A08EBF5093395E0F50AF50B22AA82AB8385080C85090D850A0E850B8C
:200616000F90002BE4F5F0C002C0031207B6AC82AD83AEF0FFD003D002EFC313FFEE13FE7A
:20063600ED13FDEC13FCEFC313EE13ED13FDEC13FC7E007F008E008F01C3E89AE99B502199
:2006560078007900C3E89CE964808DF063F08095F0500708B800ED0980EA0EBE00D70F8001
:20067600D422AA82AB83E5AD20E4FB8BAB8AAC75AD0822AA82AB83ACF0AD0CAE0DAF0EE4C0
:20069600F511F512C3E511950FE51264808510F063F08095F050288A828B838CF01208B149
:2006B600F8A3AA82AB838D828E838FF0E81204FBA3AD82AE830511E4B511C9051280C5228D
:2006D600AA82AB8353C8FED2CCD2CDC2C943C8045380F9439506BA0005BB4B0280187C0035
:2006F6007D00BA0019BBE116BC0013BD001075CBFF75CAF7801275CBFF75CAE6800A75CB11
:20071600FF75CAE690000022900001221206D64398404398102285829910990280FB22102C
:20073600980280FB8599822202072CAA82AB83ACF08A828B838CF01208B1FD60188D820AB2
:20075600BA00010BC002C003C00412072CD004D003D00280DC22020735AA82AB83750C0A15
:20077600E4F50D8A828B83C002C003120888AC82AD83D003D002EC4D600F8C828D83C002B1
:20079600C00312076FD003D002750C0AE4F50D8A828B83120824AA8274302AF58202073ED2
:2007B600AAF0FBE582850CF0A4FCADF0E583850CF0A42DFDE435F0FEE582850DF0A42DFDF4
:2007D600E5F03EFEE433FFEA850CF0A42EFEE5F03FFFE583850DF0A42EFEE5F03FFFE5825A
:2007F600850EF0A42EFEE5F03FFFEB850CF0A42FFFEA850DF0A42FFFE583850EF0A42FFF44
:0E081600E582850FF0A42F8EF08D838C822258
:20082400E50C450D60467A01E50C25E0F50CE50D334012F50DE582950CE583950D40030A81
:2008440080E6C3E50D13F50DE50C13F50CC3E582950CF5F0E583950D4005F58385F082C32E
:0D086400E50D13F50DE50C13F50CDAE1229E
:170871008582B3850CB422AA825391DF8AB2E59130E5FB85B28222C3
:20008E007800E84400600A790175A000E4F309D8FC7840E84400600C7901900001E4F0A32F
:0400AE00D8FCD9FAA7
:200888007A10E4FBFCE58225E0F582E58333F583EB33FBEC33FCEB950CF5F0EC950D40067C
:0908A800FCABF0438201DADD2211
:0D00590075815A1208CDE582600302005641
:1C08B10020F71430F6148883A88220F507E6A88375830022E280F7E49322E02256
:0408CD00758200220E
:00000001FF
