:04000000020059326F
:01000B0032C2
:0100130032BA
:01001B0032B2
:030023000201EBEC
:01002B0032A2
:01003300329A
:01003B003292
:01004300328A
:01004B003282
:0300530002015750
:2000B2007521007522E0752300752400752500752600752700752800752900752A02752BA3
:2000D20002752C02752D61752E6F752F1475302175310075324075330F75340175350175C8
:0B00F2005200755300755400020056C8
:030056000200FDA8
:2000FD00900010E4F5F01204EF904B0012045BAF9474D75FF594AF9574D75FF59512032FF7
:20011D008530828531838532F012033AD2AFD2ACD2EA7553006380209001F41205000553E2
:20013D0074FA255350EF9006EA75F08012047A90070875F08012047A80FEC020C0E0C0F0C6
:20015D00C082C083C007C006C005C004C003C002C001C000C0D075D00030A24CAF55055590
:20017D00EF2436F9758200C001120691E582D001F7E555142436F98782120477741CB555BF
:20019D00D8740E2530FDE43531FEAF328D828E838FF074141203148530828531838532F006
:2001BD0012033A75550080B1C2A6AF9174BF5FF591D0D0D000D001D002D003D004D005D0B9
:2001DD0006D007D083D082D0F0D0E0D02032C020C0E0C0F0C082C083C007C006C005C00423
:2001FD00C003C002C001C000C0D075D0001098030202F774E52556402A7403B5561885996B
:20021D005775F01CE55784F552AF560556EF2436F8A6570202F7AF560556EF2436F8A69969
:20023D000202F7741BB55648AF560556EF2436F8A699757036757100757240756F037573ED
:20025D001C90003375F040120385740E2530FDE43531FEAF328D828E838FF0741512031415
:20027D008530828531838532F012033AD2A6806A75F01CE55784E5F0FF700785993615574D
:20029D008058741CC39F2436F8A699155775F01CE55784E5F0703D757036F571757240759A
:2002BD006F0375731C90003375F0401203851552740E2530FDE43531FEAF328D828E838F96
:2002DD00F074151203148530828531838532F012033AD2A6E5577002F556D0D0D000D00147
:1702FD00D002D003D004D005D006D007D083D082D0F0D0E0D02032B8
:2006EA000A2D2D2D2D2D2D2D2D2D2D2D2D2D2D2D2D2D2D2D2D2D2D2D2D2D2D2D2D000A539D
:09070A007461727475702E0A000E
:06008800E478FFF6D8FD4C
:200066007900E94400601B7A00900713780175A000E493F2A308B8000205A0D9F4DAF27526
:02008600A0FFD9
:1B03140020F71130F6138883A88220F509F6A8837583002280FEF280F5F022E8
:20032F00D2A7750C0075820202068AAA82AB83ACF0D2A37D007E00C3ED940FEE648094808A
:20034F005031ED2AFFEE3BF88C018F82888389F01206CAF582C002C003C004C005C0061275
:20036F000691D006D005D004D003D0020DBD00C70E80C4C2A322AA82AB83ACF0D2A67D005E
:20038F00C3ED956F5029ED2AFEE43BFF8C008E828F8388F01206CAF582C002C003C004C066
:2003AF0005120691D005D004D003D0020D80D17A00C3EA9573501FEA2570FBE43571FCAD89
:2003CF00728B828C838DF01206CAF582C002120691D0020A80DBC2A622D2A630A2FD7A00BD
:2003EF0030A21A8A030AEB2458F8758200C002C000120691E582D000D002F680E3C2A622FE
:20040F00AA82AB8353C8FED2CCD2CDC2C943C8045380F9439506BA0005BB4B0280187C00FE
:20042F007D00BA0019BBE116BC0013BD001075CBFF75CAF7801275CBFF75CAE6800A75CBDA
:20044F00FF75CAE6900000229000012212040F4398404398102285829910990280FB2210BF
:20046F00980280FB85998222020465AA82AB83ACF08A828B838CF01206CAFD60188D820A2F
:20048F00BA00010BC002C003C004120465D004D003D00280DC2202046EAA82AB83750C0A73
:2004AF00E4F50D8A828B83C002C0031206A1AC82AD83D003D002EC4D600F8C828D83C00264
:2004CF00C0031204A8D003D002750C0AE4F50D8A828B8312063DAA8274302AF58202047719
:2004EF00AA82AB838A08EBF5093395E0F50AF50B22AA82AB8385080C85090D850A0E850B94
:20050F000F90002BE4F5F0C002C0031205CFAC82AD83AEF0FFD003D002EFC313FFEE13FE6B
:20052F00ED13FDEC13FCEFC313EE13ED13FDEC13FC7E007F008E008F01C3E89AE99B5021A1
:20054F0078007900C3E89CE964808DF063F08095F0500708B800ED0980EA0EBE00D70F8009
:20056F00D422AA82AB83E5AD20E4FB8BAB8AAC75AD0822AA82AB83ACF0AD0CAE0DAF0EE4C8
:20058F00F511F512C3E511950FE51264808510F063F08095F050288A828B838CF01206CA3A
:2005AF00F8A3AA82AB838D828E838FF0E8120314A3AD82AE830511E4B511C9051280C5227D
:2005CF00AAF0FBE582850CF0A4FCADF0E583850CF0A42DFDE435F0FEE582850DF0A42DFDDD
:2005EF00E5F03EFEE433FFEA850CF0A42EFEE5F03FFFE583850DF0A42EFEE5F03FFFE58243
:20060F00850EF0A42EFEE5F03FFFEB850CF0A42FFFEA850DF0A42FFFE583850EF0A42FFF2C
:0E062F00E582850FF0A42F8EF08D838C822241
:20063D00E50C450D60467A01E50C25E0F50CE50D334012F50DE582950CE583950D40030A6A
:20065D0080E6C3E50D13F50DE50C13F50CC3E582950CF5F0E583950D4005F58385F082C317
:0D067D00E50D13F50DE50C13F50CDAE12287
:17068A008582B3850CB422AA825391DF8AB2E59130E5FB85B28222AC
:20008E007800E84400600A790175A000E4F309D8FC7800E84400600C7900900001E4F0A370
:0400AE00D8FCD9FAA7
:2006A1007A10E4FBFCE58225E0F582E58333F583EB33FBEC33FCEB950CF5F0EC950D400665
:0906C100FCABF0438201DADD22FA
:0D0059007581731206E6E582600302005611
:1C06CA0020F71430F6148883A88220F507E6A88375830022E280F7E49322E0223F
:0406E60075820022F7
:00000001FF
