:020000040000FA
:0600000002010A02204685
:03002B00021D5261
:03003300021D2C7F
:030053000220BCCC
:03006B00021D7300
:03007B00021D8DD6
:10008300021F37E5C754F84401F5C7790122000080
:100093000080FB120086B900030200F4E4792178A2
:1000A30008B800028004F709D8FCE479297802B87B
:1000B30000028004F709D8FCE49002817836790BBA
:1000C3008002F0A3D8FCD9FA900CB6AA82AB839035
:1000D300013A780279068015E493A3AC82AD838A52
:1000E300828B83F0A3AA82AB838C828D83D8E9D9D8
:1000F300E775825A7583A2740312011C7582917588
:100103008300740012011C75D00075813F7518813E
:10011300751902759F00020096C09FF59FE473D086
:100123009F22D083D082C09FE493C0E0740193C028
:10013300E0740293F59F22FFFF0A4865616420661D
:10014300696C6500000000000000000A436F6465ED
:10015300206461746100000000000000000846692B
:10016300727374436F64654C6F632E000000000A62
:10017300466C61736820436F646520466C61670059
:10018300000A466C617368436F6465536563746901
:100193006F6E00020490010000DA8F0200900100EC
:1001A30000B80C024090030000830202FC8F0100A0
:1001B30000B90C020090030000CA0C023A9003003D
:1001C30000870202FC8F010000CB0C0200900100AB
:1001D30000DC0C0224900300009B0202FC8F010050
:1001E30000DD0C020090010000EE0C020E900300F3
:1001F300009D0202FC8F010000EF0C020090010041
:1002030000000D02FE8F0300009E0202FC8F01001E
:1002130000010D0000000000000000FFFF0A416321
:1002230063656C20456E61626C65000002140041D9
:100233006363656C2052616E6765000010101041A6
:100243006363656C20582D436F6F7264696E6174CC
:10025300650000416363656C20592D436F6F7264C1
:10026300696E6174650000416363656C205A2D43B8
:100273006F6F7264696E617465000002049001001F
:1002830000E38F0200900100009C0D021490030014
:1002930000BE0202FC8F0100009D0D0200900100D0
:1002A30000AB0D021690010000AC0D02FC8F0100A3
:1002B30000AE0D020090010000BB0D02189000007B
:1002C30000BF0202EC8F030000C50202FC8F010095
:1002D30000BE0D020090010000BC0D021A90000048
:1002E30000C10202EC8F030000CB0202FC8F01006D
:1002F30000D20D020090010000BD0D020A90000023
:1003030000C30202EC8F030000D10202FC8F010044
:1003130000E60D12640401020490010000198F022B
:100323000090010000920E023690010000930E022D
:10033300EC8F030000D902023E90010000940E02EC
:100343000202020202020202010D00000010010279
:100353000490010000DD8F020090010000BE0E0238
:100363003090010000DF02020090010000BF0E0286
:100373002E90010000018F020090010000C00E02C8
:100383002C90010000E58E020090010000C10E02D6
:100393002A900100007F8E020090010000C20E022D
:1003A3002890010000918E020090010000C30E020C
:1003B3002690010000A38E020090010000C40E02EB
:1003C30022900100006D8E020090010000C50E0214
:1003D3002090010000F38E020090010000C60E027F
:1003E3001E90010000C70E01E803053F10FF000146
:1003F3003075030201060000000000000000000049
:1004030000000000000000000000000000000000E9
:100413000000FFFF0600800CE8030B0945504C2742
:1004230073206E6F6465051250002003020A0002F8
:1004330001060302F0FF05FF3065706C45504C2741
:100443007320424C45204E6F64650000000000009D
:1004530000FB0900000D0A010A130A0A43686172CE
:100463006163746572697374696320310002436860
:100473006172616374657269737469632032000821
:10048300436861726163746572697374696320336D
:1004930000104368617261637465726973746963A0
:1004A3002034000243686172616374657269737416
:1004B3006963203500020490010000E98F02009077
:1004C300010000DA0F02F08F030000BD0702FC8F6A
:1004D300010000DB0F020090010000EC0F02F28F1D
:1004E300010000D10702FC8F010000ED0F02009014
:1004F300010000FE0F02F48F020000D20702FC8FFE
:10050300010000FF0F020090010000101002F68F9F
:10051300000000D30702EC8F030000D40702FC8F16
:100523000100001110020090010000221002F88F58
:10053300040000DA0702FC8F0100002310FF000013
:10054300B4000028002800283075A000A000A000F7
:10055300A00000080008E001F000100010001000E7
:100563001000100010005000500050001000100048
:10057300D0070000000000000F00307507001000D6
:10058300010081FF0000FF650C830C6B0CFF02026E
:100593000A0A025000A0000000E8030204900100D0
:1005A30000E68F0200900100000D1102FA8F010096
:1005B3000010080200900100000E11020C900100CF
:1005C3000026080200900100000F110210900300A2
:1005D3000028080200900100001011021C90030083
:1005E300002908020090010000111102429001004D
:1005F300001211FF0100FF20020490010000E08FB0
:100603000200900100007611023490000000000007
:1006130002EC8F03000076089B129B129B129B1225
:100623009B129B129B129B129B129B129B129B125F
:100633009B126B1583156515120125E9FF01120144
:1006430025ECFF011201251FF80212012559F802BA
:1006530012012576F802120125EAF802120125C8D3
:10066300F902120125AEFB02120125E4CB021201AD
:1006730025EECB021201252CCC0212012575CC02EA
:10068300120125AFCC0212012509CD021201252A40
:10069300CD0212012533CD0212012580CD021201B4
:1006A30025A9CD02120125B3CD021201251FCE02C9
:1006B300120125B1CE02120125FBCE021201253112
:1006C300CF02120125BDCF02120125FECF02120176
:1006D3002535D00212012547D00212012566D0022A
:1006E3001201256FD00212012537D102120125C64E
:1006F3009B03120125C18D03120125F78D031201FE
:10070300252D8E03120125788F0312012545A103A0
:100713001201255BA103120125A5A10312012517CF
:10072300E4021201252CE402120125DFE402120186
:10073300251FE50212012538E50212012573E502A2
:10074300120125C0E502120125F2E502120125344A
:10075300E6021201253FE802120125BD9C031201A6
:1007630025E69C03120125159D03120125579D03C0
:100773001201254CE802120125A7E802120125C443
:10078300E802120125F8E9021201256CEA021201BE
:100793002546EB0212012530EC02120125B28F032C
:1007A300120125E28F03120125F58F03120125A003
:1007B300900312012541910312012548860312017A
:1007C300256D8603120125978603120125039503E0
:1007D3001201253495031201254C95031201256E50
:1007E30095031201255F960312012584FF0212016E
:1007F300258FFF02120125B7FF0212012548A0032E
:1008030012012590A003120125A4A00312012504BF
:10081300A203120125C151001201258753001201C1
:1008230025265500120125DA5500120125645600CC
:10083300120125E9560012012512570012012598CD
:100843005A00120125145B00120125405C001201BD
:10085300257A5C00120125BB5C00120125035E00B2
:10086300120125605E00120125A95E001201250D0B
:100873005F001201255B5F001201258A5F001201F0
:1008830025A25F00120125946000120125CB6000B0
:10089300120125706100120125876100120125B93B
:1008A3006100120125686300120125F5630012013E
:1008B30025346400120125739E03120125849E03CF
:1008C300120125249F03120125ADA203120125EC79
:1008D300A203120125EE7F001201252F9F031201AF
:1008E300253F9F03120125549F03120125BC9F033B
:1008F300120125C29A03120125479B03120125AD5C
:100903009B031201253398031201255C98031201FE
:1009130025C798031201251899031201257399031A
:10092300120125D3FB02120125EAFB021201256401
:10093300FC0212012548FD021201251FFF021201CC
:10094300259F9603120125F196031201256497034F
:10095300120125CD97031201257C8B03120125A6D5
:100963008B03120125748C031201254F8D03120191
:1009730025F3A702120125BAA802120125F3A80242
:1009830012012553A902120125A9A9021201250664
:10099300AA021201259EAA02120125ADAB02120181
:1009A3002544AD02120125D1AD0212012538AE0254
:1009B3001201254FAE021201258FAF021201255FEE
:1009C300CB011201250FCF0112012586D00112019F
:1009D30025D6D001120125F3D00112012571D101D1
:1009E30012012593D30112012559D701120125CDF7
:1009F300AF02120125E9B1021201256BB402120103
:100A03002515B50212012551B602120125008006F3
:100A13001201251880061201253080061201254691
:100A230080061201255C80061201257280061201E0
:100A33002588800612012500A00612012574F00204
:100A4300120125B9F002120125D6F00212012592F6
:100A5300F102120125F0F102120125D4F202120172
:100A63002515F40212012550930312012567930300
:100A7300120125969303120125CF9303120125F743
:100A830093031201252594031201253C94031201BB
:100A930025539403120125699403120125909403AD
:100AA300120125A39403120125B99403120125CC45
:100AB3009403120125F194031201251E8B021201E6
:100AC300251D8C02120125528C02120125738C0202
:100AD300120125838C02120125A48C02120125B078
:100AE3008D021201257D8E02120125F08E02120164
:100AF30025768F02120125B98F02120125F08F028C
:100B0300120125769002120125489102120125A6B1
:100B13009102120125BE910212012538920212019F
:100B2300253B92021201253E9202120125E5920213
:100B3300120125FD92021201252D93021201254D6A
:100B430093021201253B9402120125F19402120132
:100B5300251ADB0212012542DB0212012570DB029A
:100B6300120125A7DB021201250FDC021201255811
:100B7300DC02120125A3DC02120125E1DC021201D1
:100B8300251EDD021201254CDD02120125F3DD02D3
:100B9300120125FDDD021201250ADE021201253DA7
:100BA300DE02120125FFDE021201250BDF02120114
:100BB3002523DF021201252DDF021201259C9D034F
:100BC300120125AA9D03120125C29D03120125DAF4
:100BD3009D03120125A29F0112012540A0011201CC
:100BE30025B8A001120125CDA10112012507A201FB
:100BF300120125B0A20112012585A301120125E9E5
:100C0300A40112012540A501120125C7A501120166
:100C130025AEA601120125FBA60112012589A70114
:100C2300120125ADA70112012582A901120125C3D5
:100C3300A901120125E5A90112012566AA011201E4
:100C43002550AB0112012516AC011201259ABE02F3
:100C53001201256CBF0212012515C002120125588D
:100C6300C002120125E5C00212012571C102120161
:100C73002552C20212012581C2021201257DC3023F
:100C8300120125C5C302120125C7C4021201250B97
:100C9300C50212012531C502120125BF9F031201AE
:100CA300254EF40212012564F4021201258AF4028E
:100CB300120125B2F502120125BCF5021201251518
:100CC300F70212012515F80212012565D10212015E
:100CD3002572D202120125A6D202120125E8D20200
:100CE300120125A2D402120125459001120125A863
:100CF3009001120125ED9101120125FD91011201CF
:100D0300252092011201256B9201120125109301F6
:100D1300120125069401120125D0940112012548E0
:100D230096011201258A96011201252897011201C5
:100D3300257597011201259B9701120125899901B8
:100D43001201258E99011201256F9B01120125C302
:100D53009B01120125259C011201254D9C011201C5
:100D630025F19C01120125B39D01120125E49D018A
:100D7300120125E79D011201252F9E011201257104
:100D83009E01120125D89E01120125268903120115
:100D9300253989031201255289031201259D8903EF
:100DA300120125788A03120125078B0312012552AC
:100DB3008B03120125542400120125602400120123
:100DC30025992400120125DE240012012595250012
:100DD3001201251B2600120125802600120125ACD5
:100DE3002600120125E52600120125F9280012012B
:100DF30025D52A00120125C02C00120125F72D004C
:100E030012012557300012012543310012012589B3
:100E13003200120125963300120125B3330012016B
:100E230025EB33001201250534001201256D340032
:100E3300120125073900120125A83900120125F9ED
:100E43003900120125203A001201256E3A001201E1
:100E5300258C3A00120125E03A00120125B93B0026
:100E6300120125403D00120125C83D00120125A6AF
:100E7300C502120125B0C50212012577C60212016F
:100E830025C6C602120125EAC60212012545C7027C
:100E93001201257DC702120125A5C702120125D51E
:100EA300C80212012500C9021201252BC902120131
:100EB300257AC90212012590C902120125D6C90259
:100EC30012012510CA0212012552CA021201259AE3
:100ED300CA02120125D6CA0212012524CB0212012D
:100EE300256DCB0212012597CB02120125BCCB0243
:100EF3001201257FEC0212012549ED02120125356D
:100F0300EE02120125ABEE02120125EDEE021201F3
:100F1300251AF00212012567F30112012590F3014E
:100F2300120125A9F301120125EEF401120125CCCA
:100F3300F501120125EBF50112012578F6011201E5
:100F430025BBF60112012508F801120125A7F801B6
:100F530012012526FB01120125BDFB01120125917A
:100F6300FC0112012573FD01120125DFFE011201AF
:100F73002572FF01120125AD9903120125169A036B
:100F83001201256A9A03120125919A03120125C2BF
:100F9300DF021201252FE0021201257AE00212017D
:100FA300256FE1021201256BE20212012555E302CE
:100FB300120125807700120125C277001201259CBA
:100FC3007800120125757900120125707A0012014B
:100FD300254F7B00120125BB7B00120125827C007B
:100FE300120125ED7C00120125547D001201257F9D
:100FF3007D00120125F07D00120125837E00120180
:1010030025EC7E00120125017F00120125497F0096
:10101300120125627F00120125C77F00120125CA34
:101023007F001201254E83031201257683031201EB
:1010330025B48303120125728403120125DD840381
:10104300120125F98403120125218503120125517B
:101053008503120125608503120125DA8503120138
:10106300250086031201254BAE01120125D6AF01DF
:1010730012012572B10112012538B2011201257F37
:10108300B201120125C6B201120125E4B201120117
:101093002526B3011201253CB30112012588B301B2
:1010A300120125C0B301120125F3B3011201254436
:1010B300B401120125AEB401120125A8B701120132
:1010C300254AB90112012590B901120125C7BA01B8
:1010D30012012524BB0112012599BB01120125ED43
:1010E300BB011201251ABC0112012545BC011201E5
:1010F30025FD9E021201251A9F02120125A7A402B3
:10110300120125A9A50212012523A702120125D147
:10111300A7021201252F3E00120125783E0012017D
:1011230025A53E00120125D83E00120125E53E000B
:10113300120125F13E00120125033F00120125D8BB
:101143003F001201253640001201256B40001201B9
:1011530025074200120125414200120125AF42003A
:101163001201255443001201251044001201258F5A
:101173004400120125534500120125624500120166
:1011830025E34500120125824600120125B44600DD
:101193001201254F4700120125AD4700120125E733
:1011A3004700120125684800120125314900120148
:1011B30025DA4900120125614A00120125B94A00C6
:1011C3001201251A4B00120125434B00120125F988
:1011D3004B00120125434D00120125864D001201DB
:1011E30025A34D00120125C24D001201250D4E000D
:1011F300120125324E001201255B4E00120125CA51
:101203004E001201250C4F0012012510500012014F
:1012130025AA50001201257651001201258F510095
:101223001201255C9502120125AF9502120125BB1F
:101233009502120125909602120125B7960212011A
:1012430025F296021201255E97021201259297025A
:10125300120125CB9702120125E397021201253CC7
:1012630098021201255598021201259E9802120137
:1012730025B19802120125CB9802120125E19802AB
:10128300120125FD99021201250E9B021201255B15
:101293009C02120125409D02120125F4FF02120156
:1012A3002581E601120125B5E60112012520EA0197
:1012B3001201256AEB0112012534EC01120125BE4E
:1012C300ED0112012599EE01120125D3EE01120160
:1012D30025F6EE0112012538EF0112012541EF0138
:1012E3001201258BEF0112012595EF011201254112
:1012F300F00112012515F10112012569F101120115
:1013030025CBF1011201251EF2011201254DF20137
:101313001201258CF2011201253865001201259274
:101323006D00120125986D001201254B7300120107
:1013330025317700120125008003120125768003F1
:101343001201258C8003120125C980031201250196
:1013530081031201257E8103120125B98103120144
:101363002534820312012570820312012579820339
:101373001201258582031201259F8203120125C4D0
:101383008203120125DA82031201251E830312014F
:101393002558D6021201256BD60212012585D602E5
:1013A300120125AED602120125F1D6021201253013
:1013B300D7021201256ED702120125D3D7021201DB
:1013C30025E8D702120125F3D70212012500D8021E
:1013D30012012517D80212012525D8021201253042
:1013E300D8021201253CD8021201254FD80212015E
:1013F300255AD8021201257DD80212012526D902C9
:1014030012012536D90212012550D9021201256D88
:10141300D90212012589D902120125AED90212017E
:1014230025B8D902120125CCD902120125EBD90224
:101433001201254CDA0212012552DA021201255853
:10144300DA021201255EDA021201256ADA021201BA
:10145300259DDA02120125F7D80112012579D90158
:1014630012012522DA011201256ADB011201257816
:10147300DD011201255EDE0112012593DE01120159
:1014830025B5DE011201255EDF011201252EE101E2
:1014930012012557E101120125CFE10112012501B6
:1014A300E2011201250EE20112012559E2011201A6
:1014B300257DE201120125CEE401120125D8E501C3
:1014C30012012534E601120125E1BC01120125F2C6
:1014D300BD01120125D6BE01120125E0BE01120194
:1014E3002502BF011201250EBF01120125B2C00161
:1014F300120125DFC001120125F5C1011201254AA0
:10150300C20112012599C3011201256EC401120102
:1015130025CAC40112012535C5011201256AC50179
:10152300120125ADC50112012577C8011201258FCE
:10153300C80112012520C9011201252EC90112017A
:10154300257BC90112012589C901120125F5C901AC
:1015530012012570CA01120125C7CA011201250013
:101563008002120125228002120125338202120118
:1015730025F284021201251C8602120125DA860255
:10158300120125C68702120125979103120125BC7A
:1015930091031201253292031201257DB702120134
:1015A3002586B7021201258FB70212012567B802FB
:1015B30012012518BA0212012548BA021201257335
:1015C300BA02120125A3BA02120125CEBA021201F0
:1015D3002502BB021201252EBB0212012571BB029B
:1015E3001201259CBB02120125E3BB02120125381F
:1015F300BC021201257ABC02120125D4BC021201DD
:1016030025FFBC021201254EBD021201257EBD023B
:10161300120125A9BD02120125D7BD02120125FA27
:10162300BD02120125C8A003120125F4A003120173
:101633002521A1031201252BA1031201253BA1039F
:10164300120125F6A20312012522A303E0667010FE
:1016530008A3E066700A08A3E066700408A3E066C6
:1016630022C3E7960809E7960809E7960809E7966B
:1016730022C3E09608A3E09608A3E09608A3E096A9
:1016830022C008C3E096F50808A3E096420808A321
:10169300E096420808A3E09645087001D3D00822DB
:1016A300080808EAC0E0EBC0E086F0E7A4FA1809EE
:1016B30086F0E7A42AFA180986F0E7A42AFA18099B
:1016C30086F0E7A42AFA1986F0E7A4FBE5F02AFAE4
:1016D300190886F0E7A42BFBE5F03AFA190886F01F
:1016E300E7A42BFBE5F03AFA18180986F0E7A4C53E
:1016F300F02BFBE43AFA1908E7C5F0C6A426F6E591
:10170300F03BFBE43AFA1886F0E7A4F6E5F0082686
:10171300F6E43B08F6E43A08F6D0E0FBD0E0FA2220
:10172300E4CFC0E0E4CEC0E0E4CDC0E0E4CCC0E070
:1017330075F020C3E633F608E633F608E633F60819
:10174300E633F6181818EC33FCED33FDEE33FEEFF9
:1017530033FFC3EC9709ED9709EE9709EF97191932
:1017630019400FFFEC97FC09ED97FD09EE97FE1961
:101773001906D5F0BEECF709EDF709EEF709EFF717
:10178300191919D0E0FCD0E0FDD0E0FED0E0FF2233
:101793006016080808C6C313C618C613C618C613AE
:1017A300C618C613C6D5E0EA2270090808082260E5
:1017B30016181818C6C333C608C633C608C633C6B8
:1017C30008C633C6D5E0EA22E627F60809E637F667
:1017D3000809E637F60809E637F622E026F608A3F5
:1017E300E036F608A3E036F608A3E036F622E02654
:1017F300F008A3E036F008A3E036F008A3E036F0E3
:1018030022C3E697F60809E697F60809E697F6086D
:1018130009E697F622C3E096F008A3E096F008A342
:10182300E096F008A3E096F022E056F608A3E0560F
:10183300F608A3E056F608A3E056F622E056F008B1
:10184300A3E056F008A3E056F008A3E056F022E028
:10185300F608A3E0F608A3E0F608A3E0F622E6F014
:1018630008A3E6F008A3E6F008A3E6F022E0FAA353
:10187300E0FBA3E0FCA3E0FD22EAF0A3EBF0A3EC82
:10188300F0A3EDF022CAC0E0E6F0A308DAFAD0E054
:10189300FA22CAC0E0E0A3C582CCC582C583CDC508
:1018A30083F0A3C582CCC582C583CDC583DAE6D0D8
:1018B300E0CA22C3E498F8E499F91218F78026C322
:1018C300E49AFAE49BFBE920E7E91218F7E498F8B5
:1018D300E499F922C3E498F8E499F91218F7E49823
:1018E300F8E499F9C3E49AFAE49BFB22EB20E7CFEF
:1018F300E920E7E0B90010BB0008E88AF084F8AA01
:10190300F022E4FBC8FA22EB70227B10C833C8C96B
:1019130033C9335007C39AC3DBF280069A50012AB6
:10192300DBEAC833F4C8C933F4C9FA2275F008E412
:10193300C833C8C933C933C99AC99B5004C92AC912
:101943003BD5F0ECFBC833F4C8E4C9FA22600D08B8
:10195300C6A2E713C618C613C6D5E0F322600C0867
:10196300C6C313C618C613C6D5E0F422700422609A
:101973000D18C6C333C608C633C6D5E0F4182225EE
:101983001810AF08F518400215198008F518400221
:101993001519D2AF22C0D0251810AF08F518500280
:1019A30005198008F51850020519D2AFD0D02225A9
:1019B30018F58210AF08F518400215198008F518BC
:1019C30040021519D2AF851983222518F582E43513
:1019D30019F58322E4732518C582C0E0E51934FFA5
:1019E300C583C0E0E518C3958224F810AF0885834A
:1019F300198582188008858319858218D2AFCEF0A5
:101A0300A3E520F0A37808E608F0A3DEFAEFF0A33D
:101A1300E58124FAF8E608F0A3E608F0A3E608F067
:101A2300A30808E608F0A3E608F0A315811581D002
:101A3300E0FED0E0F8158115811581E8C0E0EEC025
:101A4300E0222518C582C0E0E51934FFC583C0E054
:101A5300E518C3958224F910AF0885831985821888
:101A63008008858319858218D2AFCEF0A3E520F0D4
:101A7300A37808E608F0A3DEFAEFF0A3E58124FBE0
:101A8300F8E608F0A3E608F0A30808E608F0A3E6E2
:101A930008F0A315811581D0E0FED0E0F81581157B
:101AA30081E8C0E0EEC0E022851983851882E0A3B7
:101AB300FEE0A3F5207808E0A3F608DFFAE0A3FF31
:101AC300E0A3C0E0E0A3C0E0E0A3C0E0E0A3C0E087
:101AD300E0A3C0E010AF08858218858319800885CC
:101AE3008218858319D2AFD083D08202012285194F
:101AF30083851882E0A3FEE0A3F5207808E0A3F62F
:101B030008DFFAE0A3FFE0A3C0E0E0A3C0E0E0A3A6
:101B1300C0E0E0A3C0E010AF088582188583198078
:101B230008858218858319D2AFD083D08222C0D092
:101B33002518C582C0E0E51934FFC583C0E0E51868
:101B4300C3958224F310AF08858319858218800812
:101B5300858319858218D2AFC8F0A3E9F0A3EAF010
:101B6300A3EBF0A37908E709F0A3D8FAECF0A3ED0F
:101B7300F0A3EEF0A3EFF0A3D0E0F0A3D0E0F0A346
:101B8300D0E0F0A3E520F0A3E5F0F0A322851983CC
:101B9300851882E0C0E0A3E0F9A3E0FAA3E0FBA389
:101BA3007808E0F608A3DFFAE0FCA3E0FDA3E0FE7B
:101BB300A3E0FFA3E0C0E0A3E0C0E0A3E0F5D0A36F
:101BC300E0F520A3E0A3F5F010AF08858319858223
:101BD300188008858319858218D2AFD082D083D02C
:101BE300E0F8D0E03274048006740280027401C00D
:101BF300E0F4041219B2D0E01218882274048004AD
:101C030074028000CCC0E0EDC0E0E518C39CCCAD0D
:101C13001950011D10AF068C188D1980068C188D74
:101C230019D2AF121895D0E0FDD0E0FC22D083D0BA
:101C330082E9C0E0E493A3C386F0C5F095F0F90808
:101C4300E493A386F0C5F095F0700BE493A3C399D6
:101C53004005E9048002A3E475F002A42582F5821D
:101C6300E5F03583F583D0E0F9E493A3C0E0E49392
:101C7300C0E022D083D082ECC0E0EDC0E0E493A3C7
:101C8300FCE493A3FDED4C600D121CC2EC24FFFC9D
:101C9300ED34FFFD80EFE493A3FCE493A3FDED4C4F
:101CA300600D121D01EC24FFFCED34FFFD80EFD02D
:101CB300E0FDD0E0FCE493A3C0E0E493C0E022C0E5
:101CC300E0C3E49396087401939618400FE4936677
:101CD300700808740193661870007019A3A3C3E415
:101CE3009396087401939618A3A3400DD0E0D0E017
:101CF300D0E0021CB2A3A3A3A3A3A3D0E022C0E01D
:101D0300C0F088F0E4936670080874019366187055
:101D130000A8F0A3A3700BD0F0D0E0D0E0D0E00295
:101D23001CB2A3A3D0F0D0E022C0E074F2121B31A6
:101D3300A2AFE433FED2AFE58BA2E0500312091D3C
:101D4300758B00C2E8EEA2E092AF7F01021B90C048
:101D5300E0C0D0E8C0E0E9C0E0E5A8D2AFC2C7A2C6
:101D6300E7A2E792AFD0E0F9D0E0F8D0D0D0E032EC
:101D7300C0E074F2121B31E589A2E0500312063B66
:101D8300758900C2C57F01021B90C0E074F2121B6B
:101D930031E58AA2E25003120641758A00C2EB8044
:101DA300E443C70812849753C7F72274F5121A4500
:101DB300EAFEEBFFEE2434F8EF3400F988088909D2
:101DC300EE2435121EE6F8EE2437121EE6F50AEC71
:101DD300850AF0A4FCAAF0850AF0EDA42AFDE82CFC
:101DE300F8E43DF97A257B001218F7EA8508828525
:101DF3000983F05407F87401B800028004C333D890
:101E0300FCC0E0E0131313541FF8EE28F8EF34007E
:101E1300F9E8245DF582E93400F583D0E0F8E05871
:101E23006008850882850983801DEE2436121EE62C
:101E3300F5F0EA84A8F0EE28F8EF3400F9E8243846
:101E4300F582E93400F583E0F97F04021AF174F5B1
:101E5300121A45EAFEEBFFEE2434121EE6C0E0EE52
:101E63002435F582EF3400F583D0E0F08E828F8342
:101E7300A3A3A3A3A3E0FAA3E0FB8E828F83A3A370
:101E8300A3A3A3A3A3E0FCA3E0FDECC39AF50AED8F
:101E93009BF50BEE2480F508EF3400F509850882E5
:101EA300F583E06401702BEE2481F582EF3400F5B5
:101EB30083121C03121EEF7402121998E960137C3B
:101EC300597D0AEEFAEFFB1211C985088285098351
:101ED300E4F0AC0AAD0BEEFAEFFB121DAE12243C9C
:101EE300021E4CF582EF3400F583E022C082C083EA
:101EF300851882851983E0F8A3E0F9C3EA9CEB9D7A
:101F0300500BC3EC98ED99401279018010C3EA9805
:101F1300EB9940F5C3EC98ED9950EE7900D083D05E
:101F23008222EAC39CFAEB9DFB22000000852187F5
:101F33008522C622C0E074EF121B31759B009061AD
:101F430082E0A2E64003021FF8E591A2E640030205
:101F53001FF87591BF900920E0640570081213679C
:101F6300121373800312136D7521001213D9E990B4
:101F73000921F079001213CD1211397A017B0090F7
:101F8300091FE0F91206C5907803E064426003027A
:101F93002041900ABAE014F06003022041C2AF125C
:101FA3001FA500782AD0E0F618D0E0F6E59F540785
:101FB300F97005908F668003908F6278081218522B
:101FC300E9C4C0E07829E65508F50808E65509F59F
:101FD30009740B7808121960D0E02508F890627034
:101FE300E0A2E740F8E8C333906272F0906270E0D9
:101FF300D2E0F08049E0A2E55024E591A2E5501E2D
:102003007591DF900920E0640D7013900942E0049C
:10201300F064287002E4F07A00E0F912144B906146
:1020230081E0A2E35009E5E9A2E3500375E9F7A3D0
:10203300E0A2E75009E591A2E7500375917F7F0481
:10204300021B90C0E0C0D0C082C083906183E0A235
:10205300E05009E5BFA2E0500375BFFEE0A2E150E6
:1020630009E5BFA2E1500375BFFDE0A2E25009E517
:10207300BFA2E2500375BFFBE0A2E35009E5BFA294
:10208300E3500375BFF7E0A2E45009E5BFA2E450B3
:102093000375BFEFE0A2E55009E5BFA2E550037564
:1020A300BFDFE0A2E65009E5BFA2E6500375BFBF5C
:1020B300D083D082D0D0D0E032C0E074F2121B3192
:1020C300E5A7A2E4500FE5A1A2E4500953A7EF75D9
:1020D300A1EF122110E5A7A2E5500CE5A1A2E5505E
:1020E3000653A7DF75A1DFE5A7A2E15009E5A1A289
:1020F300E1500375A1FDE5A7A2E2500CE5A1A2E220
:10210300500653A7FB75A1FB7F01021B9074F812C5
:102113001A45752101900920E0640670077A007B57
:102123000012134FA2AFE433FED2AF900926E0644E
:102133000170187A207B0090091FE0F91207437A97
:10214300207B0090091FE0F91206CB906182E0D258
:10215300E6F0900AB9E0602185C622801690092531
:10216300E064017008E5C654F84405F5C653BEFCA7
:10217300121F307401652160E4EEA2E092AF7F018B
:10218300021AF100008E238F2485822885832785F8
:102193001882851983E0CEA3E0CF85288285278323
:1021A300EBC9EAC8EDCBECCA75F010C3E833C8E954
:1021B30033C9EA33CAEB33CBC3EA9EF526EB9FF56B
:1021C30025B35004AB25AA26EC33CCED33CDD5F0A3
:1021D300DAAE23AF242274F1121A458A088B098CD4
:1021E3000A8D0B740F1219CD780C121852908F822E
:1021F300780812182C908F82780C12182C78087992
:102203000C12166450157808790C121804908F9AE2
:102213007808121684401579018013780C79081216
:102223001804908F9A780C12168440EB79007F087B
:10223300021AF174ED121A458A088B098C0A8D0B68
:1022430074131219CD780C121852908F82780812D9
:10225300182C908F82780C12182C780C790812168F
:102263006440117808790C121804AA08AB09AC0A67
:10227300AD0B8022751000751100751200751301E6
:102283007810790C121804781079081217CBAA1059
:10229300AB11AC12AD137F0C021AF1908F82780848
:1022A3001218528A828B83780812183F7F04021A0D
:1022B300F174F5121A458C828D8378081218528AAC
:1022C300828B837808121818122308C3E098F0A3AE
:1022D300E0991222FA401E908FC278081218528A8F
:1022E300828B8378081217F18E828F83E02420F08B
:1022F300A3E0344EF080A4F08E828F83C3E0942059
:10230300A3E0944E22EA2404F8EB3400F9E8FEE952
:10231300FF8C828D83A3A3A3A3E0F8A3E0F98E82AD
:102323008F832274F5121A45E9FE900A6FE0FAA32F
:10233300E0FBEEC333F8E433F974C528F582748EF9
:1023430039F583E02AF508A3E03BF5097808121B69
:10235300EC908F9E12187012218874021219988AB9
:10236300088B098C0A8D0B74107808121793AA082E
:10237300AB097F04021AF174F1121A458A0C8B0D12
:102383008C0E8D0F740F1219CDE0FAA3E0FB7411BC
:102393001219CDE0F508A3E0F50974131219CDE085
:1023A300FEA3E0FF7808121BECEA2401F508EB34E6
:1023B30000F509E4F50AF50B780C79081216A390D9
:1023C3008FD67808121852780C79081216A3AA0C23
:1023D300AB0DAC0EAD0F12218874021219988B0944
:1023E300EA450960047A0180027A00EC2AFCED34A4
:1023F30000FDECF8EDF97A717B021218F788088971
:1024030009E4F50AF50B8E828F837808121861ECC4
:10241300F8EDF97A717B021218F78A088B097405B3
:10242300780812196F8E828F83A3A3A3A3E508F004
:10243300A3E509F07F08021AF1C082C083E9906026
:0724430000F0D083D08222DB
:10244C00FFFFFFFFFFFFFFFFC082C083E990117504
:10245C00F00226D874F71219D9E990083EF07C7670
:10246C007D087AFF7BFF120E4590083F74FFF0A3A6
:10247C00F0A3E4F0A3F07905120DCD90083EE0F93D
:10248C00120CF57A637B0E12102B0233E674F412E5
:10249C0019D98A088B09EB5480603090083EE0F91A
:1024AC001206AD8A0A8B0BAE0AAF0BEE4F60138E81
:1024BC00828F83E064B07003120DE5EEFAEFFB122D
:1024CC00069BAA08E5096480FB80047A007B000265
:1024DC0026A774F21219D974FC121982EAFEEBFFCA
:1024EC0074121219CD1238CDEE4F7003022581747F
:1024FC00021219CDEEF0A3EF1228E2ECF0A3ED12CC
:10250C0028E2AA82AB83120CEFE9F50A706AE5089F
:10251C00450960648E828F831238B3EE4F60567A11
:10252C00067B001207018A0C8B0DA80CA90DE8493B
:10253C007005750A13804188828983E412258EEE1A
:10254C00F0A3EF1238DEE508F0A3E509F09008449B
:10255C001226159008447005123390801B12337E9E
:10256C008003EAFCEBFD8C828D8312261570F38CB4
:10257C00828D8380E3750A02A90A740412199802E9
:10258C003ACDF0A3123884A32274F21219D9890A15
:10259C00E975F017A4FEAFF0900843E4F090084101
:1025AC00122615600A120707900841E4F0A3F0EE1A
:1025BC00FAEFFB1207018A088B09EA4509602FEE36
:1025CC00FCEFFD7900120689900841E508F0A3E5BF
:1025DC0009F07B0080081225FFE4F0A3F00BEBC39D
:1025EC00950A40F2E50A900843F0790080027913CD
:1025FC00023ACDEB75F017A4F8A9F0900841E02849
:10260C00FAA3E0398A82F58322123022EA4B227433
:10261C00F41219D9740C1219CD1238A8FEE9FF75F1
:10262C000800750900800CE5082401F508E509345B
:10263C0000F509C3E5089CE5099D503285080A851B
:10264C00090B7403780A12196FEA250AF8EB350B9B
:10265C00F988828983A3A3A3A3A3A3123465EE658F
:10266C000A7003EF650B70BFE8FAE9FB80047A008F
:10267C007B00802774F41219D97900EAA2E0501B70
:10268C0075084E75098F7808121BEC7C047D007A56
:10269C00777B11120DC774021219987F04021AABC2
:1026AC00C082C0839008441226DF601C8882898314
:1026BC00A3A3E06A7003A3E06B8882898370E8A30C
:1026CC00A3A3A312301E80047A007B00D083D08297
:1026DC00020122123BB3E8492274EE1219D974FCA0
:1026EC00121982EAFEEBFF851882851983E4F0A3A8
:1026FC00F0EE2402123370EE240512388BEE240413
:10270C00F50EEF122C97E024FE603924FC60462471
:10271C00FE605224FE605E24FE70030227F824FE45
:10272C00700302285C24FE700302286B24FE7003E5
:10273C0002287A24FC700302288924FE70030228E4
:10274C00980228D590085D7417F0A3E41228EA12B9
:10275C000A6D0228D5851882851983AC82AD831247
:10276C000DEB0228A5851882851983AC82AD8312E6
:10277C000DF10228A5850C08850D0974021219CDDE
:10278C00AC82AD8385088285098312301E120D132D
:10279C008A0C8B0DAC0CAD0DEC4D603BE4F50CF5DF
:1027AC000D780C121BEC750C5D750D08780C121B5A
:1027BC00EC750C5E750D08780C121BEC7408121974
:1027CC00CD121C03123D2F121998E9F50C700B1247
:1027DC003014120A85800F750C01850882850983D7
:1027EC001228D8123390850C080228A874021219EA
:1027FC00CDAC82AD83850C82850D83122DE9603CB6
:10280C00850C82850D83A3A3121C0375105D7511B5
:10281C00087810121BEC75105E7511087810121BDD
:10282C00EC74081219CD121C03123D2F121998E9E1
:10283C00F509700B123014120A8B800F7509018583
:10284C000C82850D831228D8123390850908804C90
:10285C00851882851983AC82AD83120DF7803A8579
:10286C001882851983AC82AD83120DFD802B8518DF
:10287C0082851983AC82AD83120E03801C8518826D
:10288C00851983AC82AD83120E09800D8518828563
:10289C001983AC82AD83120E0FE9F508E5086029A7
:1028AC008E828F83A3E06414601F850E82850F8354
:1028BC00E090085D1228E2123BAF90085E12339054
:1028CC00E508A31228EA120A6702327F123BB3858D
:1028DC00188285198322F085188285198322F07C51
:1028EC005D7D08850A82850B831230222274EE12DC
:1028FC0019D974FC1219828A0A8B0B8C0E8D0FEA73
:10290C002405F508EB3400F5097C157D0079007A77
:10291C005D7B08120689E5082402F50CE5091238DE
:10292C008E85188285198385821085831178101203
:10293C001BEC850882850983A3A3A3A3122DE012A7
:10294C001BECE5082405F510E5093400F5117810A9
:10295C00121BEC850C82850D83123135120D0D7412
:10296C00061219988A108B11AE10AF11E50A2402C9
:10297C00F50AE50B123373EE4F7003022AB780177A
:10298C0074021219CD12301E88828983EAF0A3EBEF
:10299C00F090085DE004F090085DE0C394054003FE
:1029AC00022AB7E4F510F5117810121BEC751046DD
:1029BC007511087810121BEC7510477511087810FA
:1029CC00121BEC74061219CD121C037910EEFCEFDD
:1029DC00FD123D31121998E9705E850882850983D4
:1029EC00A3A3A3A3A3A3A3E0F8900846E0687048B0
:1029FC00122DE0121BEC7C477D08E5082408FAE553
:102A0C00093400FB1206837402121998E960298EAE
:102A1C00828F83A3A3A3A312301E90085DE0F51050
:102A2C007402781012196F745E2510F582740835D3
:102A3C0011F583EAF0A3EBF074021219CD85821024
:102A4C008583117810121BEC74021219CD121C0321
:102A5C00850C82850D831230441219988A108B11C3
:102A6C00AE10AF1190085DE0F5107511007402788E
:102A7C001012196F745D2510F874083511F98882DD
:102A8C008983A31226157003022983E824030808FE
:102A9C0008E93400F9EE4F600302298C888289839F
:102AAC0074FFF0A3F090085DE004F090085DE06026
:102ABC000A123014120A797900800B850882850974
:102ACC0083123387790A02327F74EA1219D974FEA1
:102ADC001219828C128D13EA2405F50CEB123D1998
:102AEC001238B7750800750900EA2402F510EB34AA
:102AFC0000F51185188285198385820A85830B78E8
:102B0C000A121BEC850C82850D83A3A3A3A3122CA4
:102B1C00AD121BECE50C2405F50AE50D12337378A8
:102B2C000A121BEC850C82850D83122CB1120D0D33
:102B3C0074061219988A0A8B0BEA450B7003022C47
:102B4C0052EA2404F50EEB122C971238B78A828BBA
:102B5C0083A3A3A3E0F9851082851183123028602A
:102B6C0003022C52E4F514F5157814121BEC7514B1
:102B7C00467515087814121BEC75144775150878F2
:102B8C0014121BEC74061219CD121C037913AC0A27
:102B9C00AD0B851082851183123D37121998E9F51A
:102BAC00096003022C52900846E0F8E5087009E031
:102BBC00240290085EF0801490085EE0FCE8240289
:102BCC00FAE43400FBEA6C7001EB707E850882AA93
:102BDC0082122DD79414122DCF506B850E82850F37
:102BEC0083E0C0E0745F2A122C8ED0E0F0050885DB
:102BFC000E82850F83A3E0C0E085080A745F250A66
:102C0C00122C8ED0E0F00508900846122CAD121B49
:102C1C00EC7C477D0885080A745F250A122CA112EA
:102C2C001998900846E02508F50874FF6E70037437
:102C3C00FF6F6012EE24010EEF3400FFE508C39421
:102C4C00145003022AFFE5086013123032851082FB
:102C5C0085118312301E120A7F79008014E50970E9
:102C6C000375090A851282851383EEF0A3EFF0A990
:102C7C000974021219987F0E021AAB85080C745F46
:102C8C00250CF58274083400F583223400F50F8589
:102C9C000E82F58322FA74083400FB12067174025A
:102CAC00221238ED22A3A3122CB72212337EFDEE92
:102CBC00FAEFFB2274EE1219D974FE1219828C0EE3
:102CCC008D0FEA2405F50CEB12388E750B0090086D
:102CDC005DE4F0F50AEA2402F508EB3400F509800E
:102CEC004490085DE0FA900846E0F8122DD794174E
:102CFC00122DCF400D90085DE0F87416C398900823
:102D0C0046F0122DE0121BEC7C477D08745E2AFA0B
:102D1C007408122CA4121998900846E0F890085DDB
:102D2C00E028F0050AE50C2416F582E50D122C922C
:102D3C00E0F8E50AC398507490085DE0C39416500F
:102D4C006BE50AC333F8E433F9E50C28FEE50D39DD
:102D5C00FF851882851983AC82AD838E828F831296
:102D6C002DE97008750B011233838050E4F510F5D2
:102D7C00117810121BEC7510467511087810121B87
:102D8C00EC7510477511087810121BEC74061219AB
:102D9C00CD121C037916850882850983123D3712E2
:102DAC001998E9F50B7003022CED80BB7C5D7D0856
:102DBC0085088285098312301E120A91A90B7402B0
:102DCC00023281E99400C365D03322EA28F8E43456
:102DDC0000F9E822E0F51075110078102212327615
:102DEC008A108B11AC10AD11EC4D2274EA1219D96A
:102DFC0074FC1219828A0C8B0D8C128D13EA24052B
:102E0C00F50AEB123373750800750900E50A240204
:102E1C00F510E50B3400F51174021219CD85820EF4
:102E2C0085830F780E121BEC850A82850B83A3A376
:102E3C00A3A3123893121BECE50A2405F50EE50B3F
:102E4C003400F50F780E121BEC851082851183125D
:102E5C003379123018120D0D74061219988A0E8BD4
:102E6C000FAE0EAF0FE50C2402F50EE50D3400F598
:102E7C000F80388882898374FFF00508122C8774C0
:102E8C00FFF00508900846E0F50C750D00780C1263
:102E9C001BEC7C477D0885080C745F250C122CA15B
:102EAC00121998900846E02508F508EE4F60278E19
:102EBC00828F83A3A3A3E0F9850E82850F83123042
:102ECC0028EE240412388BE96027850C82850D834B
:102EDC0012300A123390E5087003022FF0123032D0
:102EEC00850E82850F8312301E120A9779000230EC
:102EFC0005E4F514F5157814121BEC7514467515CC
:102F0C00087814121BEC7514477515087814121BED
:102F1C00EC74081219CD121C037911EEFCEFFD852F
:102F2C000E82850F83123D37121998E9F509709AB4
:102F3C00850882AA82EA9008467009E02404900869
:102F4C005EF08025E0F890085EE0F514E82404FCBF
:102F5C00E43400FDEC65147001ED7081122DD794F2
:102F6C0012122DCF4003022EE9850C82850D83E0D1
:102F7C00C0E0745F2A122C8ED0E0F00508850C821C
:102F8C00850D83A3E0C0E0122C87D0E012304D8574
:102F9C00820C85830D780C121BEC74041219CD1263
:102FAC001C038510828511831230441219988A0CE7
:102FBC008B0DAE0CAF0D85080C745F250CF87408E6
:102FCC003400F9EE4F7003022E7F85188285198329
:102FDC00E08882898312304DA3E0C0E0122C87D0A8
:102FEC00E0022E8DE509700375090A850A82850BAE
:102FFC008312300A123390A9097404022C7F123BFD
:10300C00B3851282851383227C5D7D08850A8285B7
:10301C000B8312302222E0FAA3E0FB2212302212A0
:10302C000CFBE9F5092290085EE0F5F0E5088490C8
:10303C00085DF07C5D7D0822122CB7120D1974040A
:10304C0022F005088518828519832274EC1219D98F
:10305C0074FE1219828A088B098C0E8D0FEA2405D6
:10306C00FEEB3400FF123260EE241812388BEA4566
:10307C000B700302310312324950291231288A1085
:10308C008B11EA4511606B7912AC0AAD0B85088285
:10309C0085098312301E8510828511831219D7E998
:1030AC00F50A7058E4F50AF50B780A121BEC8E82BF
:1030BC008F83A3A3E0F50A780A121BECEE2403120B
:1030CC003370780A121BEC8E828F83123135120EFC
:1030DC00337406121998E9F50A7021850C82850D56
:1030EC0083E0701F85088285098312301E120A9DA9
:1030FC008011750A0E8009750A018004E50A6003C7
:10310C00123383850C82850D83E060047900800284
:10311C00A90A74021219987F0C021AAB85188285C1
:10312C001983123022120E212212337EFD85088261
:10313C008509831230222274EE1219D974FE1219E9
:10314C00828A088B098C0C8D0DEA2405FEEB340069
:10315C00FF750E00123260EA450B70030232271223
:10316C003249502C1231288A0E8B0FEA450F604AD7
:10317C007912AC0AAD0B85088285098312301E8545
:10318C000E82850F831219D7E9F50E600302322ADD
:10319C00850882850983123465AA0AFB12323B70BA
:1031AC00147AFF7BFF12323B606C88828983E50ABC
:1031BC00F0A3E50BF0750A008007750E0E805F0515
:1031CC000A900843E0FAE50AC39A504AE50A75F0FA
:1031DC0017A4FAABF088828983A3A3E02AFAA3E0B0
:1031EC003BFB8A828B83123379EC4D70D2750A17B4
:1031FC00750B00780A121BECEEFCEFFD12067174D5
:10320C0002121998EEFCEFFD8508828509831230B5
:10321C001E120AA38014750E098003750E01123B51
:10322C00AB850C82850D83123390A90E022DCA1228
:10323C000E158A108B11A810A911E84922E5082453
:10324C0002F508E5093400F5098A828B83A3A3A350
:10325C00E0A2E522851882851983AC82AD838E822B
:10326C008F831232768A0A8B0B22E0FAA3E0FB12D0
:10327C000D132274041219987F0A021AAB74EC1203
:10328C0019D98C108D11EA2405F50CEB12388E75BA
:10329C000F00EA2402F50AEB123373850A82F583D8
:1032AC0012301E123DBD7003023365750E00807125
:1032BC00850C82850D83E06401704F8E828F83A311
:1032CC00A3121C038E828F83A3A3A3A3E0F5127514
:1032DC0013007812121BECEE2405F512EF3400F5F6
:1032EC00137812121BEC123018120E3374061219CA
:1032FC0098E9F50F6014850C82850D83E4F0123B80
:10330C00AB8510828511831233907C177D00790078
:10331C00EEFAEFFB1206898E828F83E4F0A3F005A0
:10332C000E900843E0F8E50EC398501EE50E75F0BC
:10333C0017A4F8A9F0850882850983A3A3123D235D
:10334C00123379EC4D60030232BC85088285098307
:10335C0074FFF0A3F0E50F7006123018120AA9A939
:10336C000F023123F50AEF3400F50B22A312337E42
:10337C00FD22E0FCA3E0228E828F83123BB3850EEC
:10338C0082850F83E8F0A3E9F022C082C083900805
:10339C003FE06A7003A3E06B70067A3F7B08800401
:1033AC007A007B000226D874F71219D97F00EF75CA
:1033BC00F003A4F8A9F0EC28F8ED39F98882898398
:1033CC00E06A7003A3E06B7006E8FAE9FB800B0F70
:1033DC00EFC3940240D87A007B007F01021AAB74D1
:1033EC00F61219D912399C70067A007B008007A35B
:1033FC00A3A3A312301E023A5D74F21219D9E9FE8E
:10340C00740E1219CD12346574101219CD1238CDF8
:10341C008C828D83E06402703BA3123BAF8882895F
:10342C0083E0F50CA3E0F9A80C740268700374290E
:10343C00697021750C02750D00780C121BEC780864
:10344C00121BEC780A121BECEEF9120E57740612D2
:10345C00199880027901023ACDE0F50AA3E0F50B48
:10346C002274E81219D974FB121982E98518828525
:10347C001983F08A168B178C0E8D0F741F1219CDB1
:10348C001238CD74211219CD12346574231219CD52
:10349C001238B77510008C828D83A3A3A3E0A2E42D
:1034AC00502A741D1219CD12312E8A828B83E5821B
:1034BC0045837003023579790AAC0EAD0FAA16ABB1
:1034CC00171219D7E9F510600302357C850E828539
:1034DC000F83E064026003023832A3123BAF85080D
:1034EC0082850983A3858212858313E50E2406F554
:1034FC000CE50F12388E88828983E0FAA3E0F9EA92
:10350C002400F514E439F5157814121C760100002A
:10351C002801284135070002281836032888350071
:10352C0029423701296A3702291137032942370406
:10353C0029D3373238EE4F703E850C82850D8312BD
:10354C0038A8FAE9FB8A828B83E0850A82850B8393
:10355C001238E4121BEC8A828B83A312337EFDAAF1
:10356C0008AB091206717402121998800375100EBB
:10357C00A9107405023D1175100B80F4EE4F70F715
:10358C00850A82850B837401F01238BD850882850B
:10359C000983F07C007D00850E82850F83A3A3A395
:1035AC00A3E02401FAA3E03400FB120D13EA4B60F4
:1035BC00418A828B83E02402F8850A82850B83E0A2
:1035CC0028F0EA2404F8EB3400F988828983E0853A
:1035DC0012828513831238F61238E4121BEC8A829D
:1035EC008B83123378E5082403FAE5093400FB02D7
:1035FC00356F850A82850B83E02404F07C047D0002
:10360C007900AA12AB1312068902357CEE4F6003C7
:10361C000235831238BDFEA3E0FF850A82850B8339
:10362C007404F0EE850882850983F0EF851282859B
:10363C001383F074031219CDAC82AD83EEFAEFFB59
:10364C0012398A70030236EE8A828B83A3A3123856
:10365C00B374011219CD85820E85830F780E121B5F
:10366C00EC74051219CD121C037CFF7DFF120D1991
:10367C0074041219988B0FEA450F7033850C8285F0
:10368C000D83123893121BEC850C82850D83A312CB
:10369C001C037C027D007A027B90120B4574041291
:1036AC001998E9700A74011219CD74FFF0A3F08E09
:1036BC00828F83E064027034750C02750D00780CF7
:1036CC00121BEC8E828F83123378E5082404FAE502
:1036DC0009122CA4121998850A82850B83E0240206
:1036EC00800974011219CDEEF0A3EFF074011219D8
:1036FC00CD1238A4F074011219CDA312389CA3A3D7
:10370C00A3F002357CEE4F6003023583850C828575
:10371C000D83123379AA16AB17120E4B850A8285CC
:10372C000B837402F0EA850882850983F085128286
:10373C00851383EB80CBEE4F60030235831238BDCB
:10374C00F8A3E0F9850A82850B837402F0E88508FA
:10375C0082850983F0E985128285138380A3850C09
:10376C0082850D8312301E12066BEAFC8C82A882B5
:10377C00C39EE49F404BE86E7001EF70047C0080A8
:10378C001F851882851983E0FAEE2AFAEF3400FBC4
:10379C00C3EA98EB94005003E08004EECCC39CFC8D
:1037AC00EC850A82850B83F08C0A750B00780A1263
:1037BC001BEC850C82850D83E02EFCA3E03F0235CB
:1037CC006A75100702357CEE4F6003023583850C59
:1037DC0082850D83123BAF850A82850B837407F0BB
:1037EC008882898312389C123884E0851282851372
:1037FC0083F0E82402FAE93400FB8A828B831238C6
:10380C009C1238D51238A4A31238DE1238ADF0E869
:10381C002405F8E93400F9888289831238ADA312A3
:10382C0038F6A302370A741D1219CD12399570039C
:10383C00023579123BAF880C890DE8450D700302F7
:10384C0035798E108F117810121BEC780A121BEC44
:10385C007808121BEC74061219CDE0F9AC0EAD0F02
:10386C00AA16AB17850C82850D831219D774061214
:10387C001998E9F51002357CF088828983A322F52A
:10388C000CEF3400F50D22E0F50E750F00780E22CA
:10389C00E0850882850983221238FD22123BB3E8A9
:1038AC00221238FDA3A322A3A3A3A3E0FEA3E0FF4F
:1038BC0022850C82850D83E0F8A3E0F5838882E0F5
:1038CC0022E0F508A3E0F50922A3A3F08A828B83FA
:1038DC00A322122590A3A322F08A828B831238EDA7
:1038EC0022E0F50A750B00780A221238841238FD92
:1038FC0022E0850882850983A3A32274EE1219D9CC
:10390C0074FE1219828A0A8B0BECFAEDFB741412FA
:10391C0019CDE0F510A3E0F51174161219CDE0FEE7
:10392C0074181219CDE0F50EA3E0F50F85188285F9
:10393C001983AC82AD8312398A603E851882851951
:10394C0083123995602FA3A31238CDE50845096081
:10395C0024780E121BEC7810121BECEEF9AC0CADAB
:10396C000DAA0AAB0B8508828509831219D774043A
:10397C001219988006790E80027901022DCA120D57
:10398C00138A0C8B0DEA450D2212302212399C221F
:10399C00120DDF8A828B83E58245832274F612191D
:1039AC00D974FE121982740C1219CD1238A885180C
:1039BC0082851983F074011219CDE9F0E4F508F54C
:1039CC00097808121BEC7508027808121BEC7404B9
:1039DC001219CD8582088583097808121BEC120E0A
:1039EC003374061219987402121998806474F712C1
:1039FC0019D9EAFEEBFF89087C767D08120E4BEA9A
:103A0C005402600BA908EEFAEFFB120D0780027945
:103A1C00010233E674F61219D974FF6A700374FF4D
:103A2C006B701C7B00EB75F003A4F8A9F0EC28F884
:103A3C00ED39F9123A620BEBC39402501480E61282
:103A4C000E1B8A088B09A808A909E8496003123AD9
:103A5C00627F02021AAB8882898374FF12258EE47E
:103A6C00F02274F61219D9120E1B8A828B83E5820E
:103A7C0045836006A3A3E0FA80027A007B0080D124
:103A8C0074F21219D98A088B09ECFEEDFF740E1230
:103A9C0019CDE0F50A123AD2701CEEFCEFFD7AFF5C
:103AAC007BFF123AD270047911801688828983E5E3
:103ABC0008F0A3E509F088828983A3A3E50AF079CD
:103ACC00007F06021AAB120E1B8A0C8B0DA80CA9D8
:103ADC000DE8492274EE1219D9EAFEEBFF8C088D21
:103AEC0009890C74121219CD123BAF74141219CD32
:103AFC0012337974161219CD12301E750D00EC4D5F
:103B0C006003023BA37402650C6003023B9E888237
:103B1C00898312337EF9EC2400F50EE439F50FEAB3
:103B2C00F4F8EBF4F9EC58F8E50F59F9E849705D45
:103B3C00E5082406F8E5093400F9880A890B88821F
:103B4C00F583122CB3120E4B8A108B11E50E6510F7
:103B5C007004E50F65116042780E121BEC850A8229
:103B6C00850B83122CB3120E517402121998E9F5BD
:103B7C000D7027780E121BEC850882850983A3A390
:103B8C00122CB1120E697402121998800D750D80E9
:103B9C008008750D0D8003750D0BA90D0232848EF6
:103BAC00828F83123BB322E0F8A3E0F92274E8126F
:103BBC0019D974E7121982851882851983EAF0A342
:103BCC00EBF08C168D17890E74311219CDE0F512AD
:103BDC00A3E0F51374331219CDE0F514A3E0F51539
:103BEC0074351219CDE0F50F750800750900E5095B
:103BFC0075F003A4F8A9F0851882851983123D236A
:103C0C00E0F47003A3E0F47003023D01EE2402F52E
:103C1C000CEF123D19E07003023D0185160A851761
:103C2C000B780A121BECAC14AD15AA12AB13120DC7
:103C3C00D374021219988A0A8B0BEA450B70030293
:103C4C003D01E4F510F5117810121BEC74061219F5
:103C5C00CD8582108583117810121BEC7409121912
:103C6C00CD8582108583117810121BEC851282850C
:103C7C001383A3A3A3A3121C037914AC0AAD0B8E5C
:103C8C00828F83123D37121998E97069850A8285F3
:103C9C000B83A3A3A3A3123BAF74021219CD12334F
:103CAC0090850C82850D83E0A2E05018A90E740259
:103CBC001219CDAC82AD838E828F8312301E120D01
:103CCC002BE94208850C82850D83E0A2E15026E5A4
:103CDC000FF50A780A121BF0A90E74031219CDAC59
:103CEC0082AD838E828F8312301E120D25740112C9
:103CFC001998E942080509E509C394025003023BEF
:103D0C00FAA90874191219987F10021AAB3400F52D
:103D1C000D850C82F58322E028FEA3E039FF8E820C
:103D2C008F83227916850A82850B83123022120E1C
:103D3C002D74082274F21219D9EAFEEBFF890B7468
:103D4C0001650B600E7402650B70637901121049EA
:103D5C00E9705BEEFAEFFB123DBD6047750A00801F
:103D6C000B7C177D007900120689050A900843E048
:103D7C00F8E50AC3985021E50A75F017A4F8A9F0E4
:103D8C00850882850983A3A3E028FAA3E039FB8A7E
:103D9C00828B831226DF70C985088285098374FFA4
:103DAC00F0A3F07C767D08EEFAEFFB120E45023A9A
:103DBC00CD120E158A088B09EA45092274F21219E4
:103DCC00D98A088B09ECFEEDFF740E1219CD123452
:103DDC0065901175E0F4603D7A097B00120695EA56
:103DEC004B60328A828B8374B1F0A3E41238D7A370
:103DFC001238D5A3E508F0A3E509123E24EEF0A392
:103E0C00EF123E24A3A3E50AF0A3E50BF090117585
:103E1C00E0F91206A1023ACDF08A828B83A3A3A308
:103E2C00A3A322C082C0839061907404F0A3744851
:103E3C00F0A3E4F09061807440F09061BC7407F0E2
:103E4C009061877469F09061B67416F07900121164
:103E5C003F790212114590244CE493F46006E493EC
:103E6C00F912111B790512142D02423AC082C0833B
:103E7C00E9540FF9906185E0696012E5C6548044FD
:103E8C0049F5C6E59E547F644970F8E9F053C68045
:103E9C00E59E547F70FA02423A74F71219D9E5A8DC
:103EAC00FE53A87E121127C2BA539AFEC289759B83
:103EBC0000C2C212112D75A91175B905121133D298
:103ECC00BA439A0174805E42A80247C8C082C0837C
:103EDC00906181E4F0A302423775E9007591007599
:103EEC00BF00020122C082C083906181E4F0A37400
:103EFC00C0F0A3E4024239C082C08374F812198264
:103F0C009009221246AAE8497003023FBA9009228E
:103F1C00E0544060237908851882851983AA82AB06
:103F2C008312122F851882851983AA82AB83120EF5
:103F3C00DB900922E054BFF0E054806010790C7AD9
:103F4C00DB7B0A12122F900922E0547FF0E0A2E0F2
:103F5C0050087900123FC254FEF0E0540260087918
:103F6C0001123FC254FDF0E0540460087900123F86
:103F7C00CD54FBF0E0540860087901123FCD54F7A2
:103F8C00F0E0541060087902123FCD54EFF0E05489
:103F9C002060087903123FCD54DFF0A3E054016098
:103FAC000D121151120EED900923E054FEF074081D
:103FBC0012199802423A12113F120EE1900922E0B6
:103FCC0022121145120EE7900922E022C082C08312
:103FDC00E9600514602A804F90619A7433F0A374E1
:103FEC0055F09061A0743AF0900AB7E06401700942
:103FFC00C2919009247467802D90092474618026E5
:10400C0090619A743FF0A3745AF09061A0747FF0A1
:10401C00900AB7E064017009D29190092474718000
:10402C0005900924746AF002423AC082C083E960A8
:10403C000B14600D14600F146011802090245080BC
:10404C00159024518010902452800B900AB7E06494
:10405C000160F3902453E493906186F002423A7429
:10406C00EE1219D974F4121982851882851983AC51
:10407C0082AD8375838F75827A740412189590249F
:10408C005093F460030241FD907808E0C394025011
:10409C00030241DD74041219CDAC82AD8375838F9C
:1040AC007582227408121895F97AFF7BFF7FFF7EC8
:1040BC00008982858210801874086E700302419208
:1040CC0074096E7003024192740A6E70030241927D
:1040DC00E510C333FCE433FD74041219CDE5822CD6
:1040EC00F582E5833DF583E0F50EA3E0F50F8E0830
:1040FC007509007402780812196F74482508FC744D
:10410C00783509FD8C828D837808121852740878E2
:10411C000812179385080C85090D8C828D837808FD
:10412C0012185274187808121793E50C4508F50804
:10413C00E50DF509C3E50E9508E50F95098C828D03
:10414C008378081218528C828D8378081218527456
:10415C001878084014121793E50C4508FCAD0DE5D2
:10416C000EC39CFCE50F9D800F121793E50C4508C0
:10417C00C3950EFCE50D950FFDC3EC9AED9B500617
:10418C00ECFAEDFBEEFF0EEEC3941350030240C4A9
:10419C0074FF6A700374FF6B602D8F0874027808CB
:1041AC0012196F7448124E5674783509F5837808D5
:1041BC00121852851882851983E5822510F582E53F
:1041CC0083124BE3E508F009E9C394045003024061
:1041DC00B57508017509007808121BEC74021219E8
:1041EC00CDAC82AD837A147B091208F974021219D2
:1041FC0098740C1219987F0A021AABC082C0839073
:10420C00618674D5F09061AE7468F0A3746AF09016
:10421C00624574FBF0A304F053F4FD43FE02900AD4
:10422C00B77401F0790012113F8003F0A3F0D08332
:10423C00D082020122C082C08375E1F1900A6CE049
:10424C00604E14600814605214604A805212115D62
:10425C00900A62E0F97A637B0A1213AF908F7212A4
:10426C0018701213E5908F861218701213BB900AF7
:10427C006DE0F91213C77901121421900A60E02441
:10428C00161243D07475F0A37411F0790002423AFF
:10429C0012116380BB12116980B612116F80B17953
:1042AC001280EA74F41219D975D90D900A52E0A251
:1042BC00E0E4331313F812433C484401F5D9780079
:1042CC001243BA40FB780088087453124E56740A95
:1042DC001243C440F275E195900A52E0F97A537B8F
:1042EC000A1213B590119774F1F0A374101243DFF6
:1042FC001243FF1243F61245371243467808121840
:10430C0052908F6E78081217DE908F8278081218F0
:10431C002C1243CA7808121861900A60E024141217
:10432C0043D07413F09009207402F07F04021AAB8E
:10433C00900A62E0C4333354C022900A60E0F8A3C0
:10434C00E0F5838882A3A32274F61219D9124508CA
:10435C008AD978001243BA40FB7800800612446E6A
:10436C001245BAE8C39940F51244FA1243BA40FB1D
:10437C0078008008124E52740A1245BAE8C399406C
:10438C00F375E19590119774FDF0A374101243DF4F
:10439C001243E91218701243CA12187C900A60E09A
:1043AC0024141243D07412F09009200247A58808F7
:1043BC0074632508F582740A124716940622900A33
:1043CC0060E0240EF8A3E01243D7223400F988826F
:1043DC0089832212452074F7F0A37410221243FF34
:1043EC001243F612453B908FC222F0A3740FF0A338
:1043FC007411221244032212440722F0A3749BF07E
:10440C00A374122274F61219D912446312433C4459
:10441C0002F5D978001243BA40FB780080061244AA
:10442C006E1245BAE8C39940F575E1959011971253
:10443C004479F0A31244791243EC1218701243CA57
:10444C0012187C900A60E024141243D07414F0907B
:10445C00092074040247A7900A72E0F9740729F541
:10446C00D922880874732508F582740A22740912FB
:10447C004486124486F0A3741122F0A37411F0A3A5
:10448C0074092274F61219D912450874064AF5D922
:10449C0078001243BA40FB7800800612446E124535
:1044AC00BAE8C39940F51244FA1243BA40FB7800BB
:1044BC008008124E52740A1245BAE8C39940F3753B
:1044CC00E1959011977403F0A374111245161243E1
:1044DC00E91218701243CA12187C900A60E0241476
:1044EC001243D07415F090092074030247A7900A68
:1044FC009212446674044AF5D978002212446390EF
:10450C000A62E0C4333354C0FA22124520749BF083
:10451C00A374122212452422124531749BF0A37409
:10452C001212453122124407F0A32212453B22F00D
:10453C009011A5749BF0A37412124524749BF0A3E4
:10454C007412124403F022C082C083124346A3A308
:10455C00A3A3E402423774F71219D9125098F874D5
:10456C000939F9E82405FAE93400FB8A828B8312B5
:10457C004E0788828983A3A3A3A3A3A3A3A3A3EC1D
:10458C00F0A3EDF088828983A3A3A3A3A3A3A3E044
:10459C0024FFF8A3E034FFF98A828B83E8F0A3E9C7
:1045AC00F00247C8880874BB2508F582740A124DBE
:1045BC002EF5D90822EAFEEBFF9061D0E0F874806A
:1045CC00C398FAEE2483221245D9940422124BF19B
:1045DC00E0F5D90AEAC32274F61219D9EAFEEBFF08
:1045EC009061D0E0707575D90E75D90375D9047AC0
:1045FC00008A08EE2508125166248C12467C40F184
:10460C007A008A08EE250812516624841245D3409C
:10461C00F175E1957908EE248C12467524841246C6
:10462C006C7C008C82AA82C3E49AF895E0F9EE289F
:10463C00F8EF39F9E8248BF582E9124D2AC0E0EE47
:10464C002A12516624ABF582E9124BE3D0E0F00C50
:10465C00ECC3940840CD124732800279000247A87F
:10466C00FAEF3400FB1212232212466C7904EE226C
:10467C001245D9940822C082C08375D90275D9031A
:10468C0075D90575E195EA2470F582EB1246A7EA17
:10469C002472F582EB12474402423A124BF4124652
:1046AC00AE22E0F8A3E0F92274F61219D9EAFEEB77
:1046BC00FF900ABB7406124720121BEC7C01790395
:1046CC00124A4C12199875D90675D90378001247FD
:1046DC000640FB75E195900920E064087017EE2404
:1046EC0070F582EF1246A7EE2472F582EF124BE3BF
:1046FC00E8F0A3E9F079010247A8880874BB250803
:10470C00F582740A124716940522124BF4E0F5D97F
:10471C0008E8C322F07508BB75090A78082275E110
:10472C009579041213EBEE2470F582EF124BF41210
:10473C0046AEEE2472F582EF124BF4E8F0A3E9F0EA
:10474C0079012274F61219D9EAFEEBFF9061D0E0E0
:10475C0070437901900ABB740BF0900920E0640758
:10476C0070177508BB75090A7808121BEC7C0109D7
:10477C0009124A4C1219987905740129F5D975D981
:10478C0003780080031245B0E8C39940F875E195B1
:10479C001247328002790080037401F07F02021A02
:1047AC00AB74F71219D9EAFEEBFF75D90375D9036F
:1047BC0075D90DEE24DE1247CD12472A7F01021A5D
:1047CC00ABF582EF124D2EF5D9227F03021AAB7492
:1047DC0001250AF5D975D90378002274F51219D977
:1047EC0012485C6004780480027800E8240BF8EA34
:1047FC00C3984041750A09900ABB7409F0790812F4
:10480C00484560147508BB75090A7808121BEC1230
:10481C004A44121998750A0D1247DB80031245B0F1
:10482C00E8C3950A40F775E19579041213EB124928
:10483C00C17901800279008091EE24E3FCEF340011
:10484C00FD7ABC7B0A12121D850882850983E02241
:10485C001245C1F8EF124DFBF583E02274F31219E7
:10486C00D98A088B09124A57FAE5082483F50AEB12
:10487C001249266004780480027800E82408F8EADB
:10488C00C398500302491F750C06900ABB740CF0B8
:10489C0090093DE0900ABCF07402C0E0F97C3E7DCA
:1048AC00097ABD7B0A12121DD0E0F97C407D0912F9
:1048BC00121D850A82850B83E0601C750ABB750B83
:1048CC000A780A121BEC7C067903AA08AB09124A77
:1048DC004C121998750C0A7401250CF5D975D9036D
:1048EC0078008009880A74BB250A1245B6E8C3957E
:1048FC000C40F175E19579041213EBE5082470F581
:10490C0082E5091246A7E5082472F582E5091247EB
:10491C0044800279007F05021AAB3400F50B850A3E
:10492C0082F583E02274F61219D9EAFEEBFF124AE3
:10493C0057FCEE2483F8EF124A5260047A0480028A
:10494C007A00EA2404FAECC39A405E7A02900ABB1D
:10495C00EAF0EE24F5F582EF1249CD60197508BB2B
:10496C0075090A7808121BEC7C027903EEFA124ADC
:10497C004C1219987A0674012AF5D975D903780066
:10498C0080031245B0E8C39A40F875E195EE2474A3
:10499C001249BAEE24801249BA1249C17904121391
:1049AC00EBEE240D124735800279000247A8F58200
:1049BC00EF124B3D22EE241DF582EF124B3DA3F07E
:1049CC0022124D2E900ABCF088828983E02274F664
:1049DC001219D9124A57FEEA2483F8EB124A526094
:1049EC00047C0480027C00EC2404FCEEC39C404359
:1049FC007C02900ABB7407F0EA24F6F582EB1249AC
:104A0C00CD60157508BB75090A7808121BEC790383
:104A1C00124A4C1219987C0674012CF5D975D903DD
:104A2C00780080031245B0E8C39C40F875E1957995
:104A3C0001800279000247A87C097903EEFAEFFBAA
:104A4C0012128F7402221243D7E0229061D0E0F848
:104A5C007480C3982274F51219D9E9FEA2AFE4331D
:104A6C00F50AC2AF7F00EA246FF8EB3400F980013D
:104A7C000F88828983E0FCEFC39C50188F08EA25CD
:104A8C0008FCEB3400FDEC246BF582ED124D2A6E24
:104A9C0070DE8010EA2CFAEB3400FB124BDDEE12C8
:104AAC0049D304F0E50AA2E092AF0247D674F6129D
:104ABC0019D9A2AFE433FFC2AFEA246FF8EB12515D
:104ACC0068FCE9FD8C828D83E014F07E0080218EE1
:104ADC0008EA2508F8EB125168246CF582E9124DAE
:104AEC002AC0E0E8246BF582E9124BE3D0E0F00E2B
:104AFC008C828D83E0F8EEC39840D4EA246E124B7E
:104B0C00E074FF124B32EFA2E092AF0247A8C082D2
:104B1C00C083E5A8F8C2AF124BDDE9124B32E8A214
:104B2C00E792AF02423AF0EA246AF582EB124B3D6F
:104B3C0022124BF4E4F02274F21219D98C828D8378
:104B4C00A3A3A3A3E0541FF0EA2436124E9F8E8237
:104B5C008F83E4F0F50C850C8285820AEC250AF82B
:104B6C00ED124DF7F583E0C0E0EA250AF8EB124BA5
:104B7C00E7D0E0F0750D00850882850983E0F50A21
:104B8C00750B00E50D780A121950E50AA2E0502ABF
:104B9C00E50C33333354F8250DC0E08E828F83E05F
:104BAC00F8EA28F8EB1251682438F582E9124BE345
:104BBC00D0E0F08E828F83E004F0050DE50DC394F8
:104BCC000840B4050CE50CC39405408A7F06021A14
:104BDC00ABEA246BF582EB124BF4223400F9E82497
:104BEC005D124BF122F582E93400F5832274F61242
:104BFC0019D990094AE0640170077A007B00024DD4
:104C0C00247E00900950E070F17401F0A3E4F0A34D
:104C1C00F09009B004F09009B3E4F0A3F09009B659
:104C2C0004F0900953E4124D3B90095D04F0900997
:104C3C0083E4F0908FAA12187090096612187C9079
:104C4C00096AE4F0A3F0A3F09009CEF09009C2F049
:104C5C009009B77480F0A3E4F09009BDF09009B509
:104C6C00F0900A39124D33900A42F09009D1F0902D
:104C7C000A21F0A3F0908FAA121870900A23121830
:104C8C007C908FAA121870900A2712187C900A2D0B
:104C9C00E4F0900A2FF0900A2BF0900A45124D3355
:104CAC008E0874B9124E567409124BE374FFF00E51
:104CBC00EEC3940440EA7E008E82A882745928F5D3
:104CCC0082740A124D2AC0E074AB28F58274091262
:104CDC004BE3D0E0F00EEEC3940540DC7E008E82F8
:104CEC00A882743428F5827409124D2AC0E07431FC
:104CFC0028F582740A124BE3D0E0F00EEEC3940850
:104D0C0040DC90094AE004F064017008900952E01C
:104D1C0090094CF07A4E7B090247A8F582EF124DB0
:104D2C002E22124BF4E022124D3BA3124D3B22F0EB
:104D3C00A3F0A3F0A3F022C082C083EA2403F5827F
:104D4C00EB124D2A6008E4F090094BE014F0900946
:104D5C004AE014F0700690094C74FFF08A828B8341
:104D6C00A3A3E4F0900A5EE0700D90094BE064019F
:104D7C00700579001213CD02423AC082C0839009AB
:104D8C0051E4F0900950F090094AF0A3F0A374FF9D
:104D9C00F075E1F102423AC082C08378007900904C
:104DAC000951E06004784E790988828983A3A3A312
:104DBC00A3E0F902423A74F61219D9EAFEEBFF129B
:104DCC0011D5EE2465F8EF124DF7124E05EC4D603F
:104DDC001090094C125090850882850983E4F0A349
:104DEC00F0EEFAEFFB1212C50247A8124DFB22346B
:104DFC0000F988088909888222F583E0FCA3E0FD8C
:104E0C002274F71219D9EAFEEBFF8E828F83A3A3CB
:104E1C00A3A3E0FA7B00120F53EEFAEFFB1211E79B
:104E2C001212A70247C874F61219D97800880874B0
:104E3C0034124E5674091249BD08E8C3940840ED6B
:104E4C009009340247A5880874932508F5822274CA
:104E5C00F61219D9EA240D124E9FEC2403F8ED3406
:104E6C0000F988088909EC2407F8ED125168FCE96F
:104E7C00FD124EA91218F78E828F83E8F0A3E9F089
:104E8C00124EA91218F78B09EA45096003124EBCA1
:104E9C000247A8F8EB3400F9E8FEE9FF228C828D7A
:104EAC00831246AE850882850983E0FAA3E0FB22D3
:104EBC008E828F83E02401F0A3E03400F02274F69C
:104ECC001219D9EA242EF582EB3400124E05EA248D
:104EDC0070124E9F780079FAECFAEDFB1218F78EEF
:104EEC00828F83E8F0A3E9F0780079FAECFAEDFB15
:104EFC001218F78B09EA45096003124EBC0247A849
:104F0C0074F01219D9EAFEEBFF74101219CD78085F
:104F1C0012185212137F8A0C8B0D8C0E8D0F908FE2
:104F2C006A780C1217DE908F82780C12182C780C81
:104F3C00121BE88E828F831243491218701221D9EA
:104F4C007404121998E96003024FF48E828F83E087
:104F5C002402F8A3E0125168FAE9FB8A828B837869
:104F6C00081217F1908F8278081218528A828B835C
:104F7C00780812183FEE240BF582EF124BE3C08237
:104F8C00C0838E828F83A3A3A3A3A3E02401F8A3E1
:104F9C00E03400F9D083D082E0687003A3E069703C
:104FAC000479018045EE2407F8EF1243D7124EC066
:104FBC00EE247412516D7014EE2475124FFB7003B5
:104FCC00A3E06D70078A828B83124EC0EE24801290
:104FDC00516D7014EE2481124FFB7003A3E06D70C1
:104FEC00078A828B83124EC079007F08021AABFAB3
:104FFC00EF3400FB8A828B83E0FCA3E0FD8882897E
:10500C0083E06C2274F31219D9125098FE7409398A
:10501C00FFEE2404F50AEF3400F50BEE2465F508D9
:10502C00EF3400F5098010124E078508828509833C
:10503C00E4F0A3F012508A850882850983124E078A
:10504C00EC4D6030EE2464124D27F50C780C121BDD
:10505C00F0EE2463124D27F9EEFAEFFB12121174E5
:10506C0001121998E985088285098360BA1246AA4B
:10507C00E84970077C007D0012508A024921850A9C
:10508C0082850B83E0FA7B00120F112290094CE011
:10509C00F875F004A4C8AAF02AF9744E282274F208
:1050AC001219D9EAFEEBFF890A740E1219CDE0FA37
:1050BC00EE246212516D6003025161124A57F50CD5
:1050CC00EE2483124D27FB6004780480027800895B
:1050DC0008E928F8E412516824020808E93400F9B8
:1050EC00E50C98E499A2D265D0334065EA70057559
:1050FC000B028003750B01EB603375090078081205
:10510C001BEC7ABB7B0A121259740212199875089F
:10511C00BB75090A7808121BECAC0AA90B124A4899
:10512C001219987404250AF50A7CBB7D0A740125B2
:10513C000AF5D9850BD97800800A8808EC124E56EE
:10514C00ED1245BAE8C3950A40F075E195790080F7
:10515C00067907800279FF024BD8F8EF3400F9E8A2
:10516C0022F582EF124D2E640122C082C08380038F
:10517C001251A4E9F874FF28190470F4ECFAEDFB51
:10518C0002423AC082C08380031251A4E9F874FF32
:10519C0028190470F402423A8C828D83E08A828B47
:1051AC0083F08C828D83A3AC82AD838A828B83A3A4
:1051BC00AA82AB832274F41219D9E9FF7E008A0803
:1051CC008B097808121C3000040D5053F451115205
:1051DC002A5241525E5275529652AC52BE52E45211
:1051EC00EC52FC5212532C5374016F600302534C5B
:1051FC008C828D83E0F8C39403400302534CE890F7
:10520C000F6602532974026F600302534C8C828D1B
:10521C0083125A74900F67E8F0A3E90253297401C2
:10522C006F600302534C125373400302534CE890CB
:10523C0002E902532974016F600302534C8C828D76
:10524C0083E0F8C39405400302534CE89002EA0251
:10525C00532974016F600302534C125373400302C1
:10526C00534CE89002EB02532974106F6003025305
:10527C004C7508108E097808121BEC7AEC7B021224
:10528C000671740212199802536E74016F60030256
:10529C00534C125373400302534CE89002FC807D34
:1052AC0074016F600302534C8C828D83E0900F6A03
:1052BC00806B74046F600302534C8C828D8378086E
:1052CC00121852908F9E780812168440739002FE2A
:1052DC00780812186102536EEF706512087B805BC0
:1052EC0074016F705B1253735056E89002FD802D61
:1052FC0074016F704B8C828D83E0F8C3940A50401C
:10530C00E8900F69801774016F70358C828D83E083
:10531C00F874F928C3940A5027E8900F6BF0804278
:10532C0074016F701B900390E0F88C828D83E09079
:10533C000390F0E8702CE06401702712086F802253
:10534C007E18801EC3EA9424EB9400501374026FF1
:10535C00700E8C828D83126532120B51E9FE800225
:10536C000E0EEEF90253828C828D83E0F8C3940208
:10537C0022740E1219987F04021AAB74F01219D908
:10538C0074CC1219828C0A8D0B74201219CDAC823C
:10539C00AD8375838F758230740612189574201244
:1053AC0019CDAC82AD83120821E9F50874441219A9
:1053BC00CDE0FEE9C3940A40030254EE75F006E911
:1053CC00A4F50974261219CDAC82AD837A0E742023
:1053DC002509F91209B974321219CDE0FF900F6644
:1053EC00E06402700474018001E4F50D780D121B69
:1053FC00F0EEFDEFFCA908AA0AAB0B1208A574018C
:10540C001219987C147D007900740C1219CDAA82A3
:10541C00AB83120689740C1219CDAC82AD837A1051
:10542C0074242509F91209B9E9703C7C1079FF74D0
:10543C000C1219CDAA82AB831206E9E97029741CEF
:10544C001219CDAC82AD837A0474252509F91209A1
:10545C00B9740C1219CDAC82AD83EFA2E0E433F930
:10546C00AA0AAB0B120BDB851882851983AC82ADB3
:10547C00837A0C74702508F91209B9E970538518F0
:10548C0082851983AA82AB83120851750800E5083E
:10549C0075F003A4F8A9F0851882851983E5822894
:1054AC00F8E583125C73125DFB601D88828983A30F
:1054BC00A3E0F50E750F00780E121BECAA0AAB0BCD
:1054CC00120E3974021219980508E508C3940440A9
:1054DC00BDEFA2E1500C9002E8E0F9AA0AAB0B1266
:1054EC000E3F74046E7027900F66E06402701F7A92
:1054FC00009002FCE060010A9002E9E0600478048C
:10550C0080027800E84AF9AA0AAB0B120C9B7900CE
:10551C0074341219987F08021AAB74F01219D9EA74
:10552C00FEEBFF8C088D09750A0AE9600C14600902
:10553C001460371460790255D5120863E9F50AC373
:10554C00940A40030255D5E5084509607C750E06A2
:10555C00750F00780E121BECEEFCEFFDAA08AB09E0
:10556C001206717402121998805F750B00750E0685
:10557C00750F00780E121BECEEFCEFFDE50B75F0D1
:10558C000EA4F8A9F0740A28FA740339FB120683E6
:10559C007402121998E9600C850B0AE50AC3940A87
:1055AC0050278016050BE50BC3940A501C80BE12C5
:1055BC000869E9F50AC3940A500FE5084509600922
:1055CC00AA08AB09A90A12085DA90A02552174F4AC
:1055DC001219D9890875091574FF6A700374FF6B69
:1055EC0070277E00AC087A027B00EEF912083FE9C6
:1055FC0060037509000EEEC3940A40E8E508605399
:10560C007A937B0812105B804A12103D8A0A8B0B2E
:10561C00AE0AAF0BEE4F60387C007D00EE2405FA2D
:10562C00EF3400FB8E828F83A3A3A3A3E0F91208AF
:10563C0021E9C3940A500CAC087A027B0012083F93
:10564C00750900E508600CEEFAEFFB120893800375
:10565C00750914A90902538274F21219D9ECFEEDE2
:10566C00FF750815740E1219CDE0F50AA3E0F50BC1
:10567C0074FF6A700374FF6B7021750900AC0AAD7E
:10568C000BEEFAEFFBA909120845E9600375080057
:10569C000509E509C3940A503F80E212103D8A8245
:1056AC008B83E5824583602D7C007D00E58224059B
:1056BC00FAE5833400FBA3A3A3A3E0F9120821E9C4
:1056CC00C3940A5013AC0AAD0BEEFAEFFB1208456B
:1056DC007508008003750814A908025C3BC082C0E1
:1056EC0083900302EAF0A3EBF09002E8E0FC7D006B
:1056FC007A237B00120B519002E8E0F9120DB5D021
:10570C0083D08202012274EA1219D974EC12198224
:10571C00EAFEEBFFEE240CF514EF3400F515EE2445
:10572C000AF50CEF3400F50DEE2405F50EEF340000
:10573C00F50FEE2409F50AEF3400F50BEE2403F512
:10574C0008EF3400F5098E828F83A3A3E024FA704E
:10575C0003025A6124FD700302597F14700302572F
:10576C00F714601024FD7003025949147003025998
:10577C00B4025A6A125A7A604AE0F5838882125A45
:10578C0074880C890DE8450D603985148285158364
:10579C00E0F50E780E121BF0EE240BF582EF3400C0
:1057AC00F583E0F9850A82850B831265320A0A0AB1
:1057BC00AB09850C82850D831219D77401121998C7
:1057CC00025A6A850A82850B83121C039002FE1210
:1057DC001870120BED7402121998E97003025A6AD0
:1057EC007901850A82850B83025A2D8E828F83A3C1
:1057FC00858212858313E0600302592C850E828505
:10580C000F83E0A2E0400302592C7C0E7D0079004E
:10581C00851882851983AA82AB83120689EE240827
:10582C00F510EF3400F511851082F58312616AEAE8
:10583C004B6010750A06750B00780A121BECEA24F3
:10584C0010801B12616412103DEA4B7003025A6AFD
:10585C00750A06750B00780A121BECEA2405FCEBA2
:10586C003400FD74021219CDAA82AB831206717436
:10587C0002121998850E82850F83E0A2E25004D2A1
:10588C00F08002C2F0A2F0E433F8740C1219CDE0EF
:10589C0048F0850C82850D83E0F50AA3E0F50BE555
:1058AC000A450B6013E50A2410F582E50B3400F56C
:1058BC0083780C121852800C750CFF750DFF750E49
:1058CC00FF750FFFE50A450B7006750A00750B0096
:1058DC00851082851183E0F510A3E0F511E51045E4
:1058EC00117006751000751100780C121BE8780AFF
:1058FC00121BEC7810121BEC851482851583121C7C
:10590C00038E828F83A312652D740A1219CDAA827D
:10591C00AB83120857740A1219981261641208B1F9
:10592C00125A7A7003025A6A125A857003025A6A22
:10593C00851282851383E0FC7901025A5512616449
:10594C001208B1125A7A7003025A6AE0F5838882FF
:10595C00A3A3125A74890BE8450B7003025A6A8E82
:10596C00828F83A3E0FC79021261648882850B83A9
:10597C00025A5C7C007D00EE2404FAEF3400FB85B7
:10598C000882850983E0F9120821E9F8C3940A40DA
:10599C0003025A6AAC0CAD0D7A0475F006E8A42427
:1059AC0025F91209B3025A6A1261649002FDE06093
:1059BC0007900F69E0F9806C900F66E07004790530
:1059CC00806212103D8A0C8B0DA80CA90DE82404E2
:1059DC00F50CE93400F50D8E828F83A3A3A3A3A34A
:1059EC00A3A3E0A2E05042E8496073850C82850DC8
:1059FC0083E0FE6034850A82850B83E054107029A5
:105A0C00740E1219CDAC82AD83E82405FAE934008A
:105A1C00FBEEF9120821E9701079038508828509DB
:105A2C008312616A120BE78035AC0EAD0F850C82C8
:105A3C00850D83E0F912616412089F125A7A601E78
:105A4C00125A8560197C0079001261648E828F83F2
:105A5C001219D78009120CB3E9700312086F741471
:105A6C001219987F0E021AABE0F8A3E0F92290030A
:105A7C0002E0F8A3E0F9E84922E0F5838882A3A3C9
:105A8C00E0F8A3E0F9E8FEE9FFEE4F2274F41219F6
:105A9C00D974F2121982EAFE8C0B75F006E9A42473
:105AAC0020F508851882851983AC82AD837A0EF9AE
:105ABC001209B9E9704D7C0679FF85188285198326
:105ACC00AA82AB831206E9E97039740C1219CD1253
:105ADC005A74E8F509E50B6005EE42098004EEF412
:105AEC005209850982AA82E86A7001E96011740C76
:105AFC001219CDEAF0A3E41260BDA9081209B3791A
:105B0C00018002790002537D74F21219D974E612E5
:105B1C001982890A8A088B09ECFEEDFF740C1219A4
:105B2C00CDAC82AD837A0E75F006E9A42420F9126F
