:04000000020059326F
:01000B0032C2
:0100130032BA
:01001B0032B2
:0100230032AA
:01002B0032A2
:01003300329A
:01003B003292
:01004300328A
:01004B003282
:0300530002015057
:2000B2007521007522E0752300752400752500752600752700752800752900752AF2752BB3
:1C00D200F2752CF2752D61752E6F752F157530217531007532407533010200566B
:030056000200EEB7
:2000EE00900010E4F5F01202D9904B00120245AF9474D75FF594AF9574D75FF595120474F0
:20010E008530828531838532F012047FD2AFD2EA7E007F006380209001F4C007C0061202C2
:20012E00EAD006D0070EBE00010FC3EE9406EF6480948040DF9005CF75F080120264D2A6B4
:20014E0080FCC020C0E0C0F0C082C083C007C006C005C004C003C002C001C000C0D075D06F
:20016E000030A26174E42533404DE53370099005E375F080120264AF330533EF2434F975CC
:20018E008200C0011205A0E582D001F7E533142434F9E7C4540F2430F582120261E5331431
:2001AE002434F98707740F5F2430F58212026175822012026180AA7533019005EF75F08068
:2001CE00120264809CC2A6AF9174BF5FF591D0D0D000D001D002D003D004D005D006D00781
:0B01EE00D083D082D0F0D0E0D02032CF
:2005CF004C697374656E657220737461727475702E0A0D00466565644261636B3A200A0005
:0205EF000A0000
:06008800E478FFF6D8FD4C
:200066007900E94400601B7A009005F1780175A000E493F2A308B8000205A0D9F4DAF2754A
:02008600A0FFD9
:2001F900AA82AB8353C8FED2CCD2CDC2C943C8045380F9439506BA0005BB4B0280187C0017
:200219007D00BA0019BBE116BC0013BD001075CBFF75CAF7801275CBFF75CAE6800A75CBF2
:20023900FF75CAE690000022900001221201F94398404398102285829910990280FB2210F0
:20025900980280FB8599822202024FAA82AB83ACF08A828B838CF012057DFD60188D820AAD
:20027900BA00010BC002C003C00412024FD004D003D00280DC22020258AA82AB83750C0ABB
:20029900E4F50D8A828B83C002C003120554AC82AD83D003D002EC4D600F8C828D83C002CA
:2002B900C003120292D003D002750C0AE4F50D8A828B83120427AA8274302AF58202026179
:2002D900AA82AB838A08EBF5093395E0F50AF50B22AA82AB8385080C85090D850A0E850BAC
:2002F9000F90002BE4F5F0C002C0031203B9AC82AD83AEF0FFD003D002EFC313FFEE13FE9C
:20031900ED13FDEC13FCEFC313EE13ED13FDEC13FC7E007F008E008F01C3E89AE99B5021B9
:2003390078007900C3E89CE964808DF063F08095F0500708B800ED0980EA0EBE00D70F8021
:20035900D422AA82AB83E5AD20E4FB8BAB8AAC75AD0822AA82AB83ACF0AD0CAE0DAF0EE4E0
:20037900F511F512C3E511950FE51264808510F063F08095F050288A828B838CF012057DA0
:20039900F8A3AA82AB838D828E838FF0E81205B4A3AD82AE830511E4B511C9051280C522F3
:2003B900AAF0FBE582850CF0A4FCADF0E583850CF0A42DFDE435F0FEE582850DF0A42DFDF5
:2003D900E5F03EFEE433FFEA850CF0A42EFEE5F03FFFE583850DF0A42EFEE5F03FFFE5825B
:2003F900850EF0A42EFEE5F03FFFEB850CF0A42FFFEA850DF0A42FFFE583850EF0A42FFF45
:0E041900E582850FF0A42F8EF08D838C822259
:20042700E50C450D60467A01E50C25E0F50CE50D334012F50DE582950CE583950D40030A82
:2004470080E6C3E50D13F50DE50C13F50CC3E582950CF5F0E583950D4005F58385F082C32F
:0D046700E50D13F50DE50C13F50CDAE1229F
:20008E007800E84400600A790175A000E4F309D8FC7800E84400600C7900900001E4F0A370
:0400AE00D8FCD9FAA7
:20047400D2A7750C00758202020599AA82AB83ACF0D2A37D007E00C3ED940FEE6480948036
:200494005031ED2AFFEE3BF88C018F82888389F012057DF582C002C003C004C005C006127D
:2004B40005A0D006D005D004D003D0020DBD00C70E80C4C2A322AA82AB83ACF0D2A67D000A
:2004D400C3ED95745029ED2AFEE43BFF8C008E828F8388F012057DF582C002C003C004C069
:2004F400051205A0D005D004D003D0020D80D17A00C3EA9578501FEA2575FBE43576FCAD26
:20051400778B828C838DF012057DF582C0021205A0D0020A80DBC2A622D2A630A2FD7A00B1
:2005340030A21A8A030AEB245DF8758200C002C0001205A0E582D000D002F680E3C2A622A4
:200554007A10E4FBFCE58225E0F582E58333F583EB33FBEC33FCEB950CF5F0EC950D4006B3
:09057400FCABF0438201DADD2248
:0D0059007581781205B0E582600302005643
:1C057D0020F71430F6148883A88220F507E6A88375830022E280F7E49322E0228D
:170599008582B3850CB422AA825391DF8AB2E59130E5FB85B282229E
:0405B000758200222E
:1B05B40020F71130F6138883A88220F509F6A8837583002280FEF280F5F02246
:00000001FF
