:020000040000FA
:0600000002010A02226F5A
:03002B00021E6E44
:03003300021E4862
:030053000222E2A4
:03006B00021E8FE3
:03007B00021EA9B9
:10008300022123E5C754F84401F5C7790122000092
:100093000080FB120086B900030200F4E4792178A2
:1000A30008B800028004F709D8FCE479297802B87B
:1000B30000028004F709D8FCE4900A8178397908B2
:1000C3008002F0A3D8FCD9FA9011B9AA82AB83902D
:1000D300013A785179078015E493A3AC82AD838A02
:1000E300828B83F0A3AA82AB838C828D83D8E9D9D8
:1000F300E77582927583B2740312011C7582917540
:100103008300740012011C75D00075813F7518813E
:1001130075190A759F00020096C09FF59FE473D07E
:100123009F22D083D082C09FE493C0E0740193C028
:10013300E0740293F59F22FFFF0A4461746100009B
:10014300000000000000000000000002998201008E
:10015300002882025F82010000BB11029782030024
:1001630000830A025182010000BC1100000000005C
:10017300000000000000000000000000000000007C
:10018300000000000000000000000000000000006C
:10019300000000000000000000000000000000005C
:1001A300000000000000000000000000000000004C
:1001B300000000000000000000000000000000003C
:1001C300000000000000000000000000000000002C
:1001D300000000FFFF0A416363656C20456E6162A6
:1001E3006C650000021400416363656C2052616E0C
:1001F30067650000101010416363656C20582D4340
:100203006F6F7264696E6174650000416363656C4E
:1002130020592D436F6F7264696E617465000041EC
:100223006363656C205A2D436F6F7264696E6174EA
:100233006500000299820100002E82025F820100A4
:10024300005712029B82030000A30A02518201009D
:10025300005812025F8201000066120273820100DD
:100263000067120251820100006912025F820100DD
:10027300007612027582000000A40A024F82030076
:1002830000AA0A0251820100007912025F82010072
:10029300007712027782000000A60A024F82030051
:1002A30000B00A0251820100008D12025F82010038
:1002B300007812027982000000A80A024F8203002C
:1002C30000B60A025182010000A112126404010265
:1002D30099820100003A82025F820100004D1302FD
:1002E3006D820100004E13024F82030000BE0A021A
:1002F3009D820100004F1302020202020202020267
:10030300010D00000010010299820100002B8202FE
:100313005F820100007913029382010000C40A0284
:100323005F820100007A130291820100003481028E
:100333005F820100007B13028F820100002681028D
:100343005F820100007C13028D82010000A0800205
:100353005F820100007D13028B82010000D68002C0
:100363005F820100007E13028982010000B28002D5
:100373005F820100007F13028782010000C48002B4
:100383005F82010000801302858201000018810250
:100393005F820100008113028182010000821368E1
:1003A30001E803053F10FF00013075030201060059
:1003B300000000000000000000000000000000003A
:1003C3000000000000000000000000FFFF060080A6
:1003D3000CE8030B094E656F2773206E6F64650588
:1003E3001250002003020A000201060302F0FF0577
:1003F300FF3063706C4E656F277320424C45204E6F
:100403006F646500000000000000860B00009E0B77
:100413008C0BA40BC80B0A43686172616374657229
:1004230069737469632031000243686172616374A4
:10043300657269737469632032000843686172618D
:100443006374657269737469632033001043686170
:100453007261637465726973746963203400024363
:1004630068617261637465726973746963203500CE
:100473000299820100004082025F82010000981409
:10048300024582030000AF0C02518201000099145F
:10049300025F82010000AA14024782010000C30C1C
:1004A300025182010000AB14025F82010000BC1400
:1004B300024982020000C40C025182010000BD14F3
:1004C300025F82010000CE14024B82000000C50CC3
:1004D300024F82030000C60C025182010000CF14B8
:1004E300025F82010000E014024D82040000CC0C84
:1004F300025182010000E1140A74696D655F656E43
:1005030061626C6572000A74696D65000A646174E6
:10051300650000000A616C61726D0000029982013E
:1005230000003D82025F820100007A1502558203BA
:100533000000D30C0251820100007B15025F82018F
:1005430000008815025782030000D40C0251820177
:1005530000008915025F820100008E150259820393
:100563000000D70C0251820100008F15025F820147
:1005730000009615025B82030000DC0C025182012D
:1005830000009715000000000000000000000000BC
:100593000000000000000000000000000000000058
:1005A3000000000000000000000000000000000048
:1005B3000000000000000000000000000000000038
:1005C3000000000000000000000000000000000028
:1005D3000000000000000000000000000000000018
:1005E3000000000000000000000000000000000008
:1005F30000000000000000000000000000000000F8
:1006030000000000000000000000000000000000E7
:1006130000000000000000000000000000000000D7
:1006230000000000000000000000000000000000C7
:1006330000000000000000000000000000000000B7
:1006430000000000000000000000000000000000A7
:100653000000000000000000000000000000000097
:100663000000000000000000000000000000000087
:100673000000000000000000000000000000000077
:10068300000000000000000000000000FF0000B4B4
:10069300000028002800283075A000A000A000A0BA
:1006A3000000080008E001F0001000100010001026
:1006B300001000100050005000500010001000D037
:1006C300070000000000000F003075070010000154
:1006D3000081FF0000FF260E440E2C0EFF02020ACB
:1006E3000A025000A0000000E80302998201000002
:1006F3003782025F820100005F17025D8201000002
:10070300130D025F82010000601702658201000081
:10071300290D025F820100006117026F820300004E
:100723002B0D025F820100006217027B820300002F
:100733002C0D025F820100006317027F820100001B
:100743006417FF0100FF2002998201000031820239
:100753005F82010000C817028382000000000002CC
:100763004F82030000790D081408140814081408B4
:100773001408140814081408140814081408140896
:100783001484169C167E16120125E8FF0212012519
:10079300EBFF0212012551AC031201258BAC0312AE
:1007A3000125A8AC03120125B9AC031201251FAD25
:1007B30003120125CFDA02120125D9DA021201252B
:1007C30017DB0212012560DB021201259ADB0212FC
:1007D3000125F4DB0212012515DC021201251EDCC2
:1007E300021201256BDC0212012594DC02120125A1
:1007F3009EDC021201250ADD021201259CDD021294
:100803000125E6DD021201251CDE02120125A8DE08
:1008130002120125E9DE0212012520DF0212012561
:1008230032DF0212012551DF021201255ADF0212C3
:10083300012522E0021201255AAB03120125159C62
:10084300031201254B9C03120125819C03120125F0
:10085300CC9D031201257DB10312012593B103122F
:100863000125DDB103120125C4F602120125D9F6D3
:10087300021201258CF702120125CCF70212012581
:10088300E5F70212012520F8021201256DF8021284
:1008930001259FF802120125E1F802120125ECFA65
:1008A3000212012541AD031201256AAD0312012590
:1008B30099AD03120125DBAD03120125F9FA0212EA
:1008C300012554FB0212012571FB02120125A5FC2F
:1008D3000212012519FD02120125F3FD0212012561
:1008E300DDFE02120125069E03120125369E031228
:1008F3000125499E03120125F49E03120125959FAC
:10090300031201253799031201255C99031201256E
:1009130086990312012557A30312012588A3031205
:100923000125A0A303120125C2A303120125B3A429
:10093300031201250DB10312012518B1031201257C
:1009430040B10312012510B00312012558B0031260
:1009530001256CB0031201258CF202120125E8F285
:10096300021201252DF3021201259CF30212012527
:100973001BF402120125F3F402120125A1F5021260
:1009830001253CB203120125519601120125179846
:1009930001120125B699011201256A9A0112012556
:1009A300F49A01120125799B01120125A29B0112E0
:1009B3000125289F01120125A49F01120125D0A022
:1009C300011201250AA1011201254BA101120125E2
:1009D30093A201120125F0A20112012539A30112EC
:1009E30001259DA301120125EBA3011201251AA4E0
:1009F3000112012532A40112012524A501120125AA
:100A03005BA50112012500A60112012517A60112FB
:100A1300012549A601120125F8A70112012585A880
:100A230001120125C4A8011201252CFF0212012580
:100A33003DFF02120125DDFF02120125E5B203127B
:100A4300012524B3031201254CB303120125F7AE8C
:100A53000312012507AF031201251CAF0312012561
:100A630084AF0312012556AA03120125DBAA031240
:100A7300012541AB0312012501A80312012535A865
:100A8300031201255BA803120125D2A80312012535
:100A930087A603120125B0A6031201251BA7031283
:100AA30001256CA703120125C7A703120125768F21
:100AB300031201258D8F03120125079003120125CF
:100AC300EB9003120125C29203120125F3A4031232
:100AD300012545A503120125B8A50312012521A669
:100AE300031201258EFD01120125B8FD0112012516
:100AF30086FE0112012561FF011201258EBE02123D
:100B0300012555BF021201258EBF02120125EEBF3A
:100B13000212012544C002120125A1C002120125BF
:100B230039C10212012548C202120125DFC3021294
:100B330001256CC402120125D3C402120125EAC4A3
:100B4300021201252AC60212012503F00112012512
:100B5300ABF30112012522F50112012572F50112F1
:100B630001258FF5011201250DF6011201252FF83C
:100B730001120125F5FB01120125A9B60212012577
:100B8300C9B80212012591BB021201253BBC021216
:100B93000125A9BC02120125D4BD02120125008042
:100BA3000612012518800612012530800612012540
:100BB3004680061201255C8006120125728006120A
:100BC30001258880061201259E800612012500A0BA
:100BD30006120125F583031201253A840312012528
:100BE300578403120125138503120125718503120E
:100BF3000125558603120125968703120125CF8708
:100C030003120125098803120125268803120125F1
:100C1300A688031201250C8903120125E889031212
:100C23000125808B03120125A4A103120125BBA179
:100C330003120125EAA10312012523A203120125B0
:100C43004BA20312012579A20312012590A20312DC
:100C53000125A7A203120125BDA203120125E4A2C7
:100C630003120125F7A2031201250DA30312012587
:100C730020A30312012545A303120125FDA302129C
:100C83000125FCA40212012531A50212012552A55A
:100C93000212012562A50212012583A50212012574
:100CA3008FA6021201255CA702120125CFA702120B
:100CB300012555A80212012598A802120125CFA8E3
:100CC3000212012555A90212012527AA02120125A4
:100CD30085AA021201259DAA0212012517AB021251
:100CE30001251AAB021201251DAB02120125C4AB6B
:100CF30002120125DCAB021201250CAC0212012504
:100D03002CAC021201251AAD02120125D0AD02123C
:100D1300012543E5021201256BE50212012599E540
:100D230002120125D0E50212012538E6021201253F
:100D330081E602120125CCE6021201250AE702121E
:100D4300012547E70212012575E7021201251CE878
:100D53000212012526E80212012533E802120125B9
:100D630066E80212012528E90212012534E902127C
:100D730001254CE90212012556E90212012520AE94
:100D8300031201252EAE0312012546AE03120125DF
:100D93005EAE03120125C8A90112012566AA01123C
:100DA3000125DEAA01120125F3AB011201252DACA9
:100DB30001120125D6AC01120125ABAD01120125AB
:100DC3000FAF0112012566AF01120125EDAF01122C
:100DD3000125D4B00112012521B101120125AFB1C2
:100DE30001120125D3B101120125A8B30112012576
:100DF300E9B3011201250BB4011201258CB40112D0
:100E0300012576B5011201253CB60112012585CDD8
:100E13000212012557CE0212012500CF021201252D
:100E230043CF02120125D0CF021201255CD002125A
:100E330001253DD1021201256CD10212012568D290
:100E430002120125B0D202120125B2D302120125EA
:100E5300F6D3021201251CD40212012587AF031217
:100E63000125A58B03120125BB8B03120125E18B01
:100E730003120125098D03120125138D0312012588
:100E83006C8E031201256C8F0312012550E00212B0
:100E930001255DE10212012591E102120125D3E151
:100EA300021201258DE3021201254C6E0012012569
:100EB300AF6E00120125F46F0012012504700012B9
:100EC3000125277000120125727000120125177188
:100ED300001201250D7200120125D772001201259F
:100EE3004F74001201259174001201252F75001211
:100EF30001257C7500120125A2750012012590774A
:100F0300001201259577001201257679001201253B
:100F1300CA79001201252C7A00120125547A001295
:100F23000125F87A00120125BA7B00120125EB7B1B
:100F330000120125EE7B00120125367C00120125EB
:100F4300787C00120125DF7C00120125A97D0012A7
:100F53000125BC7D00120125D57D00120125207ECF
:100F630000120125FB7E001201258A7F0012012554
:100F7300D57F001201259026001201259C26001220
:100F83000125D526001201251A2700120125D12794
:100F930000120125572800120125BC280012012543
:100FA300E82800120125212900120125352B001202
:100FB3000125112D00120125FC2E001201253330CD
:100FC300001201259332001201257F3300120125FF
:100FD300C53400120125D23500120125EF35001268
:100FE3000125273600120125413600120125A936B5
:100FF30000120125433B00120125E43B00120125A9
:10100300353C001201255C3C00120125AA3C00126C
:101013000125C83C001201251C3D00120125F53DA8
:10102300001201257C3F0012012504400012012516
:1010330091D4021201259BD40212012562D502121A
:101043000125B1D502120125D5D50212012530D6CD
:101053000212012568D60212012590D6021201253B
:10106300C0D702120125EBD70212012516D80212AE
:10107300012565D8021201257BD802120125C1D8AA
:1010830002120125FBD8021201253DD902120125C6
:1010930085D902120125C1D9021201250FDA0212E4
:1010A300012558DA0212012582DA02120125A7DA94
:1010B30002120125008003120125CA8003120125B3
:1010C300B681031201252C82031201256E820312BD
:1010D30001259B830312012500800212012529802B
:1010E3000212012542800212012587810212012585
:1010F30065820212012584820212012511830212E4
:101103000125548302120125A18402120125408581
:1011130002120125BF8702120125568802120125FA
:101123002A89021201250C8A02120125788B0212E8
:1011330001250B8C0212012541A903120125AAA93D
:1011430003120125FEA90312012525AA0312012575
:10115300EBE90212012558EA02120125A3EA021261
:10116300012598EB0212012594EC021201257EED74
:10117300021201253BAE021201257DAE02120125AA
:1011830057AF0212012530B0021201252BB1021212
:1011930001250AB20212012576B2021201253DB3DE
:1011A30002120125A8B3021201250FB40212012570
:1011B3003AB402120125ABB4021201253EB5021264
:1011C3000125A7B502120125BCB50212012504B6FB
:1011D300021201251DB60212012582B60212012553
:1011E30085B6021201253D96031201256596031269
:1011F3000125A39603120125619703120125CC97BC
:1012030003120125E8970312012510980312012503
:101213004098031201254F9803120125C998031220
:101223000125EF9803120125BED40112012589D6A9
:10123300011201254BD8011201251AD901120125EA
:1012430065D901120125B0D901120125CED90112A8
:10125300012510DA011201252BDA0112012577DAB3
:1012630001120125B1DA01120125D4DA0112012597
:1012730021DB0112012594DB01120125A6DD0112F8
:10128300012550DF01120125A0DF01120125E5E050
:10129300011201253BE101120125A9E101120125FA
:1012A300F4E1011201251EE20112012549E20112B6
:1012B3000125828C02120125AD8C02120125809337
:1012C30002120125A495021201255F97021201253E
:1012D300BC98021201256B4000120125FC4000124C
:1012E30001254241001201258142001201251844C3
:1012F300001201256D4400120125E244001201256C
:101303001146001201256C47001201256E48001298
:101313000125CB4900120125E44900120125414A68
:1013230000120125234B00120125564B0012012503
:10133300C64B00120125404C001201258F4C0012B0
:1013430001255B4D00120125604E001201253F4F20
:1013530000120125CA4F0012012538500012012541
:10136300AC5000120125D5500012012594510012F2
:1013730001250E53001201252B53001201254A5358
:1013830000120125DB530012012500540012012530
:10139300285400120125A35400120125FD54001204
:1013A30001255156001201250E5700120125E15760
:1013B30000120125EFC6011201253FC701120125C5
:1013C3004BC70112012528C80112012558C8011273
:1013D300012590C8011201250FC90112012547C932
:1013E3000112012599C901120125D6C9011201254E
:1013F300FBCB0112012527CE0112012522D00112B8
:101403000125FDD101120125FDFF02120125A08254
:1014130001120125EA8201120125C9880112012561
:101423004A8A01120125A99001120125A4910112F2
:101433000125E19101120125049201120125469231
:10144300011201254F920112012559920112012522
:101453004593011201253994011201250F580012F9
:1014630001258762001201258D6200120125916911
:101473000012012527930312012525940312012548
:101483007B9403120125B9940312012516950312C7
:1014930001259395031201259C9503120125A89517
:1014A30003120125BB9503120125F79503120125AC
:1014B3000D960312012540EE021201254DEE021294
:1014C300012567EE02120125A6EE02120125E4EEC4
:1014D3000212012549EF021201255EEF02120125D6
:1014E30069EF0212012576EF021201258DEF021238
:1014F30001259BEF02120125A6EF02120125B2EF8F
:1015030002120125C1EF02120125CCEF02120125BF
:10151300EFEF0212012598F002120125A8F0021242
:101523000125C2F002120125DFF002120125FBF0B2
:101533000212012520F1021201252AF102120125CE
:101543003EF1021201255DF102120125BEF10212E4
:101553000125C4F102120125CAF102120125D0F1BD
:1015630002120125DCF1021201250FF202120125FC
:1015730079E201120125FBE201120125A4E3011224
:101583000125ECE401120125FAE601120125E0E749
:101593000112012515E80112012537E80112012581
:1015A300E0E801120125B0EA01120125D9EA01128E
:1015B300012551EB0112012583EB0112012590EB6B
:1015C30001120125DBEB01120125FFEB01120125BD
:1015D30050EE011201255AEF01120125B6EF011257
:1015E300012571B80112012582B90112012566BADC
:1015F3000112012570BA0112012592BA01120125C7
:101603009EBA0112012542BC011201256FBC0112D1
:10161300012585BD01120125DABD0112012529BF6E
:1016230001120125FEBF011201255AC00112012535
:10163300C5C001120125FAC0011201253DC10112E5
:10164300012507C4011201251FC401120125B0C4DD
:1016530001120125BEC4011201250BC5011201258A
:1016630019C50112012585C50112012500C6011204
:10167300012557C601120125DF98021201250199A0
:1016830002120125129B02120125D19D021201258E
:10169300FB9E02120125B99F02120125A5A0021289
:1016A3000125EB9F0312012510A00312012586A03B
:1016B3000312012568C60212012571C60212012513
:1016C3007AC60212012552C70212012503C902126A
:1016D300012533C9021201255EC9021201258EC9F3
:1016E30002120125B9C902120125EDC90212012511
:1016F30019CA021201255CCA0212012587CA021205
:101703000125CECA0212012523CB0212012565CB86
:1017130002120125BFCB02120125EACB02120125D9
:1017230039CC0212012569CC0212012594CC021294
:101733000125C2CC02120125E5CC0212012590B08D
:1017430003120125BCB003120125E9B003120125E0
:10175300F3B00312012503B103120125D3FF0112D4
:1017630001252EB303E066701008A3E066700A0833
:10177300A3E066700408A3E06622C3E7960809E7BE
:10178300960809E7960809E79622C3E09608A3E0BE
:101793009608A3E09608A3E09622C008C3E096F556
:1017A3000808A3E096420808A3E096420808A3E0CD
:1017B3009645087001D3D00822080808EAC0E0EB78
:1017C300C0E086F0E7A4FA180986F0E7A42AFA181D
:1017D3000986F0E7A42AFA180986F0E7A42AFA1979
:1017E30086F0E7A4FBE5F02AFA190886F0E7A42BB4
:1017F300FBE5F03AFA190886F0E7A42BFBE5F03A8B
:10180300FA18180986F0E7A4C5F02BFBE43AFA1995
:1018130008E7C5F0C6A426F6E5F03BFBE43AFA1860
:1018230086F0E7A4F6E5F00826F6E43B08F6E43A8A
:1018330008F6D0E0FBD0E0FA22E4CFC0E0E4CEC06B
:10184300E0E4CDC0E0E4CCC0E075F020C3E633F6BD
:1018530008E633F608E633F608E633F6181818EC0C
:1018630033FCED33FDEE33FEEF33FFC3EC9709EDAD
:101873009709EE9709EF97191919400FFFEC97FC99
:1018830009ED97FD09EE97FE191906D5F0BEECF7A1
:1018930009EDF709EEF709EFF7191919D0E0FCD0B4
:1018A300E0FDD0E0FED0E0FF226016080808C6C3C2
:1018B30013C618C613C618C613C618C613C6D5E072
:1018C300EA227009080808226016181818C6C333DC
:1018D300C608C633C608C633C608C633C6D5E0EA4B
:1018E30022E627F60809E637F60809E637F6080977
:1018F300E637F622E026F608A3E036F608A3E0363C
:10190300F608A3E036F622E026F008A3E036F00856
:10191300A3E036F008A3E036F022C3E697F6080901
:10192300E697F60809E697F60809E697F622C3E074
:1019330096F008A3E096F008A3E096F008A3E096DB
:10194300F022E056F608A3E056F608A3E056F608A0
:10195300A3E056F622E056F008A3E056F008A3E011
:1019630056F008A3E056F022E0F608A3E0F608A339
:10197300E0F608A3E0F622E6F008A3E6F008A3E603
:10198300F008A3E6F022E0FAA3E0FBA3E0FCA3E067
:10199300FD22EAF0A3EBF0A3ECF0A3EDF022CAC022
:1019A300E0E6F0A308DAFAD0E0FA22CAC0E0E0A346
:1019B300C582CCC582C583CDC583F0A3C582CCC502
:1019C30082C583CDC583DAE6D0E0CA22C3E498F8A2
:1019D300E499F9121A108026C3E49AFAE49BFBE90E
:1019E30020E7E9121A10E498F8E499F922C3E4987D
:1019F300F8E499F9121A10E498F8E499F9C3E49A0F
:101A0300FAE49BFB22EB20E7CFE920E7E0B90010E3
:101A1300BB0008E88AF084F8AAF022E4FBC8FA22A3
:101A2300EB70227B10C833C8C933C9335007C39A3C
:101A3300C3DBF280069A50012ADBEAC833F4C8C933
:101A430033F4C9FA2275F008E4C833C8C933C9337B
:101A5300C99AC99B5004C92AC93BD5F0ECFBC833CA
:101A6300F4C8E4C9FA22600D08C6A2E713C618C673
:101A730013C6D5E0F322600C08C6C313C618C613F9
:101A8300C6D5E0F422700422600D18C6C333C6081D
:101A9300C633C6D5E0F41822251810AF08F5184050
:101AA3000215198008F51840021519D2AF22C0D0CB
:101AB300251810AF08F518500205198008F51850BD
:101AC300020519D2AFD0D0222518F58210AF08F540
:101AD30018400215198008F51840021519D2AF8570
:101AE3001983222518F582E43519F58322E4732539
:101AF30018C582C0E0E51934FFC583C0E0E518C30B
:101B0300958224F810AF088583198582188008858B
:101B13008319858218D2AFCEF0A3E520F0A378080D
:101B2300E608F0A3DEFAEFF0A3E58124FAF8E6086D
:101B3300F0A3E608F0A3E608F0A30808E608F0A37C
:101B4300E608F0A315811581D0E0FED0E0F81581F9
:101B530015811581E8C0E0EEC0E0222518C582C0DA
:101B6300E0E51934FFC583C0E0E518C3958224F985
:101B730010AF0885831985821880088583198582AB
:101B830018D2AFCEF0A3E520F0A37808E608F0A3BF
:101B9300DEFAEFF0A3E58124FBF8E608F0A3E608FC
:101BA300F0A30808E608F0A3E608F0A31581158161
:101BB300D0E0FED0E0F815811581E8C0E0EEC0E08A
:101BC30022851983851882E0A3FEE0A3F520780817
:101BD300E0A3F608DFFAE0A3FFE0A3C0E0E0A3C0C0
:101BE300E0E0A3C0E0E0A3C0E0E0A3C0E010AF08E2
:101BF3008582188583198008858218858319D2AF59
:101C0300D083D082020122851983851882E0A3FE46
:101C1300E0A3F5207808E0A3F608DFFAE0A3FFE0ED
:101C2300A3C0E0E0A3C0E0E0A3C0E0E0A3C0E010F5
:101C3300AF088582188583198008858218858319E2
:101C4300D2AFD083D08222C0D02518C582C0E0E5B0
:101C53001934FFC583C0E0E518C3958224F310AFA0
:101C6300088583198582188008858319858218D28F
:101C7300AFC8F0A3E9F0A3EAF0A3EBF0A37908E778
:101C830009F0A3D8FAECF0A3EDF0A3EEF0A3EFF084
:101C9300A3D0E0F0A3D0E0F0A3D0E0F0A3E520F0E0
:101CA300A3E5F0F0A322851983851882E0C0E0A3A1
:101CB300E0F9A3E0FAA3E0FBA37808E0F608A3DFCA
:101CC300FAE0FCA3E0FDA3E0FEA3E0FFA3E0C0E095
:101CD300A3E0C0E0A3E0F5D0A3E0F520A3E0A3F5E3
:101CE300F010AF08858319858218800885831985CC
:101CF3008218D2AFD082D083D0E0F8D0E03274041F
:101D03008006740280027401C0E0F404121ACBD07E
:101D1300E01219A1227404800474028000CCC0E094
:101D2300EDC0E0E518C39CCCAD1950011D10AF0602
:101D33008C188D1980068C188D19D2AF1219AED05C
:101D4300E0FDD0E0FC22D083D082E9C0E0E493A39D
:101D5300C386F0C5F095F0F908E493A386F0C5F0C7
:101D630095F0700BE493A3C3994005E9048002A3A3
:101D7300E475F002A42582F582E5F03583F583D07E
:101D8300E0F9E493A3C0E0E493C0E022D083D082DF
:101D9300ECC0E0EDC0E0E493A3FCE493A3FDED4CC1
:101DA300600D121DDBEC24FFFCED34FFFD80EFE43E
:101DB30093A3FCE493A3FDED4C600D121E1AEC24D7
:101DC300FFFCED34FFFD80EFD0E0FDD0E0FCE493B9
:101DD300A3C0E0E493C0E022C0E0C3E49396087498
:101DE30001939618400FE493667008087401936694
:101DF3001870007019A3A3C3E49396087401939613
:101E030018A3A3400DD0E0D0E0D0E0021DCBA3A3E4
:101E1300A3A3A3A3D0E022C0E0C0F088F0E49366BC
:101E230070080874019366187000A8F0A3A3700BE0
:101E3300D0F0D0E0D0E0D0E0021DCBA3A3D0F0D00F
:021E4300E0229B
:101E4800C0E074F2121C4AA2AFE433FED2AFE58BB5
:101E5800A2E05003120AA8758B00C2E8EEA2E09235
:101E6800AF7F01021CA9C0E0C0D0E8C0E0E9C0E033
:101E7800E5A8D2AFC2C7A2E7A2E792AFD0E0F9D0F7
:101E8800E0F8D0D0D0E032C0E074F2121C4AE58904
:101E9800A2E0500312078A758900C2C57F01021C9F
:101EA800A9C0E074F2121C4AE58AA2E250031207A4
:101EB80090758A00C2EB80E443C70812860053C7B6
:101EC800F72274F5121B5EEAFEEBFFEE2434F8EFFE
:101ED8003400F988088909EE2435F582EF3400F5D5
:101EE80083E0F8EE2437F582EF3400F583E0F50A55
:101EF800EC850AF0A4FCAAF0850AF0EDA42AFDE816
:101F08002CF8E43DF97A257B00121A10EA8508823C
:101F1800850983F05407F87401B800028004C333BC
:101F2800D8FCC0E0E0131313541FF8EE28F8EF3480
:101F380000F9E8245DF582E93400F583D0E0F8E0A3
:101F4800586008EE2434F582EF801EEE2436F582C0
:101F5800EF3400F583E0F5F0EA84A8F0EE28F8EF16
:101F68003400F9E82438F582E93400F583E0F97F94
:101F780004021C0A74F5121B5EEAFEEBFFEE243421
:101F8800F582EF3400F583E0C0E0EE2435F582EF0A
:101F98003400F583D0E0F08E828F83A3A3A3A3A39C
:101FA800A3A3C082C0838E828F83A3A3A3A3A3E02D
:101FB800F8A3E0F9D083D082E0C398F508A3E099AC
:101FC800F509EE2480F582EF3400F583E0640170B2
:101FD80047EE2481F582EF3400F583E0FCA3E0FDB1
:101FE8008E828F83A3A3A3A3A3A3A3E0FAA3E0FBFA
:101FF800C3E89AE99B40030220A4C3EA9CEB9D40F6
:10200800177C5C7D0FEEFAEFFB121366EE2480F569
:1020180082EF3400F583E4F0EE2434F8EF3400F96D
:10202800E8FCE9FDEE2435F582EF3400F583E0F8AD
:10203800EE2437F582EF3400F583E0F50AE50885EC
:102048000AF0A4F508AAF0850AF0E509A42AF5091A
:10205800E82508F8E43509F97A257B00121A10EA10
:102068008C828D83F05407F87401B800028004C391
:1020780033D8FCC0E0E0131313541FF8EE28F8EF30
:102088003400F9E8245DF582E93400F583D0E0F8FE
:10209800E0586015EE2434F582EF802BC3E89CE904
:1020A8009D5003022009022002EE2436F582EF3407
:1020B80000F583E0F5F0EA84A8F0EE28F8EF3400A4
:1020C800F9E82438F582E93400F583E0F912267836
:1020D800021F77C082C083851882851983E0F8A320
:1020E800E0F9C3EA9CEB9D500BC3EC98ED994012C4
:1020F80079018010C3EA98EB9940F5C3EC98ED9903
:1021080050EE7900D083D08222EAC39CFAEB9DFB83
:10211800220000008521878522C622C0E0C0D0E8C1
:10212800C0E0E9C0E0EAC0E0EBC0E0ECC0E0EDC030
:10213800E0C008C009C00AC00BC082C083C0F075E7
:102148009B00906182E0A2E64003022201E591A291
:10215800E640030222017591BF900E23E0640570EA
:102168000812149212149E800312149875210012FA
:1021780014F2E9900E24F079001214E61212E27AB1
:10218800017B00900E22E0F912080E907803E064BB
:1021980042600302224A900FBDE014F0600302225D
:1021A8004AC2AF1221AE00782AD0E0F618D0E0F685
:1021B800E59F5407F970059081A480039081A87861
:1021C8000812196BE9C4C0E07829E65508F5080833
:1021D800E65509F509740B7808121A79D0E0250834
:1021E800F8906270E0A2E740F8E8C333906272F0BA
:1021F800906270E0D2E0F08049E0A2E55024E591D9
:10220800A2E5501E7591DF900E23E0640D701390C7
:102218000E45E004F064287002E4F07A00E0F91258
:102228001564906181E0A2E35009E5E9A2E3500357
:1022380075E9F7A3E0A2E75009E591A2E750037515
:10224800917FD0F0D083D082D00BD00AD009D008AB
:10225800D0E0FDD0E0FCD0E0FBD0E0FAD0E0F9D04F
:10226800E0F8D0D0D0E032C0E0C0D0C082C08390C7
:102278006183E0A2E05009E5BFA2E0500375BFFE0C
:10228800E0A2E15009E5BFA2E1500375BFFDE0A25D
:10229800E25009E5BFA2E2500375BFFBE0A2E3509C
:1022A80009E5BFA2E3500375BFF7E0A2E45009E5D2
:1022B800BFA2E4500375BFEFE0A2E55009E5BFA255
:1022C800E5500375BFDFE0A2E65009E5BFA2E6507E
:1022D8000375BFBFD083D0828088C0E0C0D0E8C07B
:1022E800E0E9C0E0EAC0E0EBC0E0ECC0E0EDC0E04F
:1022F800C0F0E5A7A2E6500FE5A1A2E6500953A752
:10230800BF75A1BF122347E5A7A2E5500CE5A1A21E
:10231800E5500653A7DF75A1DFE5A7A2E15009E55F
:10232800A1A2E1500375A1FDE5A7A2E2500CE5A129
:10233800A2E2500653A7FB75A1FBD0F00222587405
:10234800F8121B5E752101900E23E06406701512C9
:1023580014328A828B83A3A3A3A3A3A3E0FAA3E0E6
:10236800FB121480A2AFE433FED2AF900E29E064D2
:102378000170187A207B00900E22E0F912088C7AFE
:10238800207B00900E22E0F9120814906182E0D2BE
:10239800E6F0900FBCE0602185C6228016900E28DA
:1023A800E064017008E5C654F84405F5C653BEFC60
:1023B80012211C7401652160E4EEA2E092AF7F0156
:1023C800021C0A008E238F2485822885832785187E
:1023D80082851983E0CEA3E0CF852882852783EB09
:1023E800C9EAC8EDCBECCA75F010C3E833C8E933C5
:1023F800C9EA33CAEB33CBC3EA9EF526EB9FF52532
:10240800B35004AB25AA26EC33CCED33CDD5F0DAA6
:10241800AE23AF242274F1121B5E8A088B098C0A42
:102428008D0B740F121AE6780C12196B9081CC7808
:10243800081219459081CC780C1219457808790C46
:1024480012177D50157808790C12191D9081E478BF
:102458000812179D401579018013780C7908121914
:102468001D9081E4780C12179D40EB79007F0802DB
:102478001C0A74ED121B5E8A088B098C0A8D0B747A
:1024880013121AE6780C12196B9081CC780812197D
:10249800459081CC780C121945780C790812177D73
:1024A80040117808790C12191DAA08AB09AC0AADBD
:1024B8000B802275100075110075120075130178D4
:1024C80010790C12191D781079081218E4AA10ABAB
:1024D80011AC12AD137F0C021C0A9081CC78081243
:1024E800196B8A828B8378081219587F04021C0A98
:1024F80074F5121B5E8C828D83780812196B8A82A0
:102508008B837808121931EA2404F8EB3400F98C2B
:10251800828D83A3A3A3A3E0FCA3E0FD8882898323
:10252800C3E09CF0A3E09DF088828983C3E09420F7
:10253800A3E0944E4022908210780812196B8A8288
:102548008B83780812190A8A828B83A3A3A3A3E03A
:102558002420F0A3E0344EF0808074F5121B5EE96D
:10256800FE900F72E0FAA3E0FBEEC333F8E433F910
:10257800740828F582748139F583E02AF508A3E008
:102588003BF5097808121D059081E012198912237C
:10259800CC7402121AB18A088B098C0A8D0B74103C
:1025A80078081218ACAA08AB097F04021C0A74F157
:1025B800121B5E8A0C8B0D8C0E8D0F740F121AE68F
:1025C800E0FAA3E0FB7411121AE6E0F508A3E0F5BF
:1025D800097413121AE6E0FEA3E0FF7808121D053D
:1025E800EA2401F508EB3400F509E4F50AF50B785F
:1025F8000C79081217BC908224780812196B780C91
:1026080079081217BCAA0CAB0DAC0EAD0F1223CC77
:102618007402121AB18B09EA450960047A01800232
:102628007A00EC2AFCED3400FDECF8EDF97A717BC8
:1026380002121A1088088909E4F50AF50B8E828FB0
:1026480083780812197AECF8EDF97A717B02121A7C
:10265800108A088B0974057808121A888E828F836D
:10266800A3A3A3A3E508F0A3E509F07F08021C0AC9
:0E267800C082C083E9906000F0D083D082223F
:10268800FFFFFFFFFFFFFFFFC082C083E99017C76E
:10269800F002291474F7121AF2E9900D41F07C79CE
:1026A8007D0D7AFF7BFF121006900D4274FFF0A398
:1026B800F0A3E4F0A3F07905120F8E900D41E0F934
:1026C800120EB67A247B101211EC02362274F41220
:1026D8001AF28A088B09EB54806030900D41E0F9BA
:1026E8001207F68A0A8B0BAE0AAF0BEE4F60138EF9
:1026F800828F83E064B07003120FA6EEFAEFFB122C
:1027080007E4AA08E5096480FB80047A007B0002DC
:1027180028E374F2121AF274FC121A9BEAFEEBFF19
:102728007412121AE6123B09EE4F70030227BD74A9
:1027380002121AE6EEF0A3EF122B1EECF0A3ED1234
:102748002B1EAA82AB83120EB0E9F50A706AE5085F
:10275800450960648E828F83123AEFEE4F60567A95
:10276800067B0012084A8A0C8B0DA80CA90DE849B3
:102778007005750A13804188828983E41227CAEE9E
:10278800F0A3EF123B1AE508F0A3E509F0900D4716
:10279800122851900D4770051235CC801B1235BA9E
:1027A8008003EAFCEBFD8C828D8312285170F38C38
:1027B800828D8380E3750A02A90A7404121AB10291
:1027C8003D09F0A3123AC0A32274F2121AF2890A40
:1027D800E975F017A4FEAFF0900D46E4F0900D44B3
:1027E800122851600A120850900D44E4F0A3F0EE4C
:1027F800FAEFFB12084A8A088B09EA4509602FEEAE
:10280800FCEFFD79001207D2900D44E508F0A3E52E
:1028180009F07B00800812283BE4F0A3F00BEBC31F
:10282800950A40F2E50A900D46F079008002791386
:10283800023D09EB75F017A4F8A9F0900D44E028C3
:10284800FAA3E0398A82F5832212325EEA4B2274B7
:10285800F4121AF2740C121AE6123AE4FEE9FF7541
:102868000800750900800CE5082401F508E509341D
:1028780000F509C3E5089CE5099D503285080A85DD
:10288800090B7403780A121A88EA250AF8EB350B43
:10289800F988828983A3A3A3A3A3A31236A1EE6513
:1028A8000A7003EF650B70BFE8FAE9FB80047A0051
:1028B8007B00802774F4121AF27900EAA2E0501B18
:1028C8007508787509817808121D057C047D007AE1
:1028D800C97B17120F887402121AB17F04021BC435
:1028E800C082C083900D4712291B601C888289838F
:1028F800A3A3E06A7003A3E06B8882898370E8A3CE
:10290800A3A3A312325A80047A007B00D083D0821A
:10291800020122123DEFE8492274EE121AF274FC09
:10292800121A9BEAFEEBFF851882851983E4F0A34F
:10293800F0EE24021235ACEE2405123AC7EE240458
:10294800F50EEF122ED3E024FE603924FC604624F5
:10295800FE605224FE605E24FE7003022A3424FEC8
:102968007003022A9824FE7003022AA724FE70032B
:10297800022AB624FC7003022AC524FE7003022A28
:10298800D4022B11900D607417F0A3E4122B2612B9
:102998000C2E022B11851882851983AC82AD831207
:1029A8000FAC022AE1851882851983AC82AD8312A7
:1029B8000FB2022AE1850C08850D097402121AE685
:1029C800AC82AD8385088285098312325A120ED4EF
:1029D8008A0C8B0DAC0CAD0DEC4D603BE4F50CF5A1
:1029E8000D780C121D05750C60750D0D780C121DF7
:1029F80005750C61750D0D780C121D057408121AF9
:102A0800E6121D1C123F6B121AB1E9F50C700B127D
:102A18003250120C46800F750C0185088285098397
:102A2800122B141235CC850C08022AE47402121AEF
:102A3800E6AC82AD83850C82850D83123025603C1F
:102A4800850C82850D83A3A3121D1C75106075115A
:102A58000D7810121D0575106175110D7810121D75
:102A6800057408121AE6121D1C123F6B121AB1E9FE
:102A7800F509700B123250120C4C800F7509018544
:102A88000C82850D83122B141235CC850908804CD5
:102A9800851882851983AC82AD83120FB8803A8578
:102AA8001882851983AC82AD83120FBE802B8518DE
:102AB80082851983AC82AD83120FC4801C8518826D
:102AC800851983AC82AD83120FCA800D8518828563
:102AD8001983AC82AD83120FD0E9F508E5086029A7
:102AE8008E828F83A3E06414601F850E82850F8316
:102AF800E0900D60122B1E123DEB900D611235CC4B
:102B0800E508A3122B26120C280234BB123DEF85D0
:102B1800188285198322F085188285198322F07C12
:102B2800607D0D850A82850B8312325E2274EE1257
:102B38001AF274FC121A9B8A0A8B0B8C0E8D0FEA00
:102B48002405F508EB3400F5097C157D0079007A39
:102B5800607B0D1207D2E5082402F50CE509123A4C
:102B6800CA85188285198385821085831178101289
:102B78001D05850882850983A3A3A3A312301C120F
:102B88001D05E5082405F510E5093400F511781050
:102B9800121D05850C82850D83123371120ECE74B9
:102BA80006121AB18A108B11AE10AF11E50A240271
:102BB800F50AE50B1235AFEE4F7003022CF38017C0
:102BC8007402121AE612325A88828983EAF0A3EB59
:102BD800F0900D60E004F0900D60E0C394054003B0
:102BE800022CF3E4F510F5117810121D0575104943
:102BF80075110D7810121D0575104A75110D781094
:102C0800121D057406121AE6121D1C7910EEFCEF4F
:102C1800FD123F6D121AB1E9705E8508828509833D
:102C2800A3A3A3A3A3A3A3E0F8900D49E068704869
:102C380012301C121D057C4A7D0DE5082408FAE5B2
:102C4800093400FB1207CC7402121AB1E960298E0C
:102C5800828F83A3A3A3A312325A900D60E0F510CC
:102C680074027810121A8874612510F582740D3573
:102C780011F583EAF0A3EBF07402121AE6858210CC
:102C88008583117810121D057402121AE6121D1C94
:102C9800850C82850D83123280121AB18A108B112D
:102CA800AE10AF11900D60E0F51075110074027848
:102CB80010121A8874602510F8740D3511F988827D
:102CC8008983A31228517003022BBFE82403080844
:102CD80008E93400F9EE4F6003022BC88882898323
:102CE80074FFF0A3F0900D60E004F0900D60E060D8
:102CF8000A123250120C3A7900800B850882850935
:102D0800831235C3790A0234BB74EA121AF274FECC
:102D1800121A9B8C128D13EA2405F50CEB123F5501
:102D2800123AF3750800750900EA2402F510EB342D
:102D380000F51185188285198385820A85830B78A9
:102D48000A121D05850C82850D83A3A3A3A3122E49
:102D5800E9121D05E50C2405F50AE50D1235AF78D5
:102D68000A121D05850C82850D83122EED120ECEDA
:102D78007406121AB18A0A8B0BEA450B7003022EED
:102D88008EEA2404F50EEB122ED3123AF38A828BC4
:102D980083A3A3A3E0F985108285118312326460AE
:102DA80003022E8EE4F514F5157814121D0575141A
:102DB8004975150D7814121D0575144A75150D7889
:102DC80014121D057406121AE6121D1C7913AC0A9A
:102DD800AD0B851082851183123F73121AB1E9F584
:102DE800096003022E8E900D49E0F8E5087009E0AD
:102DF8002402900D61F08014900D61E0FCE824023B
:102E0800FAE43400FBEA6C7001EB707E850882AA54
:102E180082123013941412300B506B850E82850F7A
:102E280083E0C0E074622A122ECAD0E0F00508855B
:102E38000E82850F83A3E0C0E085080A7462250A24
:102E4800122ECAD0E0F00508900D49122EE9121D85
:102E5800057C4A7D0D85080A7462250A122EDD124A
:102E68001AB1900D49E02508F50874FF6E700374D7
:102E7800FF6F6012EE24010EEF3400FFE508C394E3
:102E8800145003022D3BE508601312326E85108240
:102E980085118312325A120C4079008014E50970AA
:102EA8000375090A851282851383EEF0A3EFF0A952
:102EB800097402121AB17F0E021BC485080C7462D1
:102EC800250CF582740D3400F583223400F50F8546
:102ED8000E82F58322FA740D3400FB1207BA7402CD
:102EE80022123B2922A3A3122EF3221235BAFDEE99
:102EF800FAEFFB2274EE121AF274FE121A9B8C0E71
:102F08008D0FEA2405F50CEB123ACA750B00900DEB
:102F180060E4F0F50AEA2402F508EB3400F50980CC
:102F280044900D60E0FA900D49E0F81230139417C0
:102F380012300B400D900D60E0F87416C398900D98
:102F480049F012301C121D057C4A7D0D74612AFA65
:102F5800740D122EE0121AB1900D49E0F8900D6030
:102F6800E028F0050AE50C2416F582E50D122ECEB0
:102F7800E0F8E50AC3985074900D60E0C3941650C9
:102F88006BE50AC333F8E433F9E50C28FEE50D399F
:102F9800FF851882851983AC82AD838E828F831258
:102FA80030257008750B011235BF8050E4F510F517
:102FB800117810121D0575104975110D7810121D24
:102FC8000575104A75110D7810121D057406121A30
:102FD800E6121D1C7916850882850983123F731233
:102FE8001AB1E9F50B7003022F2980BB7C607D0DB7
:102FF80085088285098312325A120C52A90B740271
:103008000234BDE99400C365D03322EA28F8E434D9
:1030180000F9E822E0F5107511007810221234B298
:103028008A108B11AC10AD11EC4D2274EA121AF211
:1030380074FC121A9B8A0C8B0D8C128D13EA2405D2
:10304800F50AEB1235AF750800750900E50A240288
:10305800F510E50B3400F5117402121AE685820E9C
:1030680085830F780E121D05850A82850B83A3A31D
:10307800A3A3123ACF121D05E50A2405F50EE50BA8
:103088003400F50F780E121D058510828511831204
:1030980035B5123254120ECE7406121AB18A0E8B3E
:1030A8000FAE0EAF0FE50C2402F50EE50D3400F55A
:1030B8000F80388882898374FFF00508122EC37444
:1030C800FFF00508900D49E0F50C750D00780C121D
:1030D8001D057C4A7D0D85080C7462250C122EDDB9
:1030E800121AB1900D49E02508F508EE4F60278EB9
:1030F800828F83A3A3A3E0F9850E82850F83123202
:1031080064EE2404123AC7E96027850C82850D8392
:103118001232461235CCE508700302322C12326E98
:10312800850E82850F8312325A120C5879000232AA
:1031380041E4F514F5157814121D05751449751533
:103148000D7814121D0575144A75150D7814121D85
:10315800057408121AE6121D1C7911EEFCEFFD85A4
:103168000E82850F83123F73121AB1E9F509709A1E
:10317800850882AA82EA900D497009E02404900D1E
:1031880061F08025E0F8900D61E0F514E82404FC76
:10319800E43400FDEC65147001ED70811230139475
:1031A8001212300B4003023125850C82850D83E015
:1031B800C0E074622A122ECAD0E0F00508850C829D
:1031C800850D83A3E0C0E0122EC3D0E012328985BA
:1031D800820C85830D780C121D057404121AE612F0
:1031E8001D1C851082851183123280121AB18A0C37
:1031F8008B0DAE0CAF0D85080C7462250CF8740DA0
:103208003400F9EE4F70030230BB851882851983AC
:10321800E088828983123289A3E0C0E0122EC3D0ED
:10322800E00230C9E509700375090A850A82850B31
:10323800831232461235CCA9097404022EBB123D02
:10324800EF851282851383227C607D0D850A828535
:103258000B8312325E22E0FAA3E0FB2212325E12E6
:103268000EBCE9F50922900D61E0F5F0E5088490BF
:103278000D60F07C607D0D22122EF3120EDA7404BC
:1032880022F005088518828519832274EC121AF237
:1032980074FE121A9B8A088B098C0E8D0FEA24057E
:1032A800FEEB3400FF12349CEE2418123AC7EA45AC
:1032B8000B700302333F12348550291233648A108D
:1032C8008B11EA4511606B7912AC0AAD0B85088247
:1032D80085098312325A851082851183121AF0E902
:1032E800F50A7058E4F50AF50B780A121D058E8266
:1032F8008F83A3A3E0F50A780A121D05EE240312B2
:1033080035AC780A121D058E828F83123371120F25
:10331800F47406121AB1E9F50A7021850C82850D3C
:1033280083E0701F85088285098312325A120C5E69
:103338008011750A0E8009750A018004E50A600388
:103348001235BF850C82850D83E060047900800208
:10335800A90A7402121AB17F0C021BC4851882854F
:10336800198312325E120FE2221235BAFD850882E5
:1033780085098312325E2274EE121AF274FE121A52
:103388009B8A088B098C0C8D0DEA2405FEEB340012
:10339800FF750E0012349CEA450B70030234631269
:1033A8003485502C1233648A0E8B0FEA450F604A1D
:1033B8007912AC0AAD0B85088285098312325A85C9
:1033C8000E82850F83121AF0E9F50E600302346647
:1033D8008508828509831236A1AA0AFB1234777000
:1033E800147AFF7BFF123477606C88828983E50A40
:1033F800F0A3E50BF0750A008007750E0E805F05D7
:103408000A900D46E0FAE50AC39A504AE50A75F0B3
:1034180017A4FAABF088828983A3A3E02AFAA3E071
:103428003BFB8A828B831235B5EC4D70D2750A1737
:10343800750B00780A121D05EEFCEFFD1207BA7431
:1034480002121AB1EEFCEFFD85088285098312325B
:103458005A120C648014750E098003750E01123D12
:10346800E7850C82850D831235CCA90E0230061231
:103478000FD68A108B11A810A911E84922E5082453
:1034880002F508E5093400F5098A828B83A3A3A312
:10349800E0A2E522851882851983AC82AD838E82ED
:1034A8008F831234B28A0A8B0B22E0FAA3E0FB1254
:1034B8000ED4227404121AB17F0A021BC474EC12CF
:1034C8001AF28C108D11EA2405F50CEB123ACA7524
:1034D8000F00EA2402F50AEB1235AF850A82F5835C
:1034E80012325A123FF970030235A1750E0080712D
:1034F800850C82850D83E06401704F8E828F83A3D3
:10350800A3121D1C8E828F83A3A3A3A3E0F51275BB
:1035180013007812121D05EE2405F512EF3400F59C
:10352800137812121D05123254120FF47406121A6F
:10353800B1E9F50F6014850C82850D83E4F0123D26
:10354800E78510828511831235CC7C177D007900C0
:10355800EEFAEFFB1207D28E828F83E4F0A3F00518
:103568000E900D46E0F8E50EC398501EE50E75F076
:1035780017A4F8A9F0850882850983A3A3123F5FE1
:103588001235B5EC4D60030234F88508828509834D
:1035980074FFF0A3F0E50F7006123254120C6AA9FA
:1035A8000F02335FF50AEF3400F50B22A31235BA88
:1035B800FD22E0FCA3E0228E828F83123DEF850E70
:1035C80082850F83E8F0A3E9F022C082C083900DC2
:1035D80042E06A7003A3E06B70067A427B0D8004B8
:1035E8007A007B0002291474F7121AF27F00EF7533
:1035F800F003A4F8A9F0EC28F8ED39F9888289835A
:10360800E06A7003A3E06B7006E8FAE9FB800B0F31
:10361800EFC3940240D87A007B007F01021BC47478
:10362800F6121AF2123BD870067A007B008007A3C4
:10363800A3A3A312325A023C9974F2121AF2E9FEB9
:10364800740E121AE61236A17410121AE6123B0909
:103658008C828D83E06402703BA3123DEB888289E3
:1036680083E0F50CA3E0F9A80C74026870037429D0
:10367800697021750C02750D00780C121D0578080B
:10368800121D05780A121D05EEF91210187406129B
:103698001AB180027901023D09E0F50AA3E0F50BB1
:1036A8002274E8121AF274FB121A9BE985188285B3
:1036B8001983F08A168B178C0E8D0F741F121AE659
:1036C800123B097421121AE61236A17423121AE663
:1036D800123AF37510008C828D83A3A3A3E0A2E4B1
:1036E800502A741D121AE612336A8A828B83E58285
:1036F800458370030237B5790AAC0EAD0FAA16AB35
:1037080017121AF0E9F51060030237B8850E8285A2
:103718000F83E064026003023A6EA3123DEB850852
:1037280082850983A3858212858313E50E2406F515
:103738000CE50F123ACA88828983E0FAA3E0F9EA15
:103748002400F514E439F5157814121D8F010000D2
:103758002801287D370700022854380328C4370079
:10376800297E390129A63902294D3903297E3904D0
:10377800290F3A6E3AEE4F703E850C82850D831202
:103788003AE4FAE9FB8A828B83E0850A82850B8317
:10379800123B20121D058A828B83A31235BAFDAA1B
:1037A80008AB091207BA7402121AB1800375100E19
:1037B800A9107405023F4D75100B80F4EE4F70F799
:1037C800850A82850B837401F0123AF9850882858F
:1037D8000983F07C007D00850E82850F83A3A3A357
:1037E800A3E02401FAA3E03400FB120ED4EA4B60F4
:1037F800418A828B83E02402F8850A82850B83E064
:1038080028F0EA2404F8EB3400F988828983E085FB
:103818001282851383123B32123B20121D058A82C5
:103828008B831235B4E5082403FAE5093400FB025A
:1038380037AB850A82850B83E02404F07C047D0085
:103848007900AA12AB131207D20237B8EE4F600301
:103858000237BF123AF9FEA3E0FF850A82850B837F
:103868007404F0EE850882850983F0EF851282855D
:103878001383F07403121AE6AC82AD83EEFAEFFB01
:10388800123BC6700302392A8A828B83A3A3123A99
:10389800EF7401121AE685820E85830F780E121DC9
:1038A800057405121AE6121D1C7CFF7DFF120EDA44
:1038B8007404121AB18B0FEA450F7033850C828598
:1038C8000D83123ACF121D05850C82850D83A31234
:1038D8001D1C7C027D007A637B82120D0674041223
:1038E8001AB1E9700A7401121AE674FFF0A3F08E97
:1038F800828F83E064027034750C02750D00780CB9
:10390800121D058E828F831235B4E5082404FAE56A
:1039180009122EE0121AB1850A82850B83E024026F
:1039280080097401121AE6EEF0A3EFF07401121A7E
:10393800E6123AE0F07401121AE6A3123AD8A3A3E9
:10394800A3F00237B8EE4F60030237BF850C8285BB
:103958000D831235B5AA16AB1712100C850A82858D
:103968000B837402F0EA850882850983F085128248
:10397800851383EB80CBEE4F60030237BF123AF911
:10398800F8A3E0F9850A82850B837402F0E88508BC
:1039980082850983F0E985128285138380A3850CCB
:1039A80082850D8312325A1207B4EAFC8C82A882EF
:1039B800C39EE49F404BE86E7001EF70047C00806A
:1039C8001F851882851983E0FAEE2AFAEF3400FB86
:1039D800C3EA98EB94005003E08004EECCC39CFC4F
:1039E800EC850A82850B83F08C0A750B00780A1225
:1039F8001D05850C82850D83E02EFCA3E03F023770
:103A0800A67510070237B8EE4F60030237BF850C62
:103A180082850D83123DEB850A82850B837407F03E
:103A280088828983123AD8123AC0E08512828513B7
:103A380083F0E82402FAE93400FB8A828B83123A85
:103A4800D8123B11123AE0A3123B1A123AE9F0E8F5
:103A58002405F8E93400F988828983123AE9A31227
:103A68003B32A3023946741D121AE6123BD1700389
:103A78000237B5123DEB880C890DE8450D7003023D
:103A880037B58E108F117810121D05780A121D0592
:103A98007808121D057406121AE6E0F9AC0EAD0F8F
:103AA800AA16AB17850C82850D83121AF0740612BC
:103AB8001AB1E9F5100237B8F088828983A322F594
:103AC8000CEF3400F50D22E0F50E750F00780E228C
:103AD800E085088285098322123B3922123DEFE8EE
:103AE80022123B39A3A322A3A3A3A3E0FEA3E0FFD2
:103AF80022850C82850D83E0F8A3E0F5838882E0B7
:103B080022E0F508A3E0F50922A3A3F08A828B83BB
:103B1800A3221227CCA3A322F08A828B83123B29EB
:103B280022E0F50A750B00780A22123AC0123B39D6
:103B380022E0850882850983A3A32274EE121AF273
:103B480074FE121A9B8A0A8B0BECFAEDFB741412A2
:103B58001AE6E0F510A3E0F5117416121AE6E0FE75
:103B68007418121AE6E0F50EA3E0F50F85188285A1
:103B78001983AC82AD83123BC6603E8518828519D5
:103B880083123BD1602FA3A3123B09E508450960C6
:103B980024780E121D057810121D05EEF9AC0CAD37
:103BA8000DAA0AAB0B850882850983121AF07404E2
:103BB800121AB18006790E80027901023006120EBF
:103BC800D48A0C8B0DEA450D2212325E123BD822A4
:103BD800120FA08A828B83E58245832274F6121A1B
:103BE800F274FE121A9B740C121AE6123AE4851843
:103BF80082851983F07401121AE6E9F0E4F508F5F4
:103C0800097808121D057508027808121D05740444
:103C1800121AE68582088583097808121D05120F95
:103C2800F47406121AB17402121AB1806474F7128D
:103C38001AF2EAFEEBFF89087C797D0D12100CEA76
:103C48005402600BA908EEFAEFFB120EC880027945
:103C58000102362274F6121AF274FF6A700374FFB6
:103C68006B701C7B00EB75F003A4F8A9F0EC28F846
:103C7800ED39F9123C9E0BEBC39402501480E61206
:103C88000FDC8A088B09A808A909E8496003123CD7
:103C98009E7F02021BC48882898374FF1227CAE4AC
:103CA800F02274F6121AF2120FDC8A828B83E582F4
:103CB80045836006A3A3E0FA80027A007B0080D1E6
:103CC80074F2121AF28A088B09ECFEEDFF740E12D8
:103CD8001AE6E0F50A123D0E701CEEFCEFFD7AFFC5
:103CE8007BFF123D0E70047911801688828983E566
:103CF80008F0A3E509F088828983A3A3E50AF0798F
:103D0800007F06021BC4120FDC8A0C8B0DA80CA9BD
:103D18000DE8492274EE121AF2EAFEEBFF8C088DC8
:103D280009890C7412121AE6123DEB7414121AE681
:103D38001235B57416121AE612325A750D00EC4D8A
:103D48006003023DDF7402650C6003023DDA88827D
:103D580089831235BAF9EC2400F50EE439F50FEA37
:103D6800F4F8EBF4F9EC58F8E50F59F9E849705D07
:103D7800E5082406F8E5093400F9880A890B8882E1
:103D8800F583122EEF12100C8A108B11E50E6510B8
:103D98007004E50F65116042780E121D05850A82D0
:103DA800850B83122EEF1210127402121AB1E9F564
:103DB8000D7027780E121D05850882850983A3A337
:103DC800122EED12102A7402121AB1800D750D8090
:103DD8008008750D0D8003750D0BA90D0234C08E7A
:103DE800828F83123DEF22E0F8A3E0F92274E812F3
:103DF8001AF274E7121A9B851882851983EAF0A3D0
:103E0800EBF08C168D17890E7431121AE6E0F51254
:103E1800A3E0F5137433121AE6E0F514A3E0F515E0
:103E28007435121AE6E0F50F750800750900E50902
:103E380075F003A4F8A9F0851882851983123F5FED
:103E4800E0F47003A3E0F47003023F3DEE2402F5B2
:103E58000CEF123F55E07003023F3D85160A8517A7
:103E68000B780A121D05AC14AD15AA12AB13120F6C
:103E7800947402121AB18A0A8B0BEA450B7003027A
:103E88003F3DE4F510F5117810121D057406121A5D
:103E9800E68582108583117810121D057409121A9F
:103EA800E68582108583117810121D05851282859A
:103EB8001383A3A3A3A3121D1C7914AC0AAD0B8E04
:103EC800828F83123F73121AB1E97069850A82855D
:103ED8000B83A3A3A3A3123DEB7402121AE61235B7
:103EE800CC850C82850D83E0A2E05018A90E7402DF
:103EF800121AE6AC82AD838E828F8312325A120E6A
:103F0800ECE94208850C82850D83E0A2E15026E5A4
:103F18000FF50A780A121D09A90E7403121AE6ACE5
:103F280082AD838E828F8312325A120EE67401128A
:103F38001AB1E942080509E509C394025003023E93
:103F480036A9087419121AB17F10021BC43400F57F
:103F58000D850C82F58322E028FEA3E039FF8E82CE
:103F68008F83227916850A82850B8312325E120F9F
:103F7800EE74082274F2121AF2EAFEEBFF890B744F
:103F880001650B600E7402650B7063790112120AE9
:103F9800E9705BEEFAEFFB123FF96047750A0080A3
:103FA8000B7C177D0079001207D2050A900D46E0B8
:103FB800F8E50AC3985021E50A75F017A4F8A9F0A6
:103FC800850882850983A3A3E028FAA3E039FB8A40
:103FD800828B8312291B70C985088285098374FF27
:103FE800F0A3F07C797D0DEEFAEFFB121006023D8E
:103FF80009120FD68A088B09EA45092274F2121AA7
:10400800F28A088B09ECFEEDFF740E121AE61236DE
:10401800A19017C7E0F4603D7A097B001207DEEA39
:104028004B60328A828B8374B1F0A3E4123B13A3F2
:10403800123B11A3E508F0A3E509124060EEF0A3D6
:10404800EF124060A3A3E50AF0A3E50BF09017C7B1
:10405800E0F91207EA023D09F08A828B83A3A3A341
:10406800A3A322C082C0839061907404F0A3744813
:10407800F0A37402F09061807440F09061BC740306
:10408800F09061877419F0906265741BF090619AE2
:104098007433F0A37455F09061A0743AF0900FBA9D
:1040A800E064017009C291900E2774678005900E34
:1040B800277461F090268EE493906186F0902688AC
:1040C800E493F46027E493540FF8906185E0686006
:1040D80012E5C654804449F5C6E59E547F6449708C
:1040E800F8E8F053C680E59E547F70FA79051215FA
:1040F8004602427AC082C083E5A8F853A87E906140
:1041080081E4F0A3F0A3F0C2BA539AFEC289759B6A
:1041180000C2C275E90075910075BF0075A91175D7
:10412800B905906181F0A374C0F0A3E4F0D2BA435A
:104138009A0174805842A802427AC082C08374F8F7
:10414800121A9B900E25E0F8A3E0F9E849700302E3
:104158004270900E25E054406023790885188285C6
:104168001983AA82AB831213C0851882851983AA82
:1041780082AB8312109C900E25E054BFF0E054806F
:104188006010790C7ADE7B0F1213C0900E25E05474
:104198007FF0E0A2E0503190619A7433F0A3745537
:1041A800F09061A0743AF0900FBAE064017009C20F
:1041B80091900E2774678005900E277461F0121095
:1041C800A2900E25E054FEF0E05402603190619A0E
:1041D800743FF0A3745AF09061A0747FF0900FBA06
:1041E800E064017009D291900E2774718005900ED9
:1041F80027746AF01210A2900E25E054FDF0E054E6
:1042080004601390268CE493906186F01210A890B5
:104218000E25E054FBF0E05408601390268DE493DB
:10422800906186F01210A8900E25E054F7F0E05443
:1042380010601390268EE493906186F01210A89077
:104248000E25E054EFF0E05420600A1210A8900EFA
:1042580025E054DFF0A3E05401600D1212EE1210B5
:10426800AE900E26E054FEF07408121AB18003F0E6
:10427800A3F0D083D08202012274EC121AF274F4F3
:10428800121A9B851882851983AC82AD8375838148
:104298007582AC74041219AE90268C93F4600302F4
:1042A800440E907808E0C3940250030243EE74046D
:1042B800121AE6AC82AD8375838175825274081236
:1042C80019AE851882851983858212858313740433
:1042D800121AE6AC82AD83750EFF750FFF7FFF7E65
:1042E80000750C48750D78801574086E70030243CC
:1042F8008174096E7003024381740A6E607B850CB9
:1043080082850D83780812196B8C828D83A909E543
:104318000AC9F88810741878081218ACE51045080E
:10432800F8C3E098A3E099850C82850D837808127C
:10433800196B40188C828D83741878081218ACE5B4
:10434800104508F8E0C398F8A3E0801C74187808B2
:104358001218ACE5104508FAE9FB8C828D83E0F869
:10436800A3E0F9EAC398F8EB99F9C3E8950EE99543
:104378000F5006880E890FEEFF0EE50C2404F50C8D
:10438800E50D3400F50DEEC3941350030242F174A9
:10439800FF650E700474FF650F60238F0874027840
:1043A80008121A8874482508F58274783509F58347
:1043B800780812196B851282851383E508F0EC24BE
:1043C800020C0CED3400FD851282851383A38582CF
:1043D80012858313740C121AE6E5826C7003E58368
:1043E8006D60030242DF7508017509007808121D27
:1043F800057402121AE6AC82AD837AA37B09120A0D
:104408006C7402121AB1740C121AB17F0C021BC41C
:10441800C082C08390618674E1F09061AE7468F0E8
:10442800A3746AF090624574FBF0A304F053F4FDA2
:1044380043FE02900FBA7401F090619A7433F0A3AE
:104448007455F09061A0743AF0740164017009C267
:1044580091900E2774678005900E27746102427947
:104468007F04021BC4C082C08375E1F1900F6FE026
:10447800605514600814605914605180591212FA7A
:10448800900F65E0F97A667B0F1214C89081A0122C
:1044980019891214FE9081B81219891214D4900F38
:1044A80070E0F91214E0790112153A900F63E024D4
:1044B80016F8A3E03400F9888289837412F0A37493
:1044C80013F0790002427A12130080B412130680A6
:1044D800AF12130C80AA791280EA74F4121AF275DA
:1044E800D90D900F55E0A2E0E4331313F8900F654F
:1044F800E0C4333354C0484401F5D97863790F8850
:10450800828983A3A3A3E0F5D988828983A3A8829B
:10451800A983E864697003E9640F70E37855790F3B
:1045280088828983A3E0F5D988828983A3A882A990
:1045380083E8645B7003E9640F70E575E195900F9B
:1045480055E0F97A567B0F1214CE9017E974B2F041
:10455800A37412F0A37408F0A37414F0A37408F001
:10456800A37414F0A37408F0A37414F0A374B8F03F
:10457800A37412F0A37408F0A37414F0A374D0F019
:10458800A37412F09017F77408F0A37414F0A374CE
:1045980008F0A37414F0A37408F0A37414F0A374BF
:1045A80008F0A37414F0A37408F0A37414F0A374AF
:1045B80008F0A37414F0900F63E0F8A3E0F5838883
:1045C80082A3A3780812196B9081B478081218F79F
:1045D8009081CC7808121945900F63E0240EF8A357
:1045E800E03400F988828983780812197A900F6379
:1045F800E02414F8A3E03400F9888289837413F066
:10460800900E237402F0024468C082C083900F7534
:10461800E02407F5D9900F65E0C4333354C0F5D9C9
:104628007863790F88828983A3A3A3E0F5D9888268
:104638008983A3A882A983E864697003E9640F7079
:10464800E3900F75E0601F7863790FFAE82413F59B
:1046580082E93400F583E0F5D988828983A3A882AA
:10466800A9831AEA70E6900F95E02407F5D9900F10
:1046780065E0C4333354C04404F5D97863790F88AE
:10468800828983A3A3A3E0F5D988828983A3A8821A
:10469800A983E864697003E9640F70E3900F95E0FB
:1046A800601F7863790FFAE82433F582E93400F55E
:1046B80083E0F5D988828983A3A882A9831AEA703E
:1046C800E675E1959017E974BEF0A37412F0A3742F
:1046D80008F0A37414F0A37408F0A37414F0A3747E
:1046E80008F0A37414F0A374B8F0A37412F0A374C0
:1046F80008F0A37414F0A374D0F0A37412F0901708
:10470800F77408F0A37414F0A37408F0A37414F0F9
:10471800A37408F0A37414F0A37408F0A37414F03D
:10472800A37408F0A37414F0A37408F0A37414F02D
:10473800908210121989900F63E0240EF8A3E034D8
:1047480000F988828983121995900F63E02414F880
:10475800A3E03400F9888289837412F0900E2374E0
:1047680001024279C082C083900F75E02407F5D911
:10477800900F65E0C4333354C04402F5D9786379A7
:104788000F88828983A3A3A3E0F5D988828983A3AC
:10479800A882A983E864697003E9640F70E3900F45
:1047A80075E0601F7863790FFAE82413F582E9341D
:1047B80000F583E0F5D988828983A3A882A9831AA2
:1047C800EA70E675E1959017E974CAF0A37412F0DF
:1047D800A374CAF0A37412F0A374CAF0A37412F0FD
:1047E800A374CAF0A37412F0A374CAF0A37412F0ED
:1047F800A374CAF0A37412F0A374D0F0A37412F0D7
:104808009017F77408F0A37414F0A37408F0A37455
:1048180014F0A37408F0A37414F0A37408F0A3743C
:1048280014F0A37408F0A37414F0A37408F0A3742C
:1048380014F0908210121989900F63E0240EF8A3E7
:10484800E03400F988828983121995900F63E02477
:1048580014F8A3E03400F9888289837414F0900E68
:10486800237404024279C082C083900F75E0240744
:10487800F5D9900F65E0C4333354C04406F5D978B0
:1048880063790F88828983A3A3A3E0F5D9888289F5
:1048980083A3A882A983E864697003E9640F70E3BD
:1048A800900F75E0601F7863790FFAE82413F5829A
:1048B800E93400F583E0F5D988828983A3A882A921
:1048C800831AEA70E6900F95E02407F5D9900F65F2
:1048D800E0C4333354C04404F5D97863790F88822F
:1048E8008983A3A3A3E0F5D988828983A3A882A991
:1048F80083E864697003E9640F70E3900F95E060E2
:104908001F7863790FFAE82433F582E93400F583D8
:10491800E0F5D988828983A3A882A9831AEA70E678
:1049280075E1959017E974C4F0A37412F0A37408A4
:10493800F0A37414F0A37408F0A37414F0A374081B
:10494800F0A37414F0A37408F0A37414F0A374080B
:10495800F0A37414F0A374D0F0A37412F09017F7B6
:104968007408F0A37414F0A37408F0A37414F0A3EB
:104978007408F0A37414F0A37408F0A37414F0A3DB
:104988007408F0A37414F0A37408F0A37414F090DE
:104998008210121989900F63E0240EF8A3E0340006
:1049A800F988828983121995900F63E02414F8A37B
:1049B800E03400F9888289837415F0900E2374031B
:1049C800024279C082C083900F63E0F8A3E0F583C8
:1049D8008882A3A3A3A3A3A3E402427774F7121ABD
:1049E800F2900E4FE0F875F004A4C8AAF02AF97402
:1049F8005128F8740E39F9E82405FAE93400FB8ADD
:104A0800828B83E0FCA3E0FD88828983A3A3A3A310
:104A1800A3A3A3A3A3ECF0A3EDF088828983A3A3A7
:104A2800A3A3A3A3A3E024FFF8A3E034FFF98A8299
:104A38008B83E8F0A3E9024C8974F7121AF2EAFEB4
:104A4800EBFF9061D0E06003024B1E75D90E75D95B
:104A58000375D904EE248CF582EF3400F583E582E2
:104A68002408F8E5833400F9E0F5D9A3E8658270F5
:104A780003E9658370F2EE2484F582EF3400F58350
:104A8800E5822404F8E5833400F9E0F5D9A3E86564
:104A9800827003E9658370F275E1957908EE248CDC
:104AA800FAEF3400FB1213B47904EE2484FAEF34DD
:104AB80000FB1213B47C00EEF8EFF9ECFAC3E49AA9
:104AC800FA95E0FBEE2AFAEF3BFBEA248BF582EB42
:104AD8003400F583E0C0E0E824ABF582E93400F562
:104AE80083D0E0F00C88828983A3A882A983ECC3D1
:104AF800940840C7EE2470F582EF3400F583E0F89F
:104B0800A3E0F9EE2472F582EF3400F583E8F0A310
:104B1800E9F0790180027900024C8AC082C083756D
:104B2800D90275D90375D90575E195EA2470F5821E
:104B3800EB3400F583E0F8A3E0F9EA2472F582EBA0
:104B48003400F583E8F0A3E9F0790102427A74F6BB
:104B5800121AF2EAFEEBFF900FBE7406F07508BE5B
:104B680075090F7808121D057C0179031213FC746E
:104B780002121AB175D90675D9037582BE75830FED
:104B8800E0F5D9A3E58264C37004E583640F70F08F
:104B980075E195900E23E06408701EEE2470F5828E
:104BA800EF3400F583E0F8A3E0F9EE2472F582EF24
:104BB8003400F583E8F0A3E9F07901024D5674F664
:104BC800121AF2EAFEEBFF9061D0E070667801906D
:104BD8000FBE740BF0900E23E0640770197508BEC1
:104BE80075090F7808121D057C0179031213FC74EE
:104BF80002121AB17805740128F5D975D90375829E
:104C0800BE75830FE8FAE0F5D9A31AEA70F875E1E2
:104C180095EE2470F582EF3400F583E0F8A3E0F90F
:104C2800EE2472F582EF3400F583E8F0A3E9F07919
:104C38000180027900024D5674F7121AF2EAFEEB6F
:104C4800FF75D90375D90375D90DEE24DEF582EF0A
:104C58003400F583E0F5D975E1957904121504EE71
:104C68002470F582EF3400F583E0F8A3E0F9EE2430
:104C780072F582EF3400F583E8F0A3E9F07901805A
:104C880001F07F01021BC474F6121AF2EAFEEBFF70
:104C98009061D0E0F87480C398FAEE2483F582EF2F
:104CA8003400F583E06004780480027800E8240B7F
:104CB800F8EAC3985003024D547D09900FBEEDF0F9
:104CC800EE24E3F8EF3400F97ABF7B0F7C08888282
:104CD8008983E08A828B83F088828983A3A882A94A
:104CE800838A828B83A3AA82AB831CEC70E0EE24B8
:104CF80083F582EF3400F583E0601D7508BE750901
:104D08000F7808121D057C097903EEFAEFFB1213E0
:104D1800FC7402121AB17D0D74012DF5D975D903F1
:104D28007582BE75830F8D08E0F5D9A31508E508CF
:104D380070F675E1957904121504EE241DF582EFDD
:104D48003400F583E4F0A3F07901800279007F0252
:104D5800021BC474F6121AF2EAFEEBFF9061D0E06F
:104D6800F87480C398FAEE2483F582EF3400F58353
:104D7800E06004780480027800E82408F8EAC39820
:104D88005003024E5B7D06900FBE740CF0900E40EF
:104D9800E0900FBFF07A417B0E78C0790F7C028AD1
:104DA800828B83E088828983F08A828B83A3AA829C
:104DB800AB8388828983A3A882A9831CEC70E07ADC
:104DC800437B0E7C028A828B83E088828983F08A07
:104DD800828B83A3AA82AB8388828983A3A882A9B2
:104DE800831CEC70E0EE2483F582EF3400F583E059
:104DF800601D7508BE75090F7808121D057C0679B7
:104E080003EEFAEFFB1213FC7402121AB17D0A7456
:104E1800012DF5D975D9037582BE75830F8D08E00C
:104E2800F5D9A31508E50870F675E195790412150A
:104E380004EE2470F582EF3400F583E0F8A3E0F97E
:104E4800EE2472F582EF3400F583E8F0A3E9F079F7
:104E58000180027900024D5674F6121AF2EAFEEB4E
:104E6800FF9061D0E0F87480C398FAEE2483F5824D
:104E7800EF3400F583E06004780480027800E824C9
:104E880004F8EAC3985003024F3A7802900FBEE83C
:104E9800F0EE24F5F582EF3400F583E0900FBFF0D3
:104EA800EE2483F582EF3400F583E0601B7508BEBD
:104EB80075090F7808121D057C027903EEFA1213A2
:104EC800FC7402121AB17806740128F5D975D90351
:104ED8007582BE75830F8808E0F5D9A31508E50823
:104EE80070F675E195EE2474F582EF3400F583E4ED
:104EF800F0EE2480F582EF3400F583E4F0EE241D13
:104F0800F582EF3400F583E4F0A3F0790412150478
:104F1800EE240DF582EF3400F583E0F8A3E0F9EE16
:104F28002472F582EF3400F583E8F0A3E9F0790103
:104F380080027900024D5674F6121AF29061D0E0A0
:104F4800F87480C398FCEA2483F582EB3400F58377
:104F5800E06004780480027800E82404F8ECC39840
:104F6800405B7902900FBE7407F0EA24F6F582EBF5
:104F78003400F583E0900FBFF0EA2483F582EB3428
:104F880000F583E060187508BE75090F7808121DD2
:104F9800057C02091213FC7402121AB17906740115
:104FA80029F5D975D9037582BE75830FE9F8E0F53F
:104FB800D9A318E870F875E19579018002790002A3
:104FC8004D5674F5121AF2E9FCA2AFE433F50AC2A1
:104FD800AF7D0080010DEA246FF582EB3400F58384
:104FE800E0F8EDC398501A8D08EA2508F8EB34006C
:104FF800F9E8246BF582E93400F583E06C70D6801B
:1050080024EA246FF8EB3400F9E0FEEA2EFAEB34D8
:1050180000FBEA246BF582EB3400F583ECF0888220
:105028008983E004F0E50AA2E092AF7F03021BC483
:1050380074F6121AF2A2AFE433FDC2AFEA246FF598
:1050480082EB3400F583E014F07C0060368C08EACB
:105058002508F8EB3400F9E8246CF582E93400F50A
:1050680083E0C0E0E8246BF582E93400F583D0E002
:10507800F00CEA246FF582EB3400F583E0F8ECC31A
:105088009840CAEA246EF582EB3400F58374FFF089
:10509800EA246AF582EB3400F583E4F0EDA2E092AD
:1050A800AF024D56C082C083E5A8F8C2AFEA246BB0
:1050B800F582EB3400F583E9F0EA246AF582EB34F3
:1050C80000F583E4F0E8A2E792AF02427A74F312A3
:1050D8001AF2EAFEEBFFECFAEDFB8A828B83A3A3BC
:1050E800A3A3E0541FF0EE2436F582EF3400F583D5
:1050F800E4F0F50AEEFCEFFD8A828B83E0C0E0EC79
:10510800245DF582ED3400F583D0E0F0750B00E501
:105118000A33333354F8F50C8A828B83E0F508752B
:105128000900E50B7808121A69E508A2E0502FEE8D
:105138002436F8EF3400F988828983E0F508EE25F3
:1051480008F508EF3400F509E5082438F582E50983
:105158003400F583E50CF088828983E004F0050BC0
:10516800050CE50BC3940840AF050A8A828B83A31C
:10517800AA82AB838C828D83A3AC82AD83E50AC3FC
:10518800940550030251007F05021BC474F7121ADC
:10519800F2900E4DE0640170077A007B0002530B19
:1051A8007E00900E53E070F17401F0A3E4F0A3F0D8
:1051B800900EB304F0900EB6E4F0A3F0900EB9048C
:1051C800F0900E56E4F0A3F0A3F0A3F0900E600464
:1051D800F0900E86E4F090820C121989900E6912F4
:1051E8001995900E6DE4F0A3F0A3F0900ED1F09015
:1051F8000EC5F0900EBA7480F0A3E4F0900EC0F0E3
:10520800900EB8F0900F3CF0A3F0A3F0A3F0A3F039
:10521800A3F0A3F0A3F0900F45F0900ED4F0900FF8
:1052280024F0A3F090820C121989900F2612199578
:1052380090820C121989900F2A121995900F30E458
:10524800F0900F32F0900F2EF0900F48F0A3F0A3DB
:10525800F0A3F0A3F0A3F0A3F0A3F0784D790EE843
:10526800246FF582E93400F58374FFF00E88828993
:1052780083A3A882A983EEC3940440E37A4D7B0EEE
:10528800785C790F88828983E0C0E0EA2461F5823E
:10529800EB3400F583D0E0F088828983A3A882A943
:1052A800838A828B83A3AA82AB83E864617003E953
:1052B800640F70D07A4D7B0E7836790E8882898398
:1052C800A3E0C0E0EA24E7F582EB3400F583D0E000
:1052D800F088828983A3A882A9838A828B83A3AA60
:1052E80082AB83E8643E7003E9640E70CF900E4D84
:1052F800E004F064017008900E55E0900E4FF07ACB
:10530800517B0E024C8AC082C083900E54E4F09008
:105318000E53F0900E4DF0A3F0A374FFF075E1F179
:1053280002427AC082C08378007900900E54E0600F
:10533800047851790E88828983A3A3A3A3E0F90294
:10534800427A74F6121AF2EAFEEBFF8E828F83A37A
:10535800A3A3E0600F8E828F83A3A3A3E4F0900E33
:105368004EE014F0900E4DE014F07006900E4F745D
:10537800FFF08E828F83A3A3E4F0900F61E0700D9D
:10538800900E4EE06401700579001214E6EE246573
:10539800F582EF3400F583E0F8A3E0F9E8496029E5
:1053A800EE2465F8EF3400F9880889098882F583C6
:1053B800E0FCA3E0FD900E4FE0FA7B001210D285CE
:1053C8000882850983E4F0A3F0EEFAEFFB12142CAF
:1053D800024D5674F7121AF2EAFEEBFF8E828F83A3
:1053E800A3A3A3A3E0FA7B00121114EEFAEFFB12B9
:1053F800137E121414024C8AC082C0837836790E48
:1054080088828983A3E4F088828983A3A882A983F8
:10541800E8643E7003E9640E70E6900E3702476751
:1054280074F6121AF2EAFEEBFFEC2403F8ED3400EE
:10543800F988088909EC2407F8ED3400F9E8FCE953
:10544800FD8C828D83E0F8A3E0F9850882850983C5
:10545800E0FAA3E0FB121A10EE240DF582EF3400F7
:10546800F583E8F0A3E9F08C828D83E0F8A3E0F9F6
:10547800850882850983E0FAA3E0FB121A108B09DC
:10548800EA45096013EE240DF582EF3400F583E058
:105498002401F0A3E03400F0024D5674F6121AF21B
:1054A800EAFEEBFFEE242EF582EF3400F583E0FCF4
:1054B800A3E0FD780079FAECFAEDFB121A10EE245D
:1054C80070F582EF3400F583E8F0A3E9F07800790D
:1054D800FAECFAEDFB121A108B09EA45096013EE93
:1054E8002470F582EF3400F583E02401F0A3E03462
:1054F80000F0024D5674F0121AF2EAFEEBFF741037
:10550800121AE6780812196B1214AA8A0C8B0D8CE1
:105518000E8D0F9081D8780C1218F79081CC780CEA
:10552800121945780C121D018E828F83E0F8A3E0D2
:10553800F5838882A3A312198912241D7404121AF0
:10554800B1E9600302564A8E828F83E02402F8A3F1
:10555800E03400F9E8FAE9FB8A828B8378081219AB
:105568000A9081CC780812196B8A828B837808128A
:105578001958EE240BF582EF3400F583C082C083FE
:105588008E828F83A3A3A3A3A3E02401F8A3E0340E
:1055980000F9D083D082E0687003A3E069700579D0
:1055A8000102564C8E828F83A3A3A3A3A3A3A3E0D7
:1055B8002401F0A3E03400F0EE2474F582EF340007
:1055C800F583E064017036EE2475F582EF3400F55A
:1055D80083E0F8A3E0F98E828F83A3A3A3A3A3A3F8
:1055E800A3E0687003A3E0697013EE2475F582EFF9
:1055F8003400F583E02401F0A3E03400F0EE2480C9
:10560800F582EF3400F583E064017036EE2481F50D
:1056180082EF3400F583E0F8A3E0F98E828F83A34C
:10562800A3A3A3A3A3A3E0687003A3E0697013EE88
:105638002481F582EF3400F583E02401F0A3E034FF
:1056480000F079007F08021BC474F7121AF2900E5A
:105658004FE0F875F004A4C8AAF02AF9745128FE9E
:10566800740E39FF8028EE2465F8EF3400F988823B
:105678008983E0FCA3E0FD88828983E4F0A3F08EAF
:10568800828F83A3A3A3A3E0FA7B001210D2EE2497
:1056980065F582EF3400F583E0F8A3E0F9E84960A6
:1056A8004FEE2464F582EF3400F583E0F5087808BE
:1056B800121D09EE2463F582EF3400F583E0F9EE5C
:1056C8002465F582EF3400F583E0FCA3E0FDEEFAF3
:1056D800EFFB1213A87401121AB1E96089EE246570
:1056E800F582EF3400F583E0F8A3E0F9E849701398
:1056F8007C007D008E828F83A3A3A3A3E0FA7B00A6
:105708001210D2024C8A74F2121AF2EAFEEBFF89E6
:105718000A740E121AE6E0FAEE2462F582EF3400FB
:10572800F583E0640160030257DA9061D0E0F87411
:1057380080C398F50CEE2483F582EF3400F583E0FE
:1057480060047804800278008908E928F8E43400C5
:10575800F9E824020808E93400F9E50C98E499A26C
:10576800D265D0334068EA7005750B028003750B6B
:1057780001E060397509007808121D057ABE7B0FB3
:105788001213DE7402121AB17508BE75090F780873
:10579800121D05AC0AA90BEEFAEFFB1213FC7402FA
:1057A800121AB17404250AF50A7CBE7D0F7401250E
:1057B8000AF5D9850BD9E50A600D8C828D83F8E04E
:1057C800F5D9A318E870F875E1957900800679078E
:1057D800800279FF7F06021BC4C082C083E9602073
:1057E8008C828D83E08A828B83F08C828D83A3AC3C
:1057F80082AD838A828B83A3AA82AB8319E970E086
:10580800ECFAEDFB02427A74EA121AF2907803E09D
:105818006442705E900FBDE014F07056C2AF12582B
:105828002900782AD0E0F618D0E0F6E59F5407F969
:1058380070059081A480039081A8780812196BE9FB
:10584800C4C0E07829E65508F50808E65509F509C1
:10585800740B7808121A79D0E02508F8906270E085
:10586800A2E740F8E8C333906272F0906270E0D229
:10587800E0F0900E4FE0F47003025C32E0F875F04F
:1058880004A4C8AAF02AF9745128FE740E39FFEE50
:105898002402F582EF3401F583E0F8A3E0F9E84942
:1058A800601EEE2402F582EF3401F583E0FAA3E0EE
:1058B800FBEE2401F582EF3401F583E0F912080EBE
:1058C8008E828F83A3A3A3A3A3A3A3E0F8A3E0F9E5
:1058D8008E828F83A3A3A3A3A3E8F0A3E9F090602B
:1058E80054E0900E2AF0906055E0900E2BF09060F6
:1058F80056E0900E2CF0906057E0900E2DF09060DE
:1059080058E0900E2EF0906059E0900E2FF09060C5
:105918005AE0900E30F090605BE0900E31F09060AD
:105928005CE0FC900E32F090605DE0FB900E33F08E
:1059380090605EE0FD900E34F090605FE0FA900EAB
:1059480035F0900E30E08C082508F8E43400F98D25
:1059580008E82508F8E93400F98B08E82508F8E98B
:105968003400F98A08E82508FAE93400FBEE24F740
:10597800F582EF3400F583E02AF0A3E03BF08C08D1
:10598800EE24F9F582EF3400F583E02508F0A3E072
:105998003400F0EE24FBF582EF3400F583E02401B7
:1059A800F0A3E03400F0EE24FFF582EF3400F58335
:1059B800E0F8A3E0F9E8496042906000E0C333FCF6
:1059C800E433FDE82CF582E93DF583E02AF0A3E015
:1059D8003BF0906000E0FA900E32E0FCEAC333FA44
:1059E800E433FBE82AF8E93BF9E8244AF582E9348C
:1059F80000F583E02CF0A3E03400F0900E30E07066
:105A080011900E33E0700BA3E07007A3E07003025F
:105A18005B128E828F83A3A3A3A3A3E0F8A3E0F96C
:105A2800EE240DF582EF3400F583E028F8A3E03981
:105A3800F9EE240BF582EF3400F583E8F0A3E9F0E2
:105A4800EE240FF582EF3400F583E4F0EE241CF524
:105A580082EF3400F583E06401701EEE2420F582A5
:105A6800EF3400F583E0F8A3E0F9EE241DF582EFAA
:105A78003400F583E8F0A3E9F0900E2BE06052EED5
:105A8800241CF582EF3400F5837401F0EE246AF5E6
:105A980082EF3400F583E07038EE2474F582EF3439
:105AA80000F583E0702BEE2480F582EF3400F58357
:105AB800E0701EEE2420F582EF3400F583E0F8A3B1
:105AC800E0F9EE241DF582EF3400F583E8F0A3E950
:105AD800F0906062E07003025BC58E828F83E0F80D
:105AE800A3E0F9E82406FCE93400FDE82402FAE919
:105AF8003400FB1214A48E828F83E02412F8A3E0F2
:105B08003400F988828983025BCF900E32E0603AD4
:105B1800EE240FF582EF3400F583E4F0EE241CF553
:105B280082EF3400F583E064017040EE2420F582B2
