:020000040000FA
:0600000002010A02204E7D
:03002B00021D5A59
:03003300021D3477
:030053000220C4C4
:03006B00021D7BF8
:03007B00021D95CE
:10008300021F3FE5C754F84401F5C7790122000078
:100093000080FB120086B900030200F4E4792178A2
:1000A30008B800028004F709D8FCE479297802B87B
:1000B30000028004F709D8FCE49002817840790BB0
:1000C3008002F0A3D8FCD9FA900CC0AA82AB83902B
:1000D300013A780279068015E493A3AC82AD838A52
:1000E300828B83F0A3AA82AB838C828D83D8E9D9D8
:1000F300E77582587583A3740312011C7582917589
:100103008300740012011C75D00075813F7518813E
:10011300751902759F00020096C09FF59FE473D086
:100123009F22D083D082C09FE493C0E0740193C028
:10013300E0740293F59F22FFFF0A4865616420661D
:10014300696C6500000000000000000A436F6465ED
:10015300206461746100000000000000000846692B
:10016300727374436F64654C6F632E000000000A62
:10017300466C61736820436F646520466C61670059
:10018300000A466C617368436F6465536563746901
:100193006F6E000255900100002390024F90010002
:1001A30000C20C0283900300008302024D90010001
:1001B30000C30C024F90030000D40C027D90030097
:1001C300008702024D90010000D50C024F90010000
:1001D30000E60C0267900300009B02024D900100B1
:1001E30000E70C024F90010000F80C02519003004D
:1001F300009D02024D90010000F90C024F90010096
:10020300000A0D0241900300009E02024D9001007E
:10021300000B0D0000000000000000FFFF0A416317
:1002230063656C20456E61626C65000002140041D9
:100233006363656C2052616E6765000010101041A6
:100243006363656C20582D436F6F7264696E6174CC
:10025300650000416363656C20592D436F6F7264C1
:10026300696E6174650000416363656C205A2D43B8
:100273006F6F7264696E61746500000255900100CE
:10028300001D90024F90010000A60D025D90030037
:1002930000BE02024D90010000A70D024F90010025
:1002A30000B50D025F90010000B60D024D900100F4
:1002B30000B80D024F90010000C50D0261900000CF
:1002C30000BF02024B90030000C502024D900100E3
:1002D30000C80D024F90010000C60D02639000009C
:1002E30000C102024B90030000CB02024D900100BB
:1002F30000DC0D024F90010000C70D026590000065
:1003030000C302024B90030000D102024D90010092
:1003130000F00D12640401025590010000269002C2
:100323004F900100009C0E027F900100009D0E0281
:100333004B90030000D902022F900100009E0E0291
:100343000202020202020202010D00000010010279
:1003530055900100002090024F90010000C80E024A
:100363007990010000DF02024F90010000C90E02E4
:1003730077900100003F8F024F90010000CA0E02E8
:100383007590010000238F024F90010000CB0E02F5
:100393007390010000CF8E024F90010000CC0E023B
:1003A3007190010000BD8E024F90010000CD0E023E
:1003B3006F90010000AB8E024F90010000CE0E0241
:1003C3006D90010000E18E024F90010000CF0E02FC
:1003D3006B90010000318F024F90010000D00E029C
:1003E3006990010000D10E01E803053F10FF0001F1
:1003F3003075030201060000000000000000000049
:1004030000000000000000000000000000000000E9
:100413000000FFFF0600800CE8030B094E656F2701
:1004230073206E6F6465051250002003020A0002F8
:1004330001060302F0FF05FF3063706C4E656F2702
:100443007320424C45204E6F64650000000000009D
:1004530000010A0000130A070A190A0A43686172B5
:100463006163746572697374696320310002436860
:100473006172616374657269737469632032000821
:10048300436861726163746572697374696320336D
:1004930000104368617261637465726973746963A0
:1004A3002034000243686172616374657269737416
:1004B30069632035000255900100002C90024F9093
:1004C300010000E40F023390030000DA07024D90AD
:1004D300010000E50F024F90010000F60F02359076
:1004E300010000DB07024D90010000F70F024F905F
:1004F3000100000810023790020000DC07024D9053
:100503000100000910024F900100001A10023990F7
:10051300000000DD07024B90030000DE07024D9050
:100523000100001B10024F900100002C10023B90B1
:10053300040000E407024D900100002D10FF0000AD
:10054300B4000028002800283075A000A000A000F7
:10055300A00000080008E001F000100010001000E7
:100563001000100010005000500050001000100048
:10057300D0070000000000000F00307507001000D6
:10058300010081FF0000FF6B0C890C710CFF02025C
:100593000A0A025000A0000000E80302559001007F
:1005A300002990024F9001000017110249900100A9
:1005B300001A08024F900100001811024790010031
:1005C300003008024F90010000191102459003000A
:1005D300003208024F900100001A110243900300F9
:1005E300003308024F900100001B11023F900100ED
:1005F300001C11FF0100FF200255900100001A901A
:10060300024F90010000801102859000000000005D
:10061300024B900300008008A112A112A112A112A3
:10062300A112A112A112A112A112A112A112A1122F
:10063300A112711589156B15120125E9FF0212012B
:1006430025ECFF02120125F1E9021201252BEA0232
:1006530012012548EA02120125D1EA0212012545B9
:10066300EB0212012523EC0212012509EE0212010D
:10067300257ACD0212012584CD02120125C2CD02B5
:100683001201250BCE0212012545CE021201259F30
:10069300CE02120125C0CE02120125C9CE021201DB
:1006A3002516CF021201253FCF0212012549CF02A1
:1006B300120125B5CF0212012547D002120125915F
:1006C300D002120125C7D00212012553D102120113
:1006D3002594D102120125CBD102120125DDD102CD
:1006E300120125FCD10212012505D202120125CDEA
:1006F300D202120125549C03120125DAFD021201D4
:100703002510FE0212012546FE0212012591FF0269
:1007130012012543A20312012559A203120125A3A5
:10072300A2031201252EEE0212012543EE0212014D
:1007330025F6EE0212012536EF021201254FEF02D4
:100743001201258AEF02120125D7EF0212012509B2
:10075300F0021201254BF00212012556F20212019A
:10076300254B9D03120125749D03120125A39D03AF
:10077300120125E59D03120125ADE50212012508AD
:10078300E60212012525E6021201256AE70212019B
:1007930025DEE702120125B8E802120125A2E902CB
:1007A3001201255591031201258591031201259804
:1007B3009103120125439203120125E492031201CE
:1007C30025DC8903120125018A031201252B8A03E3
:1007D300120125A69603120125D79603120125EFD0
:1007E30096031201251197031201250298031201A2
:1007F30025D3A103120125DEA10312012506A203BD
:10080300120125D6A0031201251EA10312012532D0
:10081300A10312012502A303120125C951001201EC
:10082300258F53001201252E5500120125E2550094
:100833001201256C5600120125F156001201251AEA
:100843005700120125A05A001201251C5B0012015A
:1008530025485C00120125825C00120125C35C005F
:100863001201250B5E00120125685E00120125B1FD
:100873005E00120125155F00120125635F0012015E
:1008830025925F00120125AA5F001201259C6000DA
:10089300120125D360001201257861001201258F12
:1008A3006100120125C1610012012570630012016C
:1008B30025FD63001201253C6400120125019F03FD
:1008C300120125129F03120125B29F03120125ABCA
:1008D300A303120125EAA303120125F4A3031201C2
:1008E30025BD9F03120125CD9F03120125E29F031E
:1008F3001201254AA003120125509B03120125D59D
:100903009B031201253B9C03120125D69903120177
:1009130025FF99031201256A9A03120125BB9A0345
:10092300120125169B0312012529FA021201254003
:10093300FA02120125BAFA021201259EFB021201E4
:100943002575FD021201254298031201259498038F
:10095300120125079903120125709903120125102D
:100963008F031201253A8F03120125089003120108
:1009730025E3900312012539B10212012500B202C9
:1009830012012539B20212012599B202120125EF93
:10099300B2021201254CB302120125E4B302120183
:1009A30025F3B4021201258AB60212012517B702F4
:1009B3001201257EB70212012595B702120125D532
:1009C300B80212012530D901120125D8DC01120128
:1009D300254FDE011201259FDE01120125BCDE0138
:1009E3001201253ADF011201255CE10112012522E2
:1009F300E50112012557A90212012573AB02120169
:100A03002521AE02120125CBAE021201250DB00243
:100A130012012500800612012518800612012530D7
:100A230080061201254680061201255C800612010C
:100A33002572800612012588800612012500A00672
:100A4300120125008003120125458003120125624E
:100A530080031201251881031201256B8103120102
:100A6300254182031201255B8303120125F39403BD
:100A73001201250A950312012539950312012572E6
:100A830095031201259A9503120125C895031201B6
:100A930025DF9503120125F695031201250C960314
:100AA3001201253396031201254696031201255C94
:100AB30096031201256F96031201259496031201E2
:100AC30025828C02120125818D02120125B68D0229
:100AD300120125D78D02120125E78D021201250887
:100AE3008E02120125148F02120125E18F021201D9
:100AF30025549002120125DA90021201251D91025C
:100B0300120125549102120125DA9102120125AC3A
:100B130092021201250A9302120125229302120165
:100B2300259C93021201259F9302120125A2930291
:100B330012012549940212012561940212012591A3
:100B43009402120125B194021201259F950212010C
:100B530025559602120125B0DC02120125D8DC02CC
:100B630012012506DD021201253DDD02120125A534
:100B7300DD02120125EEDD0212012539DE0212012A
:100B83002577DE02120125B4DE02120125E2DE0220
:100B930012012589DF0212012593DF02120125A02C
:100BA300DF02120125D3DF0212012595E0021201B3
:100BB30025A1E002120125B9E002120125C3E002DA
:100BC3001201252A9E03120125389E031201255086
:100BD3009E03120125689E03120125E49F01120161
:100BE3002582A001120125FAA0011201250FA201FD
:100BF30012012549A201120125F2A201120125C702
:100C0300A3011201252BA50112012582A5011201C1
:100C13002509A601120125F0A6011201253DA70110
:100C2300120125CBA701120125EFA701120125C44B
:100C3300A90112012505AA0112012527AA01120102
:100C430025A8AA0112012592AB0112012558AC0176
:100C530012012530C00212012502C102120125AB87
:100C6300C102120125EEC1021201257BC20212014B
:100C73002507C302120125E8C30212012517C40286
:100C830012012513C5021201255BC5021201255D60
:100C9300C602120125A1C602120125C7C60212010E
:100CA300254DA00312012558F6021201256EF60206
:100CB30012012594F602120125BCF702120125C682
:100CC300F7021201251FF9021201251FFA02120170
:100CD30025FBD20212012508D4021201253CD402BD
:100CE3001201257ED40212012538D602120125876E
:100CF3009001120125EA90011201252F92011201A0
:100D0300253F9201120125629201120125AD920144
:100D13001201255293011201254894011201251253
:100D230095011201258A9601120125CC9601120123
:100D3300256A9701120125B79701120125DD970155
:100D4300120125CB9901120125D09901120125B178
:100D53009B01120125059C01120125679C011201CB
:100D6300258F9C01120125339D01120125F59D015B
:100D7300120125269E01120125299E0112012571CA
:100D83009E01120125B39E011201251A9F01120132
:100D930025BA8C03120125CD8C03120125E68C03A1
:100DA300120125318D031201250C8E031201259B9F
:100DB3008E03120125E68E031201255C2400120125
:100DC30025682400120125A12400120125E6240030
:100DD3001201259D250012012523260012012588D5
:100DE3002600120125B42600120125ED260012016A
:100DF30025012900120125DD2A00120125C82C0036
:100E0300120125FF2D001201255F30001201254B31
:100E130031001201259132001201259E3300120187
:100E230025BB3300120125F333001201250D3400D5
:100E33001201257534001201250F3900120125B066
:100E43003900120125013A00120125283A00120146
:100E530025763A00120125943A00120125E83A005A
:100E6300120125C13B00120125483D00120125D086
:100E73003D001201253CC70212012546C70212019B
:100E8300250DC8021201255CC80212012580C80283
:100E9300120125DBC80212012513C9021201253BE9
:100EA300C9021201256BCA0212012596CA02120158
:100EB30025C1CA0212012510CB0212012526CB023D
:100EC3001201256CCB02120125A6CB02120125E8E3
:100ED300CB0212012530CC021201256CCC02120187
:100EE30025BACC0212012503CD021201252DCD0214
:100EF30012012552CD0212012563F2021201252DA2
:100F0300F30212012519F4021201258FF4021201D2
:100F130025D1F402120125FEF502120125008002FB
:100F23001201252980021201254280021201258720
:100F330081021201256582021201258482021201B7
:100F430025118302120125548302120125A1840273
:100F5300120125408502120125BF87021201255681
:100F630088021201252A89021201250C8A02120124
:100F730025788B021201250B8C02120125BFFE017D
:100F830012012528FF011201257CFF01120125A36F
:100F9300FF0112012558E102120125C5E1021201E8
:100FA3002510E20212012505E30212012501E402E4
:100FB300120125EBE402120125887700120125CAEC
:100FC3007700120125A478001201257D7900120112
:100FD30025787A00120125577B00120125C37B0077
:100FE3001201258A7C00120125F57C001201255C83
:100FF3007D00120125877D00120125F87D00120175
:10100300258B7E00120125F47E00120125097F0045
:10101300120125517F001201256A7F00120125CF9D
:101023007F00120125D27F00120125E286031201FF
:10103300250A870312012548870312012506880321
:101043001201257188031201258D8803120125B52C
:101053008803120125E58803120125F48803120190
:10106300256E89031201259489031201258DAE0192
:1010730012012518B001120125B4B1011201257A1C
:10108300B201120125C1B20112012508B3011201F7
:101093002526B30112012568B3011201257EB30190
:1010A300120125CAB30112012502B401120125352B
:1010B300B40112012586B401120125F0B401120115
:1010C30025EAB7011201258CB901120125D2B90114
:1010D30012012509BB0112012566BB01120125DBA3
:1010E300BB011201252FBC011201255CBC011201B9
:1010F3002587BC0112012561A0021201257EA002F1
:101103001201250BA6021201250DA7021201258744
:10111300A80212012535A902120125373E0012014A
:1011230025803E00120125AD3E00120125E03E0060
:10113300120125ED3E00120125F93E001201250B97
:101143003F00120125E03F001201253E400012013D
:10115300257340001201250F420012012549420068
:10116300120125B742001201255C43001201251824
:1011730044001201259744001201255B450012012A
:10118300256A4500120125EB45001201258A460018
:10119300120125BC4600120125574700120125B54F
:1011A3004700120125EF4700120125704800120184
:1011B30025394900120125E24900120125694A0037
:1011C300120125C14A00120125224B001201254BB1
:1011D3004B00120125014C001201254B4D00120159
:1011E300258E4D00120125AB4D00120125CA4D007D
:1011F300120125154E001201253A4E0012012563F6
:101203004E00120125D24E00120125144F00120187
:1012130025185000120125B250001201257E5100FD
:10122300120125975100120125C0960212012513C0
:1012330097021201251F9702120125F4970212014A
:10124300251B9802120125569802120125C2980205
:10125300120125F698021201252F99021201254742
:101263009902120125A09902120125B999021201CE
:1012730025029A02120125159A021201252F9A02BC
:10128300120125459A02120125619B021201257262
:101293009C02120125BF9D02120125A49E02120188
:1012A30025F67F00120125BBE601120125EFE601B9
:1012B3001201255AEA01120125A4EB011201256E40
:1012C300EC01120125F8ED01120125D3EE01120103
:1012D300250DEF0112012530EF0112012572EF01F7
:1012E3001201257BEF01120125C5EF01120125CF64
:1012F300EF011201257BF0011201254FF1011201CB
:1013030025A3F10112012505F20112012558F2016D
:1013130012012587F201120125C6F20112012540AF
:1013230065001201259A6D00120125A06D001201BE
:101333002553730012012539770012012594830385
:101343001201250A84031201252084031201255D5D
:1013530084031201259584031201251285031201CA
:10136300254D8503120125C8850312012504860333
:101373001201250D86031201251986031201253357
:1013830086031201255886031201256E8603120176
:1013930025B28603120125EED70212012501D802D8
:1013A3001201251BD80212012544D80212012587F8
:1013B300D802120125C6D80212012504D90212014E
:1013C3002569D9021201257ED90212012589D90284
:1013D30012012596D902120125ADD902120125BBAE
:1013E300D902120125C6D902120125D2D90212014E
:1013F30025E5D902120125F0D90212012513DA02DB
:10140300120125BCDA02120125CCDA02120125E60B
:10141300DA0212012503DB021201251FDB0212018E
:101423002544DB021201254EDB0212012562DB0299
:1014330012012581DB02120125E2DB02120125E8FC
:10144300DB02120125EEDB02120125F4DB0212019D
:101453002500DC0212012533DC02120125A6CB0193
:1014630012012528CC01120125D1CC011201251925
:10147300CE0112012527D0011201250DD101120140
:101483002542D10112012564D1011201250DD2019A
:10149300120125DDD30112012506D4011201257E97
:1014A300D401120125B0D401120125BDD4011201CA
:1014B3002508D5011201252CD5011201257DD7015F
:1014C30012012587D801120125E3D8011201252332
:1014D300BD0112012534BE0112012518BF011201FD
:1014E3002522BF0112012544BF0112012550BF016E
:1014F300120125F4C00112012521C1011201253772
:10150300C2011201258CC201120125DBC3011201A4
:1015130025B0C4011201250CC50112012577C501AF
:10152300120125ACC501120125EFC501120125B930
:10153300C801120125D1C80112012562C901120196
:101543002570C901120125BDC901120125CBC901AD
:1015530012012537CA01120125B2CA011201250958
:10156300CB01120125A1F301120125C3F3011201DD
:1015730025D4F50112012593F801120125BDF901C6
:101583001201257BFA0112012567FB011201253A9D
:1015930093031201255F9303120125D593031201CF
:1015A3002513B9021201251CB90212012525B9021E
:1015B300120125FDB902120125AEBB02120125DE7F
:1015C300BB0212012509BC0212012539BC0212011A
:1015D3002564BC0212012598BC02120125C4BC0279
:1015E30012012507BD0212012532BD021201257920
:1015F300BD02120125CEBD0212012510BE02120149
:10160300256ABE0212012595BE02120125E4BE021F
:1016130012012514BF021201253FBF021201256DDD
:10162300BF0212012590BF0212012556A103120128
:101633002582A103120125AFA103120125B9A1033C
:10164300120125C9A103120125D4FF01120125CBE3
:10165300FF02E066701008A3E066700A08A3E06664
:10166300700408A3E06622C3E7960809E796080911
:10167300E7960809E79622C3E09608A3E09608A335
:10168300E09608A3E09622C008C3E096F50808A3F5
:10169300E096420808A3E096420808A3E0964508AE
:1016A3007001D3D00822080808EAC0E0EBC0E08646
:1016B300F0E7A4FA180986F0E7A42AFA180986F0D5
:1016C300E7A42AFA180986F0E7A42AFA1986F0E7AC
:1016D300A4FBE5F02AFA190886F0E7A42BFBE5F052
:1016E3003AFA190886F0E7A42BFBE5F03AFA181842
:1016F3000986F0E7A4C5F02BFBE43AFA1908E7C51D
:10170300F0C6A426F6E5F03BFBE43AFA1886F0E7C8
:10171300A4F6E5F00826F6E43B08F6E43A08F6D02A
:10172300E0FBD0E0FA22E4CFC0E0E4CEC0E0E4CDB9
:10173300C0E0E4CCC0E075F020C3E633F608E6333E
:10174300F608E633F608E633F6181818EC33FCED22
:1017530033FDEE33FEEF33FFC3EC9709ED9709EE4C
:101763009709EF97191919400FFFEC97FC09ED97AB
:10177300FD09EE97FE191906D5F0BEECF709EDF752
:1017830009EEF709EFF7191919D0E0FCD0E0FDD005
:10179300E0FED0E0FF226016080808C6C313C6188F
:1017A300C613C618C613C618C613C6D5E0EA2270F8
:1017B30009080808226016181818C6C333C608C6D5
:1017C30033C608C633C608C633C6D5E0EA22E627C1
:1017D300F60809E637F60809E637F60809E637F6A4
:1017E30022E026F608A3E036F608A3E036F608A3BF
:1017F300E036F622E026F008A3E036F008A3E03650
:10180300F008A3E036F022C3E697F60809E697F658
:101813000809E697F60809E697F622C3E096F0086A
:10182300A3E096F008A3E096F008A3E096F022E088
:1018330056F608A3E056F608A3E056F608A3E056CA
:10184300F622E056F008A3E056F008A3E056F008AD
:10185300A3E056F022E0F608A3E0F608A3E0F608BA
:10186300A3E0F622E6F008A3E6F008A3E6F008A357
:10187300E6F022E0FAA3E0FBA3E0FCA3E0FD22EA0A
:10188300F0A3EBF0A3ECF0A3EDF022CAC0E0E6F086
:10189300A308DAFAD0E0FA22CAC0E0E0A3C582CCFA
:1018A300C582C583CDC583F0A3C582CCC582C5835C
:1018B300CDC583DAE6D0E0CA22C3E498F8E499F907
:1018C3001218FD8026C3E49AFAE49BFBE920E7E9BA
:1018D3001218FDE498F8E499F922C3E498F8E4991E
:1018E300F91218FDE498F8E499F9C3E49AFAE49B31
:1018F300FB22EB20E7CFE920E7E0B90010BB0008AB
:10190300E88AF084F8AAF022E4FBC8FA22EB7022FA
:101913007B10C833C8C933C9335007C39AC3DBF23A
:1019230080069A50012ADBEAC833F4C8C933F4C9E4
:10193300FA2275F008E4C833C8C933C933C99AC950
:101943009B5004C92AC93BD5F0ECFBC833F4C8E467
:10195300C9FA22600D08C6A2E713C618C613C6D576
:10196300E0F322600C08C6C313C618C613C6D5E03D
:10197300F422700422600D18C6C333C608C633C6EA
:10198300D5E0F41822251810AF08F51840021519F0
:101993008008F51840021519D2AF22C0D0251810BF
:1019A300AF08F518500205198008F51850020519FB
:1019B300D2AFD0D0222518F58210AF08F518400217
:1019C30015198008F51840021519D2AF851983221D
:1019D3002518F582E43519F58322E4732518C582A9
:1019E300C0E0E51934FFC583C0E0E518C395822440
:1019F300F810AF08858319858218800885831985B7
:101A03008218D2AFCEF0A3E520F0A37808E608F061
:101A1300A3DEFAEFF0A3E58124FAF8E608F0A3E6E3
:101A230008F0A3E608F0A30808E608F0A3E608F028
:101A3300A315811581D0E0FED0E0F815811581153D
:101A430081E8C0E0EEC0E0222518C582C0E0E519B8
:101A530034FFC583C0E0E518C3958224F910AF08AD
:101A63008583198582188008858319858218D2AFEA
:101A7300CEF0A3E520F0A37808E608F0A3DEFAEFA2
:101A8300F0A3E58124FBF8E608F0A3E608F0A30839
:101A930008E608F0A3E608F0A315811581D0E0FE5F
:101AA300D0E0F815811581E8C0E0EEC0E022851989
:101AB30083851882E0A3FEE0A3F5207808E0A3F66F
:101AC30008DFFAE0A3FFE0A3C0E0E0A3C0E0E0A3E7
:101AD300C0E0E0A3C0E0E0A3C0E010AF0885821837
:101AE3008583198008858218858319D2AFD083D066
:101AF30082020122851983851882E0A3FEE0A3F503
:101B0300207808E0A3F608DFFAE0A3FFE0A3C0E033
:101B1300E0A3C0E0E0A3C0E0E0A3C0E010AF08850D
:101B230082188583198008858218858319D2AFD0DE
:101B330083D08222C0D02518C582C0E0E51934FFC6
:101B4300C583C0E0E518C3958224F310AF088583ED
:101B5300198582188008858319858218D2AFC8F049
:101B6300A3E9F0A3EAF0A3EBF0A37908E709F0A354
:101B7300D8FAECF0A3EDF0A3EEF0A3EFF0A3D0E0DE
:101B8300F0A3D0E0F0A3D0E0F0A3E520F0A3E5F0CC
:101B9300F0A322851983851882E0C0E0A3E0F9A3AE
:101BA300E0FAA3E0FBA37808E0F608A3DFFAE0FC81
:101BB300A3E0FDA3E0FEA3E0FFA3E0C0E0A3E0C039
:101BC300E0A3E0F5D0A3E0F520A3E0A3F5F010AF88
:101BD300088583198582188008858319858218D220
:101BE300AFD082D083D0E0F8D0E0327404800674A2
:101BF3000280027401C0E0F4041219B8D0E0121894
:101C03008E227404800474028000CCC0E0EDC0E036
:101C1300E518C39CCCAD1950011D10AF068C188D6F
:101C23001980068C188D19D2AF12189BD0E0FDD005
:101C3300E0FC22D083D082E9C0E0E493A3C386F022
:101C4300C5F095F0F908E493A386F0C5F095F0701C
:101C53000BE493A3C3994005E9048002A3E475F060
:101C630002A42582F582E5F03583F583D0E0F9E41B
:101C730093A3C0E0E493C0E022D083D082ECC0E021
:101C8300EDC0E0E493A3FCE493A3FDED4C600D12DF
:101C93001CC8EC24FFFCED34FFFD80EFE493A3FCB0
:101CA300E493A3FDED4C600D121D07EC24FFFCED46
:101CB30034FFFD80EFD0E0FDD0E0FCE493A3C0E06F
:101CC300E493C0E022C0E0C3E493960874019396C2
:101CD30018400FE493667008087401936618700047
:101CE3007019A3A3C3E49396087401939618A3A34E
:101CF300400DD0E0D0E0D0E0021CB8A3A3A3A3A37F
:101D0300A3D0E022C0E0C0F088F0E4936670080836
:101D130074019366187000A8F0A3A3700BD0F0D0E1
:0F1D2300E0D0E0D0E0021CB8A3A3D0F0D0E022C3
:101D3400C0E074F2121B37A2AFE433FED2AFE58BDE
:101D4400A2E05003120923758B00C2E8EEA2E092D0
:101D5400AF7F01021B96C0E0C0D0E8C0E0E9C0E05C
:101D6400E5A8D2AFC2C7A2E7A2E792AFD0E0F9D00C
:101D7400E0F8D0D0D0E032C0E074F2121B37E5892D
:101D8400A2E0500312063B758900C2C57F01021B05
:101D940096C0E074F2121B37E58AA2E250031206E1
:101DA40041758A00C2EB80E443C70812849753C785
:101DB400F72274F5121A4BEAFEEBFFEE2434F8EF27
:101DC4003400F988088909EE2435121EEEF8EE2451
:101DD40037121EEEF50AEC850AF0A4FCAAF0850A77
:101DE400F0EDA42AFDE82CF8E43DF97A257B0012F5
:101DF40018FDEA850882850983F05407F87401B850
:101E040000028004C333D8FCC0E0E0131313541F52
:101E1400F8EE28F8EF3400F9E8245DF582E934009F
:101E2400F583D0E0F8E0586008850882850983804E
:101E34001DEE2436121EEEF5F0EA84A8F0EE28F822
:101E4400EF3400F9E82438F582E93400F583E0F949
:101E54007F04021AF774F5121A4BEAFEEBFFEE2424
:101E640034121EEEC0E0EE2435F582EF3400F58323
:101E7400D0E0F08E828F83A3A3A3A3A3E0FAA3E010
:101E8400FB8E828F83A3A3A3A3A3A3A3E0FCA3E05D
:101E9400FDECC39AF50AED9BF50BEE2480F508EFF3
:101EA4003400F509850882F583E06401702BEE2483
:101EB40081F582EF3400F583121C09121EF77402B7
:101EC40012199EE960137C637D0AEEFAEFFB12118E
:101ED400CF850882850983E4F0AC0AAD0BEEFAEFF6
:101EE400FB121DB6122444021E54F582EF3400F591
:101EF40083E022C082C083851882851983E0F8A319
:101F0400E0F9C3EA9CEB9D500BC3EC98ED994012A9
:101F140079018010C3EA98EB9940F5C3EC98ED99E8
:101F240050EE7900D083D08222EAC39CFAEB9DFB69
:101F3400220000008521878522C622C0E074EF12AA
:101F44001B37759B00906182E0A2E64003022000EB
:101F5400E591A2E640030220007591BF90092AE0B2
:101F64006405700812136D121379800312137375CC
:101F740021001213DFE990092BF079001213D31218
:101F8400113F7A017B00900929E0F91206CB907881
:101F940003E064426003022049900AC4E014F06044
:101FA40003022049C2AF121FAD00782AD0E0F61810
:101FB400D0E0F6E59F5407F97005908FA680039052
:101FC4008FA27808121858E9C4C0E07829E65508A9
:101FD400F50808E65509F509740B7808121966D056
:101FE400E02508F8906270E0A2E740F8E8C3339077
:101FF4006272F0906270E0D2E0F08049E0A2E550B5
:1020040024E591A2E5501E7591DF90092AE0640D44
:10201400701390094CE004F064287002E4F07A0034
:10202400E0F9121451906181E0A2E35009E5E9A2BC
:10203400E3500375E9F7A3E0A2E75009E591A2E7AD
:10204400500375917F7F04021B96C0E0C0D0C0820C
:10205400C083906183E0A2E05009E5BFA2E0500391
:1020640075BFFEE0A2E15009E5BFA2E1500375BFD0
:10207400FDE0A2E25009E5BFA2E2500375BFFBE018
:10208400A2E35009E5BFA2E3500375BFF7E0A2E461
:102094005009E5BFA2E4500375BFEFE0A2E5500983
:1020A400E5BFA2E5500375BFDFE0A2E65009E5BF36
:1020B400A2E6500375BFBFD083D082D0D0D0E03227
:1020C400C0E074F2121B37E5A7A2E4500FE5A1A209
:1020D400E4500953A7EF75A1EF122118E5A7A2E573
:1020E400500CE5A1A2E5500653A7DF75A1DFE5A7D3
:1020F400A2E15009E5A1A2E1500375A1FDE5A7A263
:10210400E2500CE5A1A2E2500653A7FB75A1FB7FA8
:1021140001021B9674F8121A4B75210190092AE0EA
:10212400640670077A007B00121355A2AFE433FEF5
:10213400D2AF900930E0640170187A207B009009D6
:1021440029E0F91207497A207B00900929E0F91265
:1021540006D1906182E0D2E6F0900AC3E060218566
:10216400C622801690092FE064017008E5C654F871
:102174004405F5C653BEFC121F387401652160E4A2
:10218400EEA2E092AF7F01021AF700008E238F24A3
:10219400858228858327851882851983E0CEA3E06C
:1021A400CF852882852783EBC9EAC8EDCBECCA75B5
:1021B400F010C3E833C8E933C9EA33CAEB33CBC3FD
:1021C400EA9EF526EB9FF525B35004AB25AA26EC31
:1021D40033CCED33CDD5F0DAAE23AF242274F11233
:1021E4001A4B8A088B098C0A8D0B740F1219D37839
:1021F4000C121858908FD67808121832908FD6780F
:102204000C1218327808790C12166A50157808796D
:102214000C12180A908FCE780812168A401579018C
:102224008013780C790812180A908FCE780C121645
:102234008A40EB79007F08021AF774ED121A4B8A70
:10224400088B098C0A8D0B74131219D3780C12188D
:1022540058908FD67808121832908FD6780C1218AE
:1022640032780C790812166A40117808790C121821
:102274000AAA08AB09AC0AAD0B80227510007511CF
:10228400007512007513017810790C12180A781071
:1022940079081217D1AA10AB11AC12AD137F0C023E
:1022A4001AF7908FD678081218588A828B83780888
:1022B4001218457F04021AF774F5121A4B8C828D9A
:1022C4008378081218588A828B83780812181E1291
:1022D4002310C3E098F0A3E099122302401E908FCC
:1022E400E278081218588A828B8378081217F78EBE
:1022F400828F83E02420F0A3E0344EF080A4F08E9B
:10230400828F83C3E09420A3E0944E22EA2404F84D
:10231400EB3400F9E8FEE9FF8C828D83A3A3A3A329
:10232400E0F8A3E0F98E828F832274F5121A4BE948
:10233400FE900A79E0FAA3E0FBEEC333F8E433F944
:10234400741328F582748F39F583E02AF508A3E025
:102354003BF5097808121BF2908FD21218761221DD
:1023640090740212199E8A088B098C0A8D0B7410C2
:102374007808121799AA08AB097F04021AF774F1B6
:10238400121A4B8A0C8B0D8C0E8D0F740F1219D3ED
:10239400E0FAA3E0FB74111219D3E0F508A3E0F509
:1023A4000974131219D3E0FEA3E0FF7808121BF29C
:1023B400EA2401F508EB3400F509E4F50AF50B7895
:1023C4000C79081216A9908FE67808121858780C20
:1023D40079081216A9AA0CAB0DAC0EAD0F12219000
:1023E400740212199E8B09EA450960047A0180027D
:1023F4007A00EC2AFCED3400FDECF8EDF97A717BFF
:10240400021218FD88088909E4F50AF50B8E828FFB
:10241400837808121867ECF8EDF97A717B021218C8
:10242400FD8A088B09740578081219758E828F83CA
:10243400A3A3A3A3E508F0A3E509F07F08021AF714
:0E244400C082C083E9906000F0D083D0822275
:10245400FFFFFFFFFFFFFFFFC082C083E990117FF2
:10246400F00226E074F71219DFE9900848F07C8046
:102474007D087AFF7BFF120E4B90084974FFF0A38E
:10248400F0A3E4F0A3F07905120DD3900848E0F925
:10249400120CFB7A697B0E1210310233EE74F412C3
:1024A40019DF8A088B09EB54806030900848E0F902
:1024B4001206B38A0A8B0BAE0AAF0BEE4F60138E73
:1024C400828F83E064B07003120DEBEEFAEFFB121F
:1024D40006A1AA08E5096480FB80047A007B000257
:1024E40026AF74F21219DF74FC121988EAFEEBFFAE
:1024F40074121219D31238D5EE4F70030225897461
:10250400021219D3EEF0A3EF1228EAECF0A3ED12B5
:1025140028EAAA82AB83120CF5E9F50A706AE50889
:10252400450960648E828F831238BBEE4F60567A01
:10253400067B001207078A0C8B0DA80CA90DE8492D
:102544007005750A13804188828983E4122596EE0A
:10255400F0A3EF1238E6E508F0A3E509F090084E81
:1025640012261D90084E7005123398801B12338674
:102574008003EAFCEBFD8C828D8312261D70F38CA4
:10258400828D8380E3750A02A90A740412199E02DB
:102594003AD5F0A312388CA32274F21219DF890AF7
:1025A400E975F017A4FEAFF090084DE4F090084BE5
:1025B40012261D600A12070D90084BE4F0A3F0EEFA
:1025C400FAEFFB1207078A088B09EA4509602FEE28
:1025D400FCEFFD790012068F90084BE508F0A3E5A7
:1025E40009F07B008008122607E4F0A3F00BEBC38C
:1025F400950A40F2E50A90084DF0790080027913BB
:10260400023AD5EB75F017A4F8A9F090084BE0282E
:10261400FAA3E0398A82F5832212302AEA4B227423
:10262400F41219DF740C1219D31238B0FEE9FF75D5
:102634000800750900800CE5082401F508E5093453
:1026440000F509C3E5089CE5099D503285080A8513
:10265400090B7403780A121975EA250AF8EB350B8D
:10266400F988828983A3A3A3A3A3A312346DEE657F
:102674000A7003EF650B70BFE8FAE9FB80047A0087
:102684007B00802774F41219DF7900EAA2E0501B62
:1026940075086675098F7808121BF27C047D007A30
:1026A400817B11120DCD740212199E7F04021AB19E
:1026B400C082C08390084E1226E7601C88828983FA
:1026C400A3A3E06A7003A3E06B8882898370E8A304
:1026D400A3A3A312302680047A007B00D083D08287
:1026E400020122123BBBE8492274EE1219DF74FC8A
:1026F400121988EAFEEBFF851882851983E4F0A39A
:10270400F0EE2402123378EE2405123893EE2404FA
:10271400F50EEF122C9FE024FE603924FC60462461
:10272400FE605224FE605E24FE700302280024FE34
:10273400700302286424FE700302287324FE7003CD
:1027440002288224FC700302289124FE70030228CC
:10275400A00228DD9008677417F0A3E41228F2128F
:102764000A730228DD851882851983AC82AD831231
:102774000DF10228AD851882851983AC82AD8312D0
:102784000DF70228AD850C08850D0974021219D3C2
:10279400AC82AD83850882850983123026120D1917
:1027A4008A0C8B0DAC0CAD0DEC4D603BE4F50CF5D7
:1027B4000D780C121BF2750C67750D08780C121B42
:1027C400F2750C68750D08780C121BF27408121956
:1027D400D3121C09123D3712199EE9F50C700B1225
:1027E400301C120A8B800F750C01850882850983C1
:1027F4001228E0123398850C080228B074021219CA
:10280400D3AC82AD83850C82850D83122DF1603C9F
:10281400850C82850D83A3A3121C0975106775119D
:10282400087810121BF27510687511087810121BC5
:10283400F274081219D3121C09123D3712199EE9B9
:10284400F509700B12301C120A91800F750901856D
:102854000C82850D831228E0123398850908804C78
:10286400851882851983AC82AD83120DFD803A856B
:102874001882851983AC82AD83120E03802B8518D0
:1028840082851983AC82AD83120E09801C8518825F
:10289400851983AC82AD83120E0F800D8518828555
:1028A4001983AC82AD83120E15E9F508E508602999
:1028B4008E828F83A3E06414601F850E82850F834C
:1028C400E09008671228EA123BB790086812339820
:1028D400E508A31228F2120A6D023287123BBB8567
:1028E400188285198322F085188285198322F07C49
:1028F400677D08850A82850B8312302A2274EE12C2
:1029040019DF74FC1219888A0A8B0B8C0E8D0FEA5E
:102914002405F508EB3400F5097C157D0079007A6F
:10292400677B0812068FE5082402F50CE5091238C6
:1029340096851882851983858210858311781012F3
:102944001BF2850882850983A3A3A3A3122DE81291
:102954001BF2E5082405F510E5093400F51178109B
:10296400121BF2850C82850D8312313D120D1374F6
:102974000612199E8A108B11AE10AF11E50A2402BB
:10298400F50AE50B12337BEE4F7003022ABF801762
:1029940074021219D312302688828983EAF0A3EBD9
:1029A400F0900867E004F0900867E0C394054003E2
:1029B400022ABFE4F510F5117810121BF2751050BD
:1029C4007511087810121BF27510517511087810E2
:1029D400121BF274061219D3121C097910EEFCEFC3
:1029E400FD123D3912199EE9705E850882850983BE
:1029F400A3A3A3A3A3A3A3E0F8900850E06870489E
:102A0400122DE8121BF27C517D08E5082408FAE532
:102A1400093400FB120689740212199EE960298E9A
:102A2400828F83A3A3A3A3123026900867E0F51036
:102A34007402781012197574682510F582740835BB
:102A440011F583EAF0A3EBF074021219D385821016
:102A54008583117810121BF274021219D3121C0907
:102A6400850C82850D8312304C12199E8A108B11AD
:102A7400AE10AF11900867E0F5107511007402787C
:102A84001012197574672510F874083511F98882C5
:102A94008983A312261D700302298BE824030808E6
:102AA40008E93400F9EE4F6003022994888289838F
:102AB40074FFF0A3F0900867E004F0900867E0600A
:102AC4000A12301C120A7F7900800B85088285095E
:102AD4008312338F790A02328774EA1219DF74FE83
:102AE4001219888C128D13EA2405F50CEB123D2182
:102AF4001238BF750800750900EA2402F510EB349A
:102B040000F51185188285198385820A85830B78DF
:102B14000A121BF2850C82850D83A3A3A3A3122C96
:102B2400B5121BF2E50C2405F50AE50D12337B788A
:102B34000A121BF2850C82850D83122CB9120D1317
:102B4400740612199E8A0A8B0BEA450B7003022C39
:102B54005AEA2404F50EEB122C9F1238BF8A828B9A
:102B640083A3A3A3E0F9851082851183123030601A
:102B740003022C5AE4F514F5157814121BF275149B
:102B8400507515087814121BF275145175150878D0
:102B940014121BF274061219D3121C097913AC0A0D
:102BA400AD0B851082851183123D3F12199EE9F504
:102BB400096003022C5A900850E0F8E5087009E017
:102BC4002402900868F08014900868E0FCE824026D
:102BD400FAE43400FBEA6C7001EB707E850882AA8B
:102BE40082122DDF9414122DD7506B850E82850F1F
:102BF40083E0C0E074692A122C96D0E0F0050885C1
:102C04000E82850F83A3E0C0E085080A7469250A53
:102C1400122C96D0E0F00508900850122CB5121B27
:102C2400F27C517D0885080A7469250A122CA912C0
:102C3400199E900850E02508F50874FF6E7003741F
:102C4400FF6F6012EE24010EEF3400FFE508C39419
:102C5400145003022B07E508601312303A851082E2
:102C6400851183123026120A8579008014E50970D3
:102C74000375090A851282851383EEF0A3EFF0A988
:102C840009740212199E7F0E021AB185080C746928
:102C9400250CF58274083400F583223400F50F8581
:102CA4000E82F58322FA74083400FB12067774024C
:102CB400221238F522A3A3122CBF22123386FDEE72
:102CC400FAEFFB2274EE1219DF74FE1219888C0ECF
:102CD4008D0FEA2405F50CEB123896750B0090085D
:102CE40067E4F0F50AEA2402F508EB3400F50980FC
:102CF40044900867E0FA900850E0F8122DDF94172A
:102D0400122DD7400D900867E0F87416C398900808
:102D140050F0122DE8121BF27C517D0874682AFAD7
:102D24007408122CAC12199E900850E0F8900867B1
:102D3400E028F0050AE50C2416F582E50D122C9A1C
:102D4400E0F8E50AC3985074900867E0C3941650FD
:102D54006BE50AC333F8E433F9E50C28FEE50D39D5
:102D6400FF851882851983AC82AD838E828F83128E
:102D74002DF17008750B0112338B8050E4F510F5BA
:102D8400117810121BF27510507511087810121B6F
:102D9400F27510517511087810121BF2740612198D
:102DA400D3121C097916850882850983123D3F12C6
:102DB400199EE9F50B7003022CF580BB7C677D0836
:102DC400850882850983123026120A97A90B74029A
:102DD400023289E99400C365D03322EA28F8E43446
:102DE40000F9E822E0F51075110078102212327E05
:102DF4008A108B11AC10AD11EC4D2274EA1219DF5C
:102E040074FC1219888A0C8B0D8C128D13EA24051C
:102E1400F50AEB12337B750800750900E50A2402F4
:102E2400F510E50B3400F51174021219D385820EE6
:102E340085830F780E121BF2850A82850B83A3A368
:102E4400A3A312389B121BF2E50A2405F50EE50B29
:102E54003400F50F780E121BF2851082851183124F
:102E64003381123020120D13740612199E8A0E8BB0
:102E74000FAE0EAF0FE50C2402F50EE50D3400F590
:102E84000F80388882898374FFF00508122C8F74B0
:102E9400FFF00508900850E0F50C750D00780C1251
:102EA4001BF27C517D0885080C7469250C122CA931
:102EB40012199E900850E02508F508EE4F60278E01
:102EC400828F83A3A3A3E0F9850E82850F8312303A
:102ED40030EE2404123893E96027850C82850D8333
:102EE400123012123398E5087003022FF812303AA8
:102EF400850E82850F83123026120A9D79000230D6
:102F04000DE4F514F5157814121BF27514507515AB
:102F1400087814121BF27514517515087814121BD5
:102F2400F274081219D3121C097911EEFCEFFD8515
:102F34000E82850F83123D3F12199EE9F509709A9E
:102F4400850882AA82EA9008507009E02404900857
:102F540068F08025E0F8900868E0F514E82404FCA3
:102F6400E43400FDEC65147001ED7081122DDF94E2
:102F740012122DD74003022EF1850C82850D83E0B9
:102F8400C0E074692A122C96D0E0F00508850C8202
:102F9400850D83A3E0C0E0122C8FD0E0123055855C
:102FA400820C85830D780C121BF274041219D3124F
:102FB4001C0985108285118312304C12199E8A0CCB
:102FC4008B0DAE0CAF0D85080C7469250CF87408D4
:102FD4003400F9EE4F7003022E8785188285198319
:102FE400E088828983123055A3E0C0E0122C8FD090
:102FF400E0022E95E509700375090A850A82850B9E
:1030040083123012123398A9097404022C87123BDC
:10301400BB851282851383227C677D08850A82859D
:103024000B8312302A22E0FAA3E0FB2212302A1288
:103034000D01E9F50922900868E0F5F0E5088490AF
:103044000867F07C677D0822122CBF120D1F7404E0
:1030540022F005088518828519832274EC1219DF81
:1030640074FE1219888A088B098C0E8D0FEA2405C8
:10307400FEEB3400FF123268EE2418123893EA454E
:103084000B700302310B12325150291231308A1065
:103094008B11EA4511606B7912AC0AAD0B8508827D
:1030A4008509831230268510828511831219DDE982
:1030B400F50A7058E4F50AF50B780A121BF28E82B1
:1030C4008F83A3A3E0F50A780A121BF2EE240312FD
:1030D4003378780A121BF28E828F8312313D120EDE
:1030E40039740612199EE9F50A7021850C82850D42
:1030F40083E0701F850882850983123026120AA393
:103104008011750A0E8009750A018004E50A6003BE
:1031140012338B850C82850D83E060047900800274
:10312400A90A740212199E7F0C021AB185188285AD
:10313400198312302A120E2722123386FD85088243
:1031440085098312302A2274EE1219DF74FE1219D3
:10315400888A088B098C0C8D0DEA2405FEEB34005B
:10316400FF750E00123268EA450B700302322F120B
:103174003251502C1231308A0E8B0FEA450F604ABF
:103184007912AC0AAD0B8508828509831230268535
:103194000E82850F831219DDE9F50E6003023232C7
:1031A40085088285098312346DAA0AFB12324370A2
:1031B400147AFF7BFF123243606C88828983E50AAC
:1031C400F0A3E50BF0750A008007750E0E805F050D
:1031D4000A90084DE0FAE50AC39A504AE50A75F0E8
:1031E40017A4FAABF088828983A3A3E02AFAA3E0A8
:1031F4003BFB8A828B83123381EC4D70D2750A17A4
:10320400750B00780A121BF2EEFCEFFD12067774C0
:103214000212199EEEFCEFFD8508828509831230A7
:1032240026120AA98014750E098003750E01123B3B
:10323400B3850C82850D83123398A90E022DD21208
:103244000E1B8A108B11A810A911E84922E5082445
:1032540002F508E5093400F5098A828B83A3A3A348
:10326400E0A2E522851882851983AC82AD838E8223
:103274008F8312327E8A0A8B0B22E0FAA3E0FB12C0
:103284000D1922740412199E7F0A021AB174EC12E9
:1032940019DF8C108D11EA2405F50CEB12389675A4
:1032A4000F00EA2402F50AEB12337B850A82F583C8
:1032B400123026123DC5700302336D750E00807105
:1032C400850C82850D83E06401704F8E828F83A309
:1032D400A3121C098E828F83A3A3A3A3E0F5127506
:1032E40013007812121BF2EE2405F512EF3400F5E8
:1032F400137812121BF2123020120E3974061219AE
:103304009EE9F50F6014850C82850D83E4F0123B71
:10331400B38510828511831233987C177D00790060
:10332400EEFAEFFB12068F8E828F83E4F0A3F00592
:103334000E90084DE0F8E50EC398501EE50E75F0AA
:1033440017A4F8A9F0850882850983A3A3123D2B4D
:10335400123381EC4D60030232C4850882850983EF
:1033640074FFF0A3F0E50F7006123020120AAFA923
:103374000F02312BF50AEF3400F50B22A31233862A
:10338400FD22E0FCA3E0228E828F83123BBB850EDC
:1033940082850F83E8F0A3E9F022C082C0839008FD
:1033A40049E06A7003A3E06B70067A497B088004E5
:1033B4007A007B000226E074F71219DF7F00EF75B4
:1033C400F003A4F8A9F0EC28F8ED39F98882898390
:1033D400E06A7003A3E06B7006E8FAE9FB800B0F68
:1033E400EFC3940240D87A007B007F01021AB174C3
:1033F400F61219DF1239A470067A007B008007A345
:10340400A3A3A3123026023A6574F21219DFE9FE6F
:10341400740E1219D312346D74101219D31238D5D4
:103424008C828D83E06402703BA3123BB78882894F
:1034340083E0F50CA3E0F9A80C7402687003742906
:10344400697021750C02750D00780C121BF2780856
:10345400121BF2780A121BF2EEF9120E5D740612B8
:10346400199E80027901023AD5E0F50AA3E0F50B32
:103474002274E81219DF74FB121988E98518828511
:103484001983F08A168B178C0E8D0F741F1219D3A3
:103494001238D574211219D312346D74231219D32E
:1034A4001238BF7510008C828D83A3A3A3E0A2E41D
:1034B400502A741D1219D31231368A828B83E58205
:1034C40045837003023581790AAC0EAD0FAA16ABA1
:1034D400171219DDE9F5106003023584850E828523
:1034E4000F83E06402600302383AA3123BB78508F5
:1034F40082850983A3858212858313E50E2406F54C
:103504000CE50F12389688828983E0FAA3E0F9EA81
:103514002400F514E439F5157814121C7C0100001C
:103524002801284935070002282036032890350051
:10353400294A37012972370229193703294A3704DE
:1035440029DB373A38EE4F703E850C82850D8312A5
:1035540038B0FAE9FB8A828B83E0850A82850B8383
:103564001238EC121BF28A828B83A3123386FDAAD3
:1035740008AB09120677740212199E800375100EA7
:10358400A9107405023D1975100B80F4EE4F70F705
:10359400850A82850B837401F01238C585088285FB
:1035A4000983F07C007D00850E82850F83A3A3A38D
:1035B400A3E02401FAA3E03400FB120D19EA4B60E6
:1035C400418A828B83E02402F8850A82850B83E09A
:1035D40028F0EA2404F8EB3400F988828983E08532
:1035E40012828513831238FE1238EC121BF28A827F
:1035F4008B83123380E5082403FAE5093400FB02C7
:103604003577850A82850B83E02404F07C047D00F1
:103614007900AA12AB1312068F023584EE4F6003B1
:1036240002358B1238C5FEA3E0FF850A82850B8321
:103634007404F0EE850882850983F0EF8512828593
:103644001383F074031219D3AC82AD83EEFAEFFB4B
:1036540012399270030236F68A828B83A3A312383E
:10366400BB74011219D385820E85830F780E121B49
:10367400F274051219D3121C097CFF7DFF120D1F71
:10368400740412199E8B0FEA450F7033850C8285E2
:103694000D8312389B121BF2850C82850D83A312B5
:1036A4001C097C027D007A537B90120B4B7404122C
:1036B400199EE9700A74011219D374FFF0A3F08EF5
:1036C400828F83E064027034750C02750D00780CEF
:1036D400121BF28E828F83123380E5082404FAE5EC
:1036E40009122CAC12199E850A82850B83E02402F0
:1036F400800974011219D3EEF0A3EFF074011219CA
:10370400D31238ACF074011219D3A31238A4A3A3B2
:10371400A3F0023584EE4F600302358B850C82855D
:103724000D83123381AA16AB17120E51850A8285B6
:103734000B837402F0EA850882850983F08512827E
:10374400851383EB80CBEE4F600302358B1238C5B3
:10375400F8A3E0F9850A82850B837402F0E88508F2
:1037640082850983F0E985128285138380A3850C01
:1037740082850D83123026120671EAFC8C82A8829F
:10378400C39EE49F404BE86E7001EF70047C0080A0
:103794001F851882851983E0FAEE2AFAEF3400FBBC
:1037A400C3EA98EB94005003E08004EECCC39CFC85
:1037B400EC850A82850B83F08C0A750B00780A125B
:1037C4001BF2850C82850D83E02EFCA3E03F0235BD
:1037D40072751007023584EE4F600302358B850C39
:1037E40082850D83123BB7850A82850B837407F0AB
:1037F400888289831238A412388CE085128285135A
:1038040083F0E82402FAE93400FB8A828B831238BD
:10381400A41238DD1238ACA31238E61238B5F0E839
:103824002405F8E93400F9888289831238B5A31293
:1038340038FEA3023712741D1219D312399D700376
:10384400023581123BB7880C890DE8450D700302DF
:1038540035818E108F117810121BF2780A121BF228
:103864007808121BF274061219D3E0F9AC0EAD0FEE
:10387400AA16AB17850C82850D831219DD74061206
:10388400199EE9F510023584F088828983A322F514
:103894000CEF3400F50D22E0F50E750F00780E22C2
:1038A400E08508828509832212390522123BBBE890
:1038B40022123905A3A322A3A3A3A3E0FEA3E0FF3E
:1038C40022850C82850D83E0F8A3E0F5838882E0ED
:1038D40022E0F508A3E0F50922A3A3F08A828B83F2
:1038E400A322122598A3A322F08A828B831238F58F
:1038F40022E0F50A750B00780A2212388C12390579
:1039040022E0850882850983A3A32274EE1219DFBD
:1039140074FE1219888A0A8B0BECFAEDFB741412EC
:1039240019D3E0F510A3E0F51174161219D3E0FED3
:1039340074181219D3E0F50EA3E0F50F85188285EB
:103944001983AC82AD83123992603E851882851941
:103954008312399D602FA3A31238D5E50845096069
:1039640024780E121BF27810121BF2EEF9AC0CAD97
:103974000DAA0AAB0B8508828509831219DD74042C
:1039840012199E8006790E80027901022DD2120D41
:10399400198A0C8B0DEA450D2212302A1239A42201
:1039A400120DE58A828B83E58245832274F612190F
:1039B400DF74FE121988740C1219D31238B08518EA
:1039C40082851983F074011219D3E9F0E4F508F53E
:1039D400097808121BF27508027808121BF27404A5
:1039E4001219D38582088583097808121BF2120EF6
:1039F40039740612199E740212199E806474F712A7
:103A040019DFEAFEEBFF89087C807D08120E51EA7B
:103A14005402600BA908EEFAEFFB120D0D80027937
:103A2400010233EE74F61219DF74FF6A700374FF37
:103A34006B701C7B00EB75F003A4F8A9F0EC28F87C
:103A4400ED39F9123A6A0BEBC39402501480E61272
:103A54000E218A088B09A808A909E8496003123ACB
:103A64006A7F02021AB18882898374FF122596E460
:103A7400F02274F61219DF120E218A828B83E582FA
:103A840045836006A3A3E0FA80027A007B0080D11C
:103A940074F21219DF8A088B09ECFEEDFF740E1222
:103AA40019D3E0F50A123ADA701CEEFCEFFD7AFF46
:103AB4007BFF123ADA70047911801688828983E5D3
:103AC40008F0A3E509F088828983A3A3E50AF079C5
:103AD400007F06021AB1120E218A0C8B0DA80CA9C4
:103AE4000DE8492274EE1219DFEAFEEBFF8C088D13
:103AF40009890C74121219D3123BB774141219D316
:103B040012338174161219D3123026750D00EC4D40
:103B14006003023BAB7402650C6003023BA688821F
:103B24008983123386F9EC2400F50EE439F50FEAA3
:103B3400F4F8EBF4F9EC58F8E50F59F9E849705D3D
:103B4400E5082406F8E5093400F9880A890B888217
:103B5400F583122CBB120E518A108B11E50E6510E1
:103B64007004E50F65116042780E121BF2850A821B
:103B7400850B83122CBB120E57740212199EE9F5A1
:103B84000D7027780E121BF2850882850983A3A382
:103B9400122CB9120E6F740212199E800D750D80CD
:103BA4008008750D0D8003750D0BA90D02328C8EE6
:103BB400828F83123BBB22E0F8A3E0F92274E8125F
:103BC40019DF74E7121988851882851983EAF0A32E
:103BD400EBF08C168D17890E74311219D3E0F5129F
:103BE400A3E0F51374331219D3E0F514A3E0F5152B
:103BF40074351219D3E0F50F750800750900E5094D
:103C040075F003A4F8A9F0851882851983123D2B59
:103C1400E0F47003A3E0F47003023D09EE2402F51E
:103C24000CEF123D21E07003023D0985160A851749
:103C34000B780A121BF2AC14AD15AA12AB13120DB9
:103C4400D9740212199E8A0A8B0BEA450B7003027F
:103C54003D09E4F510F5117810121BF274061219DF
:103C6400D38582108583117810121BF274091219FE
:103C7400D38582108583117810121BF285128285F8
:103C84001383A3A3A3A3121C097914AC0AAD0B8E4E
:103C9400828F83123D3F12199EE97069850A8285DD
:103CA4000B83A3A3A3A3123BB774021219D3123339
:103CB40098850C82850D83E0A2E05018A90E740249
:103CC4001219D3AC82AD838E828F83123026120DEB
:103CD40031E94208850C82850D83E0A2E15026E596
:103CE4000FF50A780A121BF6A90E74031219D3AC45
:103CF40082AD838E828F83123026120D2B740112B3
:103D0400199EE942080509E509C394025003023CDF
:103D140002A908741912199E7F10021AB13400F511
:103D24000D850C82F58322E028FEA3E039FF8E8204
:103D34008F83227916850A82850B8312302A120E0C
:103D44003374082274F21219DFEAFEEBFF890B7454
:103D540001650B600E7402650B7063790112104FDC
:103D6400E9705BEEFAEFFB123DC56047750A00800F
:103D74000B7C177D00790012068F050A90084DE030
:103D8400F8E50AC3985021E50A75F017A4F8A9F0DC
:103D9400850882850983A3A3E028FAA3E039FB8A76
:103DA400828B831226E770C985088285098374FF94
:103DB400F0A3F07C807D08EEFAEFFB120E4B023A82
:103DC400D5120E1B8A088B09EA45092274F21219CE
:103DD400DF8A088B09ECFEEDFF740E1219D312343E
:103DE4006D90117FE0F4603D7A097B0012069BEA36
:103DF4004B60328A828B8374B1F0A3E41238DFA360
:103E04001238DDA3E508F0A3E509123E2CEEF0A379
:103E1400EF123E2CA3A3E50AF0A3E50BF090117F6B
:103E2400E0F91206A7023AD5F08A828B83A3A3A3F2
:103E3400A3A322C082C0839061907404F0A3744849
:103E4400F0A3E4F09061807440F09061BC7407F0DA
:103E54009061877469F09061B67416F0790012115C
:103E640045790212114B902454E493F46006E493D0
:103E7400F91211217905121433024242C082C0831F
:103E8400E9540FF9906185E0696012E5C6548044F5
:103E940049F5C6E59E547F644970F8E9F053C6803D
:103EA400E59E547F70FA02424274F71219DFE5A8C6
:103EB400FE53A87E12112DC2BA539AFEC289759B75
:103EC40000C2C212113375A91175B905121139D284
:103ED400BA439A0174805E42A80247D0C082C0836C
:103EE400906181E4F0A302423F75E9007591007589
:103EF400BF00020122C082C083906181E4F0A374F8
:103F0400C0F0A3E4024241C082C08374F81219884D
:103F140090092C1246B2E8497003023FC290092C62
:103F2400E0544060237908851882851983AA82ABFE
:103F340083121235851882851983AA82AB83120EE7
:103F4400E190092CE054BFF0E054806010790C7AC1
:103F5400E57B0A12123590092CE0547FF0E0A2E0D0
:103F640050087900123FCA54FEF0E0540260087908
:103F740001123FCA54FDF0E0540460087900123F76
:103F8400D554FBF0E0540860087901123FD554F78A
:103F9400F0E0541060087902123FD554EFF0E05479
:103FA4002060087903123FD554DFF0A3E054016088
:103FB4000D121157120EF390092DE054FEF07408FF
:103FC40012199E024242121145120EE790092CE08A
:103FD4002212114B120EED90092CE022C082C083F4
:103FE400E9600514602A804F90619A7433F0A374D9
:103FF40055F09061A0743AF0900AC1E06401700930
:10400400C29190092E7467802D90092E74618026C8
:1040140090619A743FF0A3745AF09061A0747FF099
:10402400900AC1E064017009D29190092E747180E4
:104034000590092E746AF0024242C082C083E9608E
:104044000B14600D14600F146011802090245880AC
:1040540015902459801090245A800B900AC1E06472
:104064000160F390245BE493906186F00242427411
:10407400EE1219DF74F4121988851882851983AC3D
:1040840082AD8375838F7582C2740412189B902449
:104094005893F46003024205907808E0C3940250F8
:1040A400030241E574041219D3AC82AD8375838F86
:1040B40075825E740812189BF97AFF7BFF7FFF7E7E
:1040C400008982858210801874086E700302419AF8
:1040D40074096E700302419A740A6E700302419A65
:1040E400E510C333FCE433FD74041219D3E5822CC8
:1040F400F582E5833DF583E0F50EA3E0F50F8E0828
:104104007509007402780812197574482508FC743E
:10411400783509FD8C828D837808121858740878D4
:104124000812179985080C85090D8C828D837808EF
:1041340012185874187808121799E50C4508F508F0
:10414400E50DF509C3E50E9508E50F95098C828DFB
:104154008378081218588C828D8378081218587442
:104164001878084014121799E50C4508FCAD0DE5C4
:104174000EC39CFCE50F9D800F121799E50C4508B2
:10418400C3950EFCE50D950FFDC3EC9AED9B50060F
:10419400ECFAEDFBEEFF0EEEC3941350030240CC99
:1041A40074FF6A700374FF6B602D8F0874027808C3
:1041B4001219757448124E5E74783509F5837808BF
:1041C400121858851882851983E5822510F582E531
:1041D40083124BEBE508F009E9C394045003024051
:1041E400BD7508017509007808121BF274021219D2
:1041F400D3AC82AD837A167B091208FF74021219BC
:104204009E740C12199E7F0A021AB1C082C0839058
:10421400618674D5F09061AE7468F0A3746AF0900E
:10422400624574FBF0A304F053F4FD43FE02900ACC
:10423400C17401F079001211458003F0A3F0D0831A
:10424400D082020122C082C08375E1F1900A76E037
:10425400604E14600814605214604A805212116354
:10426400900A6CE0F97A6D7B0A1213B590900212F1
:1042740018761213EB908FDA1218761213C1900A83
:1042840077E0F91213CD7901121427900A6AE02419
:10429400161243D8747BF0A37411F07900024242E1
:1042A40012116980BB12116F80B612117580B17939
:1042B4001280EA74F41219DF75D90D900A5CE0A239
:1042C400E0E4331313F8124344484401F5D9780069
:1042D4001243C240FB78008808745D124E5E740A73
:1042E4001243CC40F275E195900A5CE0F97A5D7B6B
:1042F4000A1213BB9011A174F7F0A374101243E7D0
:104304001244071243FE12453F12434E7808121816
:1043140058908FB678081217E4908FD67808121840
:10432400321243D27808121867900A6AE0241412F1
:1043340043D87413F090092A7402F07F04021AB16E
:10434400900A6CE0C4333354C022900A6AE0F8A3A4
:10435400E0F5838882A3A32274F61219DF124510B4
:104364008AD978001243C240FB7800800612447652
:104374001245C2E8C39940F51245021243C240FBFC
:1043840078008008124E5A740A1245C2E8C3994054
:10439400F375E1959011A17403F0A374111243E72E
:1043A4001243F11218761243D2121882900A6AE06C
:1043B40024141243D87412F090092A0247AD8808D5
:1043C400746D2508F582740A12471E940622900A19
:1043D4006AE0240EF8A3E01243DF223400F9888255
:1043E40089832212452874FDF0A374102212440715
:1043F4001243FE124543908FE222F0A37415F0A3FA
:1044040074112212440B2212440F22F0A374A1F05F
:10441400A374122274F61219DF12446B124344443B
:1044240002F5D978001243C240FB7800800612449A
:10443400761245C2E8C39940F575E1959011A11231
:104444004481F0A31244811243F41218761243D229
:10445400121882900A6AE024141243D87414F0905B
:10446400092A74040247AF900A7CE0F9740729F51D
:10447400D9228808747D2508F582740A22740F12E3
:10448400448E12448EF0A3741122F0A37411F0A38D
:10449400740F2274F61219DF12451074064AF5D906
:1044A40078001243C240FB7800800612447612451D
:1044B400C2E8C39940F51245021243C240FB78009A
:1044C4008008124E5A740A1245C2E8C39940F37523
:1044D400E1959011A17409F0A3741112451E1243C1
:1044E400F11218761243D2121882900A6AE0241448
:1044F4001243D87415F090092A74030247AF900A46
:104504009C12446E74044AF5D978002212446B90CC
:104514000A6CE0C4333354C0FA2212452874A1F063
:10452400A374122212452C2212453974A1F0A374EB
:10453400121245392212440FF0A32212454322F0ED
:104544009011AF74A1F0A3741212452C74A1F0A3BE
:10455400741212440BF022C082C08312434EA3A3F0
:10456400A3A3E402423F74F71219DF1250A0F874B7
:104574000939F9E82405FAE93400FB8A828B8312AD
:104584004E0F88828983A3A3A3A3A3A3A3A3A3EC0D
:10459400F0A3EDF088828983A3A3A3A3A3A3A3E03C
:1045A40024FFF8A3E034FFF98A828B83E8F0A3E9BF
:1045B400F00247D0880874C52508F582740A124DA4
:1045C40036F5D90822EAFEEBFF9061D0E0F874805A
:1045D400C398FAEE2483221245E1940422124BF983
:1045E400E0F5D90AEAC32274F61219DFEAFEEBFFFA
:1045F4009061D0E0707575D90E75D90375D9047AB8
:10460400008A08EE250812516E248C12468440F16B
:104614007A008A08EE250812516E24841245DB4084
:10462400F175E1957908EE248C12467D24841246B6
:10463400747C008C82AA82C3E49AF895E0F9EE288F
:10464400F8EF39F9E8248BF582E9124D32C0E0EE37
:104654002A12516E24ABF582E9124BEBD0E0F00C38
:10466400ECC3940840CD12473A800279000247B067
:10467400FAEF3400FB121229221246747904EE2256
:104684001245E1940822C082C08375D90275D9030A
:1046940075D90575E195EA2470F582EB1246AFEA07
:1046A4002472F582EB12474C024242124BFC124632
:1046B400B622E0F8A3E0F92274F61219DFEAFEEB61
:1046C400FF900AC57406124728121BF27C01790375
:1046D400124A5412199E75D90675D90378001247E7
:1046E4000E40FB75E19590092AE064087017EE24EA
:1046F40070F582EF1246AFEE2472F582EF124BEBA7
:10470400E8F0A3E9F079010247B0880874C52508E8
:10471400F582740A12471E940522124BFCE0F5D967
:1047240008E8C322F07508C575090A78082275E1FE
:104734009579041213F1EE2470F582EF124BFC12FA
:1047440046B6EE2472F582EF124BFCE8F0A3E9F0D2
:1047540079012274F61219DFEAFEEBFF9061D0E0D2
:1047640070437901900AC5740BF090092AE064073C
:1047740070177508C575090A7808121BF27C0109BF
:1047840009124A5412199E7905740129F5D975D96B
:1047940003780080031245B8E8C39940F875E195A1
:1047A40012473A8002790080037401F07F02021AF2
:1047B400B174F71219DFEAFEEBFF75D90375D9035B
:1047C40075D90DEE24DE1247D51247327F01021A45
:1047D400B1F582EF124D36F5D9227F03021AB17476
:1047E40001250AF5D975D90378002274F51219DF69
:1047F4001248646004780480027800E8240BF8EA24
:10480400C3984041750A09900AC57409F0790812E1
:10481400484D60147508C575090A7808121BF21210
:104824004A4C12199E750A0D1247E380031245B8CB
:10483400E8C3950A40F775E19579041213F112491A
:10484400C97901800279008091EE24E3FCEF340001
:10485400FD7AC67B0A121223850882850983E02229
:104864001245C9F8EF124E03F583E02274F31219CE
:10487400DF8A088B09124A5FFAE5082483F50AEBFC
:1048840012492E6004780480027800E82408F8EACB
:10489400C3985003024927750C06900AC5740CF09E
:1048A400900947E0900AC6F07402C0E0F97C487DA4
:1048B400097AC77B0A121223D0E0F97C4A7D0912D7
:1048C4001223850A82850B83E0601C750AC5750B6B
:1048D4000A780A121BF27C067903AA08AB09124A69
:1048E4005412199E750C0A7401250CF5D975D90357
:1048F40078008009880A74C5250A1245BEE8C39564
:104904000C40F175E19579041213F1E5082470F572
:1049140082E5091246AFE5082472F582E5091247DB
:104924004C800279007F05021AB13400F50B850A28
:1049340082F583E02274F61219DFEAFEEBFF124AD5
:104944005FFCEE2483F8EF124A5A60047A04800272
:104954007A00EA2404FAECC39A405E7A02900AC50B
:10496400EAF0EE24F5F582EF1249D560197508C511
:1049740075090A7808121BF27C027903EEFA124ACE
:104984005412199E7A0674012AF5D975D903780050
:1049940080031245B8E8C39A40F875E195EE247493
:1049A4001249C2EE24801249C21249C97904121371
:1049B400F1EE240D12473D800279000247B0F582E2
:1049C400EF124B4522EE241DF582EF124B45A3F066
:1049D40022124D36900AC6F088828983E02274F64A
:1049E4001219DF124A5FFEEA2483F8EB124A5A6076
:1049F400047C0480027C00EC2404FCEEC39C404351
:104A04007C02900AC57407F0EA24F6F582EB124999
:104A1400D560157508C575090A7808121BF2790363
:104A2400124A5412199E7C0674012CF5D975D903C7
:104A3400780080031245B8E8C39C40F875E1957985
:104A440001800279000247B07C097903EEFAEFFB9A
:104A54001212957402221243DFE0229061D0E0F832
:104A64007480C3982274F51219DFE9FEA2AFE4330F
:104A7400F50AC2AF7F00EA246FF8EB3400F9800135
:104A84000F88828983E0FCEFC39C50188F08EA25C5
:104A940008FCEB3400FDEC246BF582ED124D326E14
:104AA40070DE8010EA2CFAEB3400FB124BE5EE12B8
:104AB40049DB04F0E50AA2E092AF0247DE74F61285
:104AC40019DFA2AFE433FFC2AFEA246FF8EB12514F
:104AD40070FCE9FD8C828D83E014F07E0080218ED1
:104AE40008EA2508F8EB125170246CF582E9124D9E
:104AF40032C0E0E8246BF582E9124BEBD0E0F00E13
:104B04008C828D83E0F8EEC39840D4EA246E124B75
:104B1400E874FF124B3AEFA2E092AF0247B0C082B2
:104B2400C083E5A8F8C2AF124BE5E9124B3AE8A2FC
:104B3400E792AF024242F0EA246AF582EB124B4557
:104B440022124BFCE4F02274F21219DF8C828D8362
:104B5400A3A3A3A3E0541FF0EA2436124EA78E8227
:104B64008F83E4F0F50C850C8285820AEC250AF823
:104B7400ED124DFFF583E0C0E0EA250AF8EB124B95
:104B8400EFD0E0F0750D00850882850983E0F50A11
:104B9400750B00E50D780A121956E50AA2E0502AB1
:104BA400E50C33333354F8250DC0E08E828F83E057
:104BB400F8EA28F8EB1251702438F582E9124BEB2D
:104BC400D0E0F08E828F83E004F0050DE50DC394F0
:104BD4000840B4050CE50CC39405408A7F06021A0C
:104BE400B1EA246BF582EB124BFC223400F9E82481
:104BF4005D124BF922F582E93400F5832274F61232
:104C040019DF900954E0640170077A007B00024DBB
:104C14002C7E0090095AE070F17401F0A3E4F0A333
:104C2400F09009BA04F09009BDE4F0A3F09009C033
:104C340004F090095DE4124D4390096704F0900973
:104C44008DE4F0908FF61218769009701218829005
:104C54000974E4F0A3F0A3F09009D8F09009CCF023
:104C64009009C17480F0A3E4F09009C7F09009BFE3
:104C7400F0900A43124D3B900A4CF09009DBF090FF
:104C84000A2BF0A3F0908FF6121876900A2D1218C2
:104C940082908FF6121876900A31121882900A3791
:104CA400E4F0900A39F0900A35F0900A4F124D3B27
:104CB4008E0874C3124E5E7409124BEB74FFF00E2F
:104CC400EEC3940440EA7E008E82A882746328F5C1
:104CD40082740A124D32C0E074B528F58274091248
:104CE4004BEBD0E0F00EEEC3940540DC7E008E82E8
:104CF400A882743E28F5827409124D32C0E0743BD8
:104D040028F582740A124BEBD0E0F00EEEC394083F
:104D140040DC900954E004F06401700890095CE000
:104D2400900956F07A587B090247B0F582EF124D8C
:104D34003622124BFCE022124D43A3124D4322F0C3
:104D4400A3F0A3F0A3F022C082C083EA2403F58277
:104D5400EB124D326008E4F0900955E014F090092C
:104D640054E014F0700690095674FFF08A828B8325
:104D7400A3A3E4F0900A68E0700D900955E0640183
:104D8400700579001213D3024242C082C083900995
:104D94005BE4F090095AF0900954F0A3F0A374FF77
:104DA400F075E1F1024242C082C08378007900903C
:104DB400095BE060047858790988828983A3A3A3F6
:104DC400A3E0F902424274F61219DFEAFEEBFF1285
:104DD40011DBEE2465F8EF124DFF124E0DEC4D6021
:104DE40010900956125098850882850983E4F0A32F
:104DF400F0EEFAEFFB1212CB0247B0124E0322344C
:104E040000F988088909888222F583E0FCA3E0FD83
:104E14002274F71219DFEAFEEBFF8E828F83A3A3BD
:104E2400A3A3E0FA7B00120F59EEFAEFFB1211ED87
:104E34001212AD0247D074F61219DF780088087494
:104E44003E124E5E74091249C508E8C3940840ED49
:104E540090093E0247AD8808749D2508F5822274A6
:104E6400F61219DFEA240D124EA7EC2403F8ED34F0
:104E740000F988088909EC2407F8ED125170FCE95F
:104E8400FD124EB11218FD8E828F83E8F0A3E9F073
:104E9400124EB11218FD8B09EA45096003124EC483
:104EA4000247B0F8EB3400F9E8FEE9FF228C828D6A
:104EB400831246B6850882850983E0FAA3E0FB22C3
:104EC4008E828F83E02401F0A3E03400F02274F694
:104ED4001219DFEA242EF582EB3400124E0DEA2477
:104EE40070124EA7780079FAECFAEDFB1218FD8ED9
:104EF400828F83E8F0A3E9F0780079FAECFAEDFB0D
:104F04001218FD8B09EA45096003124EC40247B02A
:104F140074F01219DFEAFEEBFF74101219D378084B
:104F24001218581213858A0C8B0D8C0E8D0F908FCE
:104F3400B2780C1217E4908FD6780C121832780CD1
:104F4400121BEE8E828F831243511218761221E1C6
:104F5400740412199EE96003024FFC8E828F83E071
:104F64002402F8A3E0125170FAE9FB8A828B837859
:104F7400081217F7908FD678081218588A828B83F4
:104F84007808121845EE240BF582EF124BEBC08221
:104F9400C0838E828F83A3A3A3A3A3E02401F8A3D9
:104FA400E03400F9D083D082E0687003A3E0697034
:104FB4000479018045EE2407F8EF1243DF124EC84E
:104FC400EE24741251757014EE247512500370039C
:104FD400A3E06D70078A828B83124EC8EE24801280
:104FE40051757014EE24811250037003A3E06D70A8
:104FF400078A828B83124EC879007F08021AB1FA9D
:10500400EF3400FB8A828B83E0FCA3E0FD88828975
:1050140083E06C2274F31219DF1250A0FE74093974
:10502400FFEE2404F50AEF3400F50BEE2465F508D1
:10503400EF3400F5098010124E0F8508828509832C
:10504400E4F0A3F0125092850882850983124E0F72
:10505400EC4D6030EE2464124D2FF50C780C121BCD
:10506400F6EE2463124D2FF9EEFAEFFB12121774C9
:105074000112199EE985088285098360BA1246B235
:10508400E84970077C007D00125092024929850A84
:1050940082850B83E0FA7B00120F1722900956E0F9
:1050A400F875F004A4C8AAF02AF97458282274F2F6
:1050B4001219DFEAFEEBFF890A740E1219D3E0FA23
:1050C400EE24621251756003025169124A5FF50CB5
:1050D400EE2483124D2FFB6004780480027800894B
:1050E40008E928F8E412517024020808E93400F9A8
:1050F400E50C98E499A2D265D0334065EA70057551
:105104000B028003750B01EB6033750900780812FC
:105114001BF27AC57B0A12125F740212199E75087B
:10512400C575090A7808121BF2AC0AA90B124A5079
:1051340012199E7404250AF50A7CC57D0A7401259A
:105144000AF5D9850BD97800800A8808EC124E5EDE
:10515400ED1245C2E8C3950A40F075E195790080E7
:10516400067907800279FF024BE0F8EF3400F9E892
:1051740022F582EF124D36640122C082C08380037F
:105184001251ACE9F874FF28190470F4ECFAEDFB41
:10519400024242C082C08380031251ACE9F874FF1A
:1051A40028190470F40242428C828D83E08A828B37
:1051B40083F08C828D83A3AC82AD838A828B83A39C
:1051C400AA82AB832274F41219DFE9FF7E008A08F5
:1051D4008B097808121C3600040D5853FC511952DF
:1051E4003252495266527D529E52B452C652EC52C9
:1051F400F45204531A53345374016F60030253542A
:105204008C828D83E0F8C394034003025354E890E6
:105214000F7002533174026F60030253548C828DF9
:1052240083125A7C900F71E8F0A3E90253317401A0
:105234006F600302535412537B4003025354E890AB
:1052440002E902533174016F60030253548C828D5E
:1052540083E0F8C394054003025354E89002EA0241
:10526400533174016F600302535412537B400302A1
:105274005354E89002EB02533174106F60030253ED
:10528400547508108E097808121BF27AEC7B02120E
:105294000677740212199E02537674016F6003023A
:1052A400535412537B4003025354E89002FC807D14
:1052B40074016F60030253548C828D83E0900F74E9
:1052C400806B74046F60030253548C828D8378085E
:1052D400121858908FD2780812168A40739002FEE2
:1052E4007808121867025376EF7065120881805BA4
:1052F40074016F705B12537B5056E89002FD802D51
:1053040074016F704B8C828D83E0F8C3940A504013
:10531400E8900F73801774016F70358C828D83E071
:10532400F874F928C3940A5027E8900F75F0804266
:1053340074016F701B900390E0F88C828D83E09071
:105344000390F0E8702CE064017027120875802245
:105354007E18801EC3EA9424EB9400501374026FE9
:10536400700E8C828D8312653A120B57E9FE80020F
:105374000E0EEEF902538A8C828D83E0F8C39402F8
:1053840022740E12199E7F04021AB174F01219DFEE
:1053940074CC1219888C0A8D0B74201219D3AC8228
:1053A400AD8375838F758272740612189B742012F4
:1053B40019D3AC82AD83120827E9F5087444121995
:1053C400D3E0FEE9C3940A40030254F675F006E9FB
:1053D400A4F50974261219D3AC82AD837A0E742015
:1053E4002509F91209BF74321219D3E0FF900F7026
:1053F400E06402700474018001E4F50D780D121B61
:10540400F6EEFDEFFCA908AA0AAB0B1208AB740177
:1054140012199E7C147D007900740C1219D3AA828F
:10542400AB8312068F740C1219D3AC82AD837A103D
:1054340074242509F91209BFE9703C7C1079FF74C2
:105444000C1219D3AA82AB831206EFE97029741CDB
:105454001219D3AC82AD837A0474252509F9120993
:10546400BF740C1219D3AC82AD83EFA2E0E433F91C
:10547400AA0AAB0B120BE1851882851983AC82ADA5
:10548400837A0C74702508F91209BFE970538518E2
:1054940082851983AA82AB83120857750800E50830
:1054A40075F003A4F8A9F0851882851983E582288C
:1054B400F8E583125C7B125E03601D88828983A3F6
:1054C400A3E0F50E750F00780E121BF2AA0AAB0BBF
:1054D400120E3F740212199E0508E508C394044095
:1054E400BDEFA2E1500C9002E8E0F9AA0AAB0B125E
:1054F4000E4574046E7027900F70E06402701F7A7A
:10550400009002FCE060010A9002E9E06004780483
:1055140080027800E84AF9AA0AAB0B120CA17900C0
:10552400743412199E7F08021AB174F01219DFEA5A
:10553400FEEBFF8C088D09750A0AE9600C146009FA
:105544001460371460790255DD120869E9F50AC35D
:10555400940A40030255DDE5084509607C750E0692
:10556400750F00780E121BF2EEFCEFFDAA08AB09D2
:10557400120677740212199E805F750B00750E0671
:10558400750F00780E121BF2EEFCEFFDE50B75F0C3
:105594000EA4F8A9F0740A28FA740339FB120689D8
:1055A400740212199EE9600C850B0AE50AC3940A79
:1055B40050278016050BE50BC3940A501C80BE12BD
:1055C400086FE9F50AC3940A500FE5084509600914
:1055D400AA08AB09A90A120863A90A02552974F496
:1055E4001219DF890875091574FF6A700374FF6B5B
:1055F40070277E00AC087A027B00EEF9120845E9B8
:1056040060037509000EEEC3940A40E8E508605390
:105614007A997B08121061804A1210438A0A8B0B14
:10562400AE0AAF0BEE4F60387C007D00EE2405FA25
:10563400EF3400FB8E828F83A3A3A3A3E0F91208A7
:1056440027E9C3940A500CAC087A027B001208457F
:10565400750900E508600CEEFAEFFB120899800367
:10566400750914A90902538A74F21219DFECFEEDCC
:10567400FF750815740E1219D3E0F50AA3E0F50BB3
:1056840074FF6A700374FF6B7021750900AC0AAD76
:105694000BEEFAEFFBA90912084BE9600375080049
:1056A4000509E509C3940A503F80E21210438A8237
:1056B4008B83E5824583602D7C007D00E582240593
:1056C400FAE5833400FBA3A3A3A3E0F9120827E9B6
:1056D400C3940A5013AC0AAD0BEEFAEFFB12084B5D
:1056E4007508008003750814A908025C43C082C0D1
:1056F40083900302EAF0A3EBF09002E8E0FC7D0063
:105704007A237B00120B579002E8E0F9120DBBD00C
:1057140083D08202012274EA1219DF74EC12198810
:10572400EAFEEBFFEE240CF514EF3400F515EE243D
:105734000AF50CEF3400F50DEE2405F50EEF3400F8
:10574400F50FEE2409F50AEF3400F50BEE2403F50A
:1057540008EF3400F5098E828F83A3A3E024FA7046
:1057640003025A6924FD7003025987147003025717
:10577400FF14601024FD7003025951147003025980
:10578400BC025A72125A82604AE0F5838882125A25
:105794007C880C890DE8450D603985148285158354
:1057A400E0F50E780E121BF6EE240BF582EF3400B2
:1057B400F583E0F9850A82850B8312653A0A0A0AA1
:1057C400AB09850C82850D831219DD740112199EB3
:1057D400025A72850A82850B83121C099002FE12FA
:1057E4001876120BF3740212199EE97003025A72AE
:1057F4007901850A82850B83025A358E828F83A3B1
:10580400858212858313E06003025934850E8285F4
:105814000F83E0A2E040030259347C0E7D0079003E
:10582400851882851983AA82AB8312068FEE240819
:10583400F510EF3400F511851082F583126172EAD8
:105844004B6010750A06750B00780A121BF2EA24E5
:1058540010801B12616C121043EA4B7003025A72DF
:10586400750A06750B00780A121BF2EA2405FCEB94
:105874003400FD74021219D3AA82AB831206777422
:105884000212199E850E82850F83E0A2E25004D293
:10589400F08002C2F0A2F0E433F8740C1219D3E0E1
:1058A40048F0850C82850D83E0F50AA3E0F50BE54D
:1058B4000A450B6013E50A2410F582E50B3400F564
:1058C40083780C121858800C750CFF750DFF750E3B
:1058D400FF750FFFE50A450B7006750A00750B008E
:1058E400851082851183E0F510A3E0F511E51045DC
:1058F400117006751000751100780C121BEE780AF1
:10590400121BF27810121BF2851482851583121C67
:10591400098E828F83A3126535740A1219D3AA8261
:10592400AB8312085D740A12199E12616C1208B7D7
:10593400125A827003025A72125A8D7003025A72FA
:10594400851282851383E0FC7901025A5D12616C31
:105954001208B7125A827003025A72E0F5838882E1
:10596400A3A3125A7C890BE8450B7003025A728E6A
:10597400828F83A3E0FC790212616C8882850B8399
:10598400025A647C007D00EE2404FAEF3400FB85A7
:105994000882850983E0F9120827E9F8C3940A40CC
:1059A40003025A72AC0CAD0D7A0475F006E8A42417
:1059B40025F91209B9025A7212616C9002FDE06075
:1059C40007900F73E0F9806C900F70E07004790514
:1059D40080621210438A0C8B0DA80CA90DE82404D4
:1059E400F50CE93400F50D8E828F83A3A3A3A3A342
:1059F400A3A3E0A2E05042E8496073850C82850DC0
:105A040083E0FE6034850A82850B83E0541070299C
:105A1400740E1219D3AC82AD83E82405FAE934007C
:105A2400FBEEF9120827E9701079038508828509CD
:105A340083126172120BED8035AC0EAD0F850C82B2
:105A4400850D83E0F912616C1208A5125A82601E5A
:105A5400125A8D60197C00790012616C8E828F83DA
:105A64001219DD8009120CB9E97003120875741457
:105A740012199E7F0E021AB1E0F8A3E0F9229003F6
:105A840002E0F8A3E0F9E84922E0F5838882A3A3C1
:105A9400E0F8A3E0F9E8FEE9FFEE4F2274F41219EE
:105AA400DF74F2121988EAFE8C0B75F006E9A4245F
:105AB40020F508851882851983AC82AD837A0EF9A6
:105AC4001209BFE9704D7C0679FF85188285198318
:105AD400AA82AB831206EFE97039740C1219D3123F
:105AE4005A7CE8F509E50B6005EE42098004EEF402
:105AF4005209850982AA82E86A7001E96011740C6E
:105B04001219D3EAF0A3E41260C5A9081209B979FD
:105B1400018002790002538574F21219DF74E612CF
:105B24001988890A8A088B09ECFEEDFF740C121996
